{"abi":[{"type":"constructor","inputs":[{"name":"name_","type":"string","internalType":"string"},{"name":"uri_","type":"string","internalType":"string"},{"name":"maxCallDataLength_","type":"uint256","internalType":"uint256"},{"name":"maxReturnDataLength_","type":"uint256","internalType":"uint256"},{"name":"maxExecutionsLength_","type":"uint256","internalType":"uint256"}],"stateMutability":"payable"},{"type":"receive","stateMutability":"payable"},{"type":"function","name":"ADMIN_ROLE","inputs":[],"outputs":[{"name":"","type":"uint256","internalType":"uint256"}],"stateMutability":"view"},{"type":"function","name":"DENOMINATOR","inputs":[],"outputs":[{"name":"","type":"uint256","internalType":"uint256"}],"stateMutability":"view"},{"type":"function","name":"FOUNDED_AT","inputs":[],"outputs":[{"name":"","type":"uint256","internalType":"uint256"}],"stateMutability":"view"},{"type":"function","name":"MAX_CALLDATA_LENGTH","inputs":[],"outputs":[{"name":"","type":"uint256","internalType":"uint256"}],"stateMutability":"view"},{"type":"function","name":"MAX_EXECUTIONS_LENGTH","inputs":[],"outputs":[{"name":"","type":"uint256","internalType":"uint256"}],"stateMutability":"view"},{"type":"function","name":"MAX_RETURN_DATA_LENGTH","inputs":[],"outputs":[{"name":"","type":"uint256","internalType":"uint256"}],"stateMutability":"view"},{"type":"function","name":"PUBLIC_ROLE","inputs":[],"outputs":[{"name":"","type":"uint256","internalType":"uint256"}],"stateMutability":"view"},{"type":"function","name":"addFlow","inputs":[{"name":"flow","type":"tuple","internalType":"struct PowersTypes.Flow","components":[{"name":"mandateIds","type":"uint16[]","internalType":"uint16[]"},{"name":"nameDescription","type":"string","internalType":"string"}]}],"outputs":[],"stateMutability":"nonpayable"},{"type":"function","name":"adoptMandate","inputs":[{"name":"mandateInitData","type":"tuple","internalType":"struct PowersTypes.MandateInitData","components":[{"name":"nameDescription","type":"string","internalType":"string"},{"name":"targetMandate","type":"address","internalType":"address"},{"name":"config","type":"bytes","internalType":"bytes"},{"name":"conditions","type":"tuple","internalType":"struct PowersTypes.Conditions","components":[{"name":"allowedRole","type":"uint256","internalType":"uint256"},{"name":"votingPeriod","type":"uint32","internalType":"uint32"},{"name":"timelock","type":"uint32","internalType":"uint32"},{"name":"throttleExecution","type":"uint32","internalType":"uint32"},{"name":"needFulfilled","type":"uint16","internalType":"uint16"},{"name":"needNotFulfilled","type":"uint16","internalType":"uint16"},{"name":"quorum","type":"uint8","internalType":"uint8"},{"name":"succeedAt","type":"uint8","internalType":"uint8"}]}]}],"outputs":[{"name":"mandateId","type":"uint16","internalType":"uint16"}],"stateMutability":"nonpayable"},{"type":"function","name":"assignRole","inputs":[{"name":"roleId","type":"uint256","internalType":"uint256"},{"name":"account","type":"address","internalType":"address"}],"outputs":[],"stateMutability":"nonpayable"},{"type":"function","name":"blacklistAddress","inputs":[{"name":"account","type":"address","internalType":"address"},{"name":"blacklisted","type":"bool","internalType":"bool"}],"outputs":[],"stateMutability":"nonpayable"},{"type":"function","name":"canCallMandate","inputs":[{"name":"caller","type":"address","internalType":"address"},{"name":"mandateId","type":"uint16","internalType":"uint16"}],"outputs":[{"name":"","type":"bool","internalType":"bool"}],"stateMutability":"view"},{"type":"function","name":"cancel","inputs":[{"name":"mandateId","type":"uint16","internalType":"uint16"},{"name":"mandateCalldata","type":"bytes","internalType":"bytes"},{"name":"nonce","type":"uint256","internalType":"uint256"}],"outputs":[{"name":"","type":"uint256","internalType":"uint256"}],"stateMutability":"nonpayable"},{"type":"function","name":"castVote","inputs":[{"name":"actionId","type":"uint256","internalType":"uint256"},{"name":"support","type":"uint8","internalType":"uint8"}],"outputs":[],"stateMutability":"nonpayable"},{"type":"function","name":"castVoteWithReason","inputs":[{"name":"actionId","type":"uint256","internalType":"uint256"},{"name":"support","type":"uint8","internalType":"uint8"},{"name":"reason","type":"string","internalType":"string"}],"outputs":[],"stateMutability":"nonpayable"},{"type":"function","name":"closeConstitute","inputs":[],"outputs":[],"stateMutability":"nonpayable"},{"type":"function","name":"closeConstitute","inputs":[{"name":"newAdmin","type":"address","internalType":"address"}],"outputs":[],"stateMutability":"nonpayable"},{"type":"function","name":"closeConstitute","inputs":[{"name":"newAdmin","type":"address","internalType":"address"},{"name":"_flows","type":"tuple[]","internalType":"struct PowersTypes.Flow[]","components":[{"name":"mandateIds","type":"uint16[]","internalType":"uint16[]"},{"name":"nameDescription","type":"string","internalType":"string"}]}],"outputs":[],"stateMutability":"nonpayable"},{"type":"function","name":"constitute","inputs":[{"name":"constituentMandates","type":"tuple[]","internalType":"struct PowersTypes.MandateInitData[]","components":[{"name":"nameDescription","type":"string","internalType":"string"},{"name":"targetMandate","type":"address","internalType":"address"},{"name":"config","type":"bytes","internalType":"bytes"},{"name":"conditions","type":"tuple","internalType":"struct PowersTypes.Conditions","components":[{"name":"allowedRole","type":"uint256","internalType":"uint256"},{"name":"votingPeriod","type":"uint32","internalType":"uint32"},{"name":"timelock","type":"uint32","internalType":"uint32"},{"name":"throttleExecution","type":"uint32","internalType":"uint32"},{"name":"needFulfilled","type":"uint16","internalType":"uint16"},{"name":"needNotFulfilled","type":"uint16","internalType":"uint16"},{"name":"quorum","type":"uint8","internalType":"uint8"},{"name":"succeedAt","type":"uint8","internalType":"uint8"}]}]}],"outputs":[],"stateMutability":"nonpayable"},{"type":"function","name":"editFlowByIndex","inputs":[{"name":"index1","type":"uint8","internalType":"uint8"},{"name":"index2","type":"uint8","internalType":"uint8"},{"name":"mandateId","type":"uint16","internalType":"uint16"}],"outputs":[],"stateMutability":"nonpayable"},{"type":"function","name":"eip712Domain","inputs":[],"outputs":[{"name":"fields","type":"bytes1","internalType":"bytes1"},{"name":"name","type":"string","internalType":"string"},{"name":"version","type":"string","internalType":"string"},{"name":"chainId","type":"uint256","internalType":"uint256"},{"name":"verifyingContract","type":"address","internalType":"address"},{"name":"salt","type":"bytes32","internalType":"bytes32"},{"name":"extensions","type":"uint256[]","internalType":"uint256[]"}],"stateMutability":"view"},{"type":"function","name":"flows","inputs":[{"name":"","type":"uint256","internalType":"uint256"}],"outputs":[{"name":"nameDescription","type":"string","internalType":"string"}],"stateMutability":"view"},{"type":"function","name":"fulfill","inputs":[{"name":"mandateId","type":"uint16","internalType":"uint16"},{"name":"actionId","type":"uint256","internalType":"uint256"},{"name":"targets","type":"address[]","internalType":"address[]"},{"name":"values","type":"uint256[]","internalType":"uint256[]"},{"name":"calldatas","type":"bytes[]","internalType":"bytes[]"}],"outputs":[],"stateMutability":"nonpayable"},{"type":"function","name":"getActionCalldata","inputs":[{"name":"actionId","type":"uint256","internalType":"uint256"}],"outputs":[{"name":"callData","type":"bytes","internalType":"bytes"}],"stateMutability":"view"},{"type":"function","name":"getActionData","inputs":[{"name":"actionId","type":"uint256","internalType":"uint256"}],"outputs":[{"name":"mandateId","type":"uint16","internalType":"uint16"},{"name":"proposedAt","type":"uint48","internalType":"uint48"},{"name":"requestedAt","type":"uint48","internalType":"uint48"},{"name":"fulfilledAt","type":"uint48","internalType":"uint48"},{"name":"cancelledAt","type":"uint48","internalType":"uint48"},{"name":"caller","type":"address","internalType":"address"},{"name":"nonce","type":"uint256","internalType":"uint256"}],"stateMutability":"view"},{"type":"function","name":"getActionReturnData","inputs":[{"name":"actionId","type":"uint256","internalType":"uint256"},{"name":"index","type":"uint256","internalType":"uint256"}],"outputs":[{"name":"returnData","type":"bytes","internalType":"bytes"}],"stateMutability":"view"},{"type":"function","name":"getActionState","inputs":[{"name":"actionId","type":"uint256","internalType":"uint256"}],"outputs":[{"name":"","type":"uint8","internalType":"enum PowersTypes.ActionState"}],"stateMutability":"view"},{"type":"function","name":"getActionUri","inputs":[{"name":"actionId","type":"uint256","internalType":"uint256"}],"outputs":[{"name":"_uri","type":"string","internalType":"string"}],"stateMutability":"view"},{"type":"function","name":"getActionVoteData","inputs":[{"name":"actionId","type":"uint256","internalType":"uint256"}],"outputs":[{"name":"voteStart","type":"uint48","internalType":"uint48"},{"name":"voteDuration","type":"uint32","internalType":"uint32"},{"name":"voteEnd","type":"uint256","internalType":"uint256"},{"name":"againstVotes","type":"uint32","internalType":"uint32"},{"name":"forVotes","type":"uint32","internalType":"uint32"},{"name":"abstainVotes","type":"uint32","internalType":"uint32"}],"stateMutability":"view"},{"type":"function","name":"getAdoptedMandate","inputs":[{"name":"mandateId","type":"uint16","internalType":"uint16"}],"outputs":[{"name":"mandate","type":"address","internalType":"address"},{"name":"mandateHash","type":"bytes32","internalType":"bytes32"},{"name":"active","type":"bool","internalType":"bool"}],"stateMutability":"view"},{"type":"function","name":"getAmountRoleHolders","inputs":[{"name":"roleId","type":"uint256","internalType":"uint256"}],"outputs":[{"name":"amountMembers","type":"uint256","internalType":"uint256"}],"stateMutability":"view"},{"type":"function","name":"getConditions","inputs":[{"name":"mandateId","type":"uint16","internalType":"uint16"}],"outputs":[{"name":"conditions","type":"tuple","internalType":"struct PowersTypes.Conditions","components":[{"name":"allowedRole","type":"uint256","internalType":"uint256"},{"name":"votingPeriod","type":"uint32","internalType":"uint32"},{"name":"timelock","type":"uint32","internalType":"uint32"},{"name":"throttleExecution","type":"uint32","internalType":"uint32"},{"name":"needFulfilled","type":"uint16","internalType":"uint16"},{"name":"needNotFulfilled","type":"uint16","internalType":"uint16"},{"name":"quorum","type":"uint8","internalType":"uint8"},{"name":"succeedAt","type":"uint8","internalType":"uint8"}]}],"stateMutability":"view"},{"type":"function","name":"getFlowCount","inputs":[],"outputs":[{"name":"","type":"uint256","internalType":"uint256"}],"stateMutability":"view"},{"type":"function","name":"getFlowDescriptionAtIndex","inputs":[{"name":"index","type":"uint8","internalType":"uint8"}],"outputs":[{"name":"","type":"string","internalType":"string"}],"stateMutability":"view"},{"type":"function","name":"getFlowMandatesAtIndex","inputs":[{"name":"index","type":"uint8","internalType":"uint8"}],"outputs":[{"name":"","type":"uint16[]","internalType":"uint16[]"}],"stateMutability":"view"},{"type":"function","name":"getLatestFulfillment","inputs":[{"name":"mandateId","type":"uint16","internalType":"uint16"}],"outputs":[{"name":"latestFulfillment","type":"uint48","internalType":"uint48"}],"stateMutability":"view"},{"type":"function","name":"getMandateActionAtIndex","inputs":[{"name":"mandateId","type":"uint16","internalType":"uint16"},{"name":"index","type":"uint256","internalType":"uint256"}],"outputs":[{"name":"actionId","type":"uint256","internalType":"uint256"}],"stateMutability":"view"},{"type":"function","name":"getMandateCounter","inputs":[],"outputs":[{"name":"","type":"uint16","internalType":"uint16"}],"stateMutability":"view"},{"type":"function","name":"getQuantityMandateActions","inputs":[{"name":"mandateId","type":"uint16","internalType":"uint16"}],"outputs":[{"name":"quantityMandateActions","type":"uint256","internalType":"uint256"}],"stateMutability":"view"},{"type":"function","name":"getRoleHolderAtIndex","inputs":[{"name":"roleId","type":"uint256","internalType":"uint256"},{"name":"index","type":"uint256","internalType":"uint256"}],"outputs":[{"name":"account","type":"address","internalType":"address"}],"stateMutability":"view"},{"type":"function","name":"getRoleLabel","inputs":[{"name":"roleId","type":"uint256","internalType":"uint256"}],"outputs":[{"name":"label","type":"string","internalType":"string"}],"stateMutability":"view"},{"type":"function","name":"getRoleMetadata","inputs":[{"name":"roleId","type":"uint256","internalType":"uint256"}],"outputs":[{"name":"metadata","type":"string","internalType":"string"}],"stateMutability":"view"},{"type":"function","name":"getTreasury","inputs":[],"outputs":[{"name":"","type":"address","internalType":"address payable"}],"stateMutability":"view"},{"type":"function","name":"hasRoleSince","inputs":[{"name":"account","type":"address","internalType":"address"},{"name":"roleId","type":"uint256","internalType":"uint256"}],"outputs":[{"name":"since","type":"uint48","internalType":"uint48"}],"stateMutability":"view"},{"type":"function","name":"hasVoted","inputs":[{"name":"actionId","type":"uint256","internalType":"uint256"},{"name":"account","type":"address","internalType":"address"}],"outputs":[{"name":"","type":"bool","internalType":"bool"}],"stateMutability":"view"},{"type":"function","name":"isBlacklisted","inputs":[{"name":"account","type":"address","internalType":"address"}],"outputs":[{"name":"","type":"bool","internalType":"bool"}],"stateMutability":"view"},{"type":"function","name":"labelRole","inputs":[{"name":"roleId","type":"uint256","internalType":"uint256"},{"name":"label","type":"string","internalType":"string"},{"name":"metadata","type":"string","internalType":"string"}],"outputs":[],"stateMutability":"nonpayable"},{"type":"function","name":"mandateCounter","inputs":[],"outputs":[{"name":"","type":"uint16","internalType":"uint16"}],"stateMutability":"view"},{"type":"function","name":"name","inputs":[],"outputs":[{"name":"","type":"string","internalType":"string"}],"stateMutability":"view"},{"type":"function","name":"onERC1155BatchReceived","inputs":[{"name":"","type":"address","internalType":"address"},{"name":"","type":"address","internalType":"address"},{"name":"","type":"uint256[]","internalType":"uint256[]"},{"name":"","type":"uint256[]","internalType":"uint256[]"},{"name":"","type":"bytes","internalType":"bytes"}],"outputs":[{"name":"","type":"bytes4","internalType":"bytes4"}],"stateMutability":"view"},{"type":"function","name":"onERC1155Received","inputs":[{"name":"","type":"address","internalType":"address"},{"name":"","type":"address","internalType":"address"},{"name":"","type":"uint256","internalType":"uint256"},{"name":"","type":"uint256","internalType":"uint256"},{"name":"","type":"bytes","internalType":"bytes"}],"outputs":[{"name":"","type":"bytes4","internalType":"bytes4"}],"stateMutability":"view"},{"type":"function","name":"onERC721Received","inputs":[{"name":"","type":"address","internalType":"address"},{"name":"","type":"address","internalType":"address"},{"name":"","type":"uint256","internalType":"uint256"},{"name":"","type":"bytes","internalType":"bytes"}],"outputs":[{"name":"","type":"bytes4","internalType":"bytes4"}],"stateMutability":"view"},{"type":"function","name":"paymaster","inputs":[],"outputs":[{"name":"","type":"address","internalType":"address"}],"stateMutability":"view"},{"type":"function","name":"propose","inputs":[{"name":"mandateId","type":"uint16","internalType":"uint16"},{"name":"mandateCalldata","type":"bytes","internalType":"bytes"},{"name":"nonce","type":"uint256","internalType":"uint256"},{"name":"uriAction","type":"string","internalType":"string"}],"outputs":[{"name":"actionId","type":"uint256","internalType":"uint256"}],"stateMutability":"nonpayable"},{"type":"function","name":"removeFlow","inputs":[{"name":"index","type":"uint8","internalType":"uint8"}],"outputs":[],"stateMutability":"nonpayable"},{"type":"function","name":"request","inputs":[{"name":"mandateId","type":"uint16","internalType":"uint16"},{"name":"mandateCalldata","type":"bytes","internalType":"bytes"},{"name":"nonce","type":"uint256","internalType":"uint256"},{"name":"uriAction","type":"string","internalType":"string"}],"outputs":[{"name":"actionId","type":"uint256","internalType":"uint256"}],"stateMutability":"nonpayable"},{"type":"function","name":"revokeMandate","inputs":[{"name":"mandateId","type":"uint16","internalType":"uint16"}],"outputs":[],"stateMutability":"nonpayable"},{"type":"function","name":"revokeRole","inputs":[{"name":"roleId","type":"uint256","internalType":"uint256"},{"name":"account","type":"address","internalType":"address"}],"outputs":[],"stateMutability":"nonpayable"},{"type":"function","name":"setPaymaster","inputs":[{"name":"newPaymaster","type":"address","internalType":"address"}],"outputs":[],"stateMutability":"nonpayable"},{"type":"function","name":"setTreasury","inputs":[{"name":"newTreasury","type":"address","internalType":"address payable"}],"outputs":[],"stateMutability":"nonpayable"},{"type":"function","name":"setUri","inputs":[{"name":"newUri","type":"string","internalType":"string"}],"outputs":[],"stateMutability":"nonpayable"},{"type":"function","name":"supportsInterface","inputs":[{"name":"interfaceId","type":"bytes4","internalType":"bytes4"}],"outputs":[{"name":"","type":"bool","internalType":"bool"}],"stateMutability":"view"},{"type":"function","name":"uri","inputs":[],"outputs":[{"name":"","type":"string","internalType":"string"}],"stateMutability":"view"},{"type":"function","name":"version","inputs":[],"outputs":[{"name":"","type":"string","internalType":"string"}],"stateMutability":"pure"},{"type":"event","name":"ActionFulfilled","inputs":[{"name":"mandateId","type":"uint16","indexed":true,"internalType":"uint16"},{"name":"actionId","type":"uint256","indexed":true,"internalType":"uint256"},{"name":"targets","type":"address[]","indexed":false,"internalType":"address[]"},{"name":"values","type":"uint256[]","indexed":false,"internalType":"uint256[]"},{"name":"calldatas","type":"bytes[]","indexed":false,"internalType":"bytes[]"}],"anonymous":false},{"type":"event","name":"ActionRequested","inputs":[{"name":"caller","type":"address","indexed":true,"internalType":"address"},{"name":"mandateId","type":"uint16","indexed":true,"internalType":"uint16"},{"name":"mandateCalldata","type":"bytes","indexed":false,"internalType":"bytes"},{"name":"nonce","type":"uint256","indexed":false,"internalType":"uint256"},{"name":"description","type":"string","indexed":false,"internalType":"string"}],"anonymous":false},{"type":"event","name":"BlacklistSet","inputs":[{"name":"account","type":"address","indexed":true,"internalType":"address"},{"name":"blacklisted","type":"bool","indexed":true,"internalType":"bool"}],"anonymous":false},{"type":"event","name":"EIP712DomainChanged","inputs":[],"anonymous":false},{"type":"event","name":"FlowAdapted","inputs":[{"name":"index1","type":"uint8","indexed":false,"internalType":"uint8"},{"name":"index2","type":"uint8","indexed":false,"internalType":"uint8"},{"name":"mandateId","type":"uint16","indexed":false,"internalType":"uint16"}],"anonymous":false},{"type":"event","name":"FlowAdded","inputs":[{"name":"mandateIds","type":"uint16[]","indexed":false,"internalType":"uint16[]"},{"name":"nameDescription","type":"string","indexed":false,"internalType":"string"}],"anonymous":false},{"type":"event","name":"FlowDeleted","inputs":[{"name":"index","type":"uint8","indexed":true,"internalType":"uint8"}],"anonymous":false},{"type":"event","name":"FundsReceived","inputs":[{"name":"sender","type":"address","indexed":false,"internalType":"address"},{"name":"value","type":"uint256","indexed":false,"internalType":"uint256"}],"anonymous":false},{"type":"event","name":"MandateAdopted","inputs":[{"name":"mandateId","type":"uint16","indexed":true,"internalType":"uint16"}],"anonymous":false},{"type":"event","name":"MandateRevoked","inputs":[{"name":"mandateId","type":"uint16","indexed":true,"internalType":"uint16"}],"anonymous":false},{"type":"event","name":"PaymasterSet","inputs":[{"name":"newPaymaster","type":"address","indexed":true,"internalType":"address"}],"anonymous":false},{"type":"event","name":"Powers__Initialized","inputs":[{"name":"contractAddress","type":"address","indexed":false,"internalType":"address"},{"name":"name","type":"string","indexed":false,"internalType":"string"},{"name":"uri","type":"string","indexed":false,"internalType":"string"}],"anonymous":false},{"type":"event","name":"ProposedActionCancelled","inputs":[{"name":"actionId","type":"uint256","indexed":true,"internalType":"uint256"}],"anonymous":false},{"type":"event","name":"ProposedActionCreated","inputs":[{"name":"actionId","type":"uint256","indexed":true,"internalType":"uint256"},{"name":"caller","type":"address","indexed":true,"internalType":"address"},{"name":"mandateId","type":"uint16","indexed":true,"internalType":"uint16"},{"name":"signature","type":"string","indexed":false,"internalType":"string"},{"name":"executeCalldata","type":"bytes","indexed":false,"internalType":"bytes"},{"name":"voteStart","type":"uint256","indexed":false,"internalType":"uint256"},{"name":"voteEnd","type":"uint256","indexed":false,"internalType":"uint256"},{"name":"nonce","type":"uint256","indexed":false,"internalType":"uint256"},{"name":"description","type":"string","indexed":false,"internalType":"string"}],"anonymous":false},{"type":"event","name":"RoleLabel","inputs":[{"name":"roleId","type":"uint256","indexed":true,"internalType":"uint256"},{"name":"label","type":"string","indexed":false,"internalType":"string"}],"anonymous":false},{"type":"event","name":"RoleSet","inputs":[{"name":"roleId","type":"uint256","indexed":true,"internalType":"uint256"},{"name":"account","type":"address","indexed":true,"internalType":"address"},{"name":"access","type":"bool","indexed":true,"internalType":"bool"}],"anonymous":false},{"type":"event","name":"VoteCast","inputs":[{"name":"account","type":"address","indexed":true,"internalType":"address"},{"name":"actionId","type":"uint256","indexed":true,"internalType":"uint256"},{"name":"support","type":"uint8","indexed":true,"internalType":"uint8"},{"name":"reason","type":"string","indexed":false,"internalType":"string"}],"anonymous":false},{"type":"error","name":"InvalidShortString","inputs":[]},{"type":"error","name":"Powers__ActionAlreadyFulfilled","inputs":[]},{"type":"error","name":"Powers__ActionAlreadyInitiated","inputs":[]},{"type":"error","name":"Powers__ActionCancelled","inputs":[]},{"type":"error","name":"Powers__ActionNotProposed","inputs":[]},{"type":"error","name":"Powers__ActionNotRequested","inputs":[]},{"type":"error","name":"Powers__AddressBlacklisted","inputs":[]},{"type":"error","name":"Powers__AlreadyCastVote","inputs":[]},{"type":"error","name":"Powers__CalldataTooLong","inputs":[]},{"type":"error","name":"Powers__CallerNotTargetMandate","inputs":[]},{"type":"error","name":"Powers__CannotAddPowersAddressAsMember","inputs":[]},{"type":"error","name":"Powers__CannotAddZeroAddress","inputs":[]},{"type":"error","name":"Powers__CannotCallMandate","inputs":[]},{"type":"error","name":"Powers__CannotSetPublicRole","inputs":[]},{"type":"error","name":"Powers__CannotSetZeroAddress","inputs":[]},{"type":"error","name":"Powers__ConstituteClosed","inputs":[]},{"type":"error","name":"Powers__ConstituteOpen","inputs":[]},{"type":"error","name":"Powers__ConstitutionAlreadyExecuted","inputs":[]},{"type":"error","name":"Powers__ExecutionArrayTooLong","inputs":[]},{"type":"error","name":"Powers__ExternalContractBlacklisted","inputs":[]},{"type":"error","name":"Powers__IncorrectInterface","inputs":[{"name":"targetMandate","type":"address","internalType":"address"}]},{"type":"error","name":"Powers__InvalidAddress","inputs":[]},{"type":"error","name":"Powers__InvalidCallData","inputs":[]},{"type":"error","name":"Powers__InvalidFlowIndex","inputs":[]},{"type":"error","name":"Powers__InvalidIndex","inputs":[]},{"type":"error","name":"Powers__InvalidLabel","inputs":[]},{"type":"error","name":"Powers__InvalidMandateId","inputs":[]},{"type":"error","name":"Powers__InvalidMandateIndex","inputs":[]},{"type":"error","name":"Powers__InvalidMaxCallDataLength","inputs":[]},{"type":"error","name":"Powers__InvalidMaxExecutionsLength","inputs":[]},{"type":"error","name":"Powers__InvalidName","inputs":[]},{"type":"error","name":"Powers__InvalidReturnCallDataLength","inputs":[]},{"type":"error","name":"Powers__InvalidVoteType","inputs":[]},{"type":"error","name":"Powers__LabelTooLong","inputs":[]},{"type":"error","name":"Powers__LockedRole","inputs":[]},{"type":"error","name":"Powers__MandateFulfillCallFailed","inputs":[]},{"type":"error","name":"Powers__MandateNotActive","inputs":[]},{"type":"error","name":"Powers__MandateRequestFailed","inputs":[]},{"type":"error","name":"Powers__NoMembersInRole","inputs":[]},{"type":"error","name":"Powers__NoVoteNeeded","inputs":[]},{"type":"error","name":"Powers__NotAContract","inputs":[]},{"type":"error","name":"Powers__NotProposerAction","inputs":[]},{"type":"error","name":"Powers__OnlyAdmin","inputs":[]},{"type":"error","name":"Powers__OnlyPowers","inputs":[]},{"type":"error","name":"Powers__PayableNotEnabled","inputs":[]},{"type":"error","name":"Powers__ProposedActionNotActive","inputs":[]},{"type":"error","name":"Powers__UnexpectedActionState","inputs":[]},{"type":"error","name":"Powers__UriTooLong","inputs":[]},{"type":"error","name":"Powers__VoteWithPublicRoleDisallowed","inputs":[]},{"type":"error","name":"StringTooLong","inputs":[{"name":"str","type":"string","internalType":"string"}]}],"bytecode":{"object":"0x6101e060408190526009805461ffff60a01b1916600160a01b17905561511038819003908190833981016040819052610037916103df565b8461005b60408051808201909152600681526576302e362e3160d01b602082015290565b610065825f61020f565b6101205261007481600161020f565b61014052815160208084019190912060e052815190820120610100524660a05261010060e05161010051604080517f8b73c3c69bb8fe3d512ecc4cf759cc79239f7b179b0ffacaa9a75d522b39400f60208201529081019290925260608201524660808201523060a08201525f9060c00160405160208183030381529060405280519060200120905090565b60805250503060c05284515f0361012a57604051634acb0e6d60e01b815260040160405180910390fd5b825f0361014a57604051631c58c0e160e01b815260040160405180910390fd5b815f0361016a5760405163a19bdd3b60e01b815260040160405180910390fd5b805f0361018a57604051638a2b742f60e01b815260040160405180910390fd5b6101965f336001610241565b60066101a286826104e1565b5060076101af85826104e1565b506101608390526101808290526101a0819052436101c0526040517f8e09415123fab1f9e22246686c8d24ad9f84c70288cd5fa338213bccd3c5fb76906101fd90309060069060079061061a565b60405180910390a150505050506106b1565b5f60208351101561022a57610223836102fc565b905061023b565b8161023584826104e1565b5060ff90505b92915050565b6040516393926d2560e01b8152600480820152602481018490526001600160a01b0383166044820152811515606482015273__$4fdb155c07e189d6709d928ad749b812b4$__906393926d25906084015f6040518083038186803b1580156102a7575f5ffd5b505af41580156102b9573d5f5f3e3d5ffd5b50505050801515826001600160a01b0316847f294507a8f5830b538faef39fbdd28f1164f27c8338a32fc7b47ddf82e4c8d9e460405160405180910390a4505050565b5f5f829050601f8151111561032f578260405163305a27a960e01b81526004016103269190610659565b60405180910390fd5b805161033a8261068e565b179392505050565b634e487b7160e01b5f52604160045260245ffd5b5f82601f830112610365575f5ffd5b81516001600160401b0381111561037e5761037e610342565b604051601f8201601f19908116603f011681016001600160401b03811182821017156103ac576103ac610342565b6040528181528382016020018510156103c3575f5ffd5b8160208501602083015e5f918101602001919091529392505050565b5f5f5f5f5f60a086880312156103f3575f5ffd5b85516001600160401b03811115610408575f5ffd5b61041488828901610356565b602088015190965090506001600160401b03811115610431575f5ffd5b61043d88828901610356565b60408801516060890151608090990151979a919950979695509350505050565b600181811c9082168061047157607f821691505b60208210810361048f57634e487b7160e01b5f52602260045260245ffd5b50919050565b601f8211156104dc57805f5260205f20601f840160051c810160208510156104ba5750805b601f840160051c820191505b818110156104d9575f81556001016104c6565b50505b505050565b81516001600160401b038111156104fa576104fa610342565b61050e81610508845461045d565b84610495565b6020601f821160018114610540575f83156105295750848201515b5f19600385901b1c1916600184901b1784556104d9565b5f84815260208120601f198516915b8281101561056f578785015182556020948501946001909201910161054f565b508482101561058c57868401515f19600387901b60f8161c191681555b50505050600190811b01905550565b5f81546105a78161045d565b8085526001821680156105c157600181146105dd57610611565b60ff1983166020870152602082151560051b8701019350610611565b845f5260205f205f5b838110156106085781546020828a0101526001820191506020810190506105e6565b87016020019450505b50505092915050565b6001600160a01b03841681526060602082018190525f9061063d9083018561059b565b828103604084015261064f818561059b565b9695505050505050565b602081525f82518060208401528060208501604085015e5f604082850101526040601f19601f83011684010191505092915050565b8051602080830151919081101561048f575f1960209190910360031b1b16919050565b60805160a05160c05160e05161010051610120516101405161016051610180516101a0516101c0516149d261073e5f395f61098001525f8181610e01015261116301525f8181610a8d01526113aa01525f8181610d3e015281816111d70152818161192501526128ad01525f6131fa01525f6131c901525f50505f50505f50505f50505f50506149d25ff3fe6080604052600436106103b6575f3560e01c806375b238fc116101e9578063b4324dd311610108578063edf2a5961161009d578063f2a0bb751161006d578063f2a0bb7514610dd1578063f6226e7c14610df0578063fc2d96d014610e23578063fe575a8714610e42575f5ffd5b8063edf2a59614610d2d578063edfd2e8714610d60578063f0f4426014610d93578063f23a6e6114610db2575f5ffd5b8063d902bf3a116100d8578063d902bf3a14610cba578063e88efe3514610cd9578063eac989f814610cfa578063ebef6d9714610d0e575f5ffd5b8063b4324dd314610c2f578063b449711514610c5d578063bc197c8114610c7c578063cc5812cf14610c9b575f5ffd5b80638a4359e01161017e5780639b642de11161014e5780639b642de114610bbe578063a375109814610bdd578063afe2658b14610bfc578063b367cac014610c10575f5ffd5b80638a4359e014610b40578063918f867414610b5f57806393d7dae514610b735780639a0435d414610b92575f5ffd5b80638180d29e116101b95780638180d29e14610aaf578063831af37914610ace57806384b0196e14610afa5780638973be0414610b21575f5ffd5b806375b238fc14610a2b57806376ff757714610a3e5780637b3c71d314610a5d5780637c1b553914610a7c575f5ffd5b80632e2d8253116102d55780634583476b1161026a578063567813881161023a57806356781388146109a2578063666ca2d6146109c1578063685b824a146109ed5780637258883f14610a0c575f5ffd5b80634583476b14610852578063519fcfb01461092257806354fd4d50146109415780635532f99b1461096f575f5ffd5b80633fc42d2e116102a55780633fc42d2e146107ad57806341bd157d146107cc57806343859632146107eb578063455a439614610833575f5ffd5b80632e2d82531461073e578063361262161461075d5780633b19e84a1461077c5780633ca7c02a14610799575f5ffd5b806312561b1a1161034b5780631d0b19e71161031b5780631d0b19e7146106825780632179e04e146106a15780632a97fa77146107005780632d90fe5f1461071f575f5ffd5b806312561b1a146105c7578063150b7a02146105f457806316e4cbf91461062c578063199093bb14610663575f5ffd5b806306fdde031161038657806306fdde03146104e65780630d7abeaa146104fa5780630de6a601146105105780631031bdb01461052f575f5ffd5b806301ffc9a7146104035780630398f05f14610437578063040b8c2414610463578063055dbe10146104b8575f5ffd5b366103ff577f8e47b87b0ef542cdfa1659c551d88bad38aa7f452d2bbb349ab7530dfec8be8f33604080516001600160a01b0390921682523460208301520160405180910390a1005b5f5ffd5b34801561040e575f5ffd5b5061042261041d366004613560565b610e79565b60405190151581526020015b60405180910390f35b348015610442575f5ffd5b5061045661045136600461358e565b610eca565b60405161042e91906135d3565b34801561046e575f5ffd5b506104a161047d3660046135f6565b61ffff165f90815260036020526040902054600160a01b900465ffffffffffff1690565b60405165ffffffffffff909116815260200161042e565b3480156104c3575f5ffd5b50600954600160a01b900461ffff165b60405161ffff909116815260200161042e565b3480156104f1575f5ffd5b50610456610f6c565b348015610505575f5ffd5b5061050e610ff8565b005b34801561051b575f5ffd5b5061050e61052a366004613656565b611048565b34801561053a575f5ffd5b506105a06105493660046135f6565b61ffff165f81815260036020908152604091829020548251308184015280840194909452825180850384018152606090940190925282519201919091206001600160a01b038216929091600160d01b900460ff1690565b604080516001600160a01b039094168452602084019290925215159082015260600161042e565b3480156105d2575f5ffd5b506105e66105e1366004613748565b6114cb565b60405190815260200161042e565b3480156105ff575f5ffd5b5061061361060e3660046137b1565b6116ac565b6040516001600160e01b0319909116815260200161042e565b348015610637575f5ffd5b5060095461064b906001600160a01b031681565b6040516001600160a01b03909116815260200161042e565b34801561066e575f5ffd5b5061064b61067d36600461381e565b6116e3565b34801561068d575f5ffd5b5061050e61069c36600461383e565b611745565b3480156106ac575f5ffd5b506106c06106bb36600461358e565b61175c565b6040805165ffffffffffff909716875263ffffffff95861660208801528601939093529083166060850152821660808401521660a082015260c00161042e565b34801561070b575f5ffd5b5061050e61071a36600461386c565b6117dd565b34801561072a575f5ffd5b5061045661073936600461358e565b611855565b348015610749575f5ffd5b506105e66107583660046139ae565b611874565b348015610768575f5ffd5b50610456610777366004613a3f565b611b6c565b348015610787575f5ffd5b506008546001600160a01b031661064b565b3480156107a4575f5ffd5b506105e65f1981565b3480156107b8575f5ffd5b5061050e6107c7366004613a58565b611bc4565b3480156107d7575f5ffd5b506104566107e636600461381e565b611d13565b3480156107f6575f5ffd5b5061042261080536600461383e565b5f8281526002602090815260408083206001600160a01b038516845260070190915290205460ff1692915050565b34801561083e575f5ffd5b5061050e61084d366004613aa5565b611dd0565b34801561085d575f5ffd5b506108cf61086c36600461358e565b5f9081526002602081905260409091206001810154815492820154600390920154600160301b9182900461ffff169465ffffffffffff80861695938404811694600160601b8504821694600160901b9004909116926001600160a01b0390911691565b6040805161ffff909816885265ffffffffffff96871660208901529486169487019490945291841660608601529290921660808401526001600160a01b0390911660a083015260c082015260e00161042e565b34801561092d575f5ffd5b5061050e61093c366004613a3f565b611e2b565b34801561094c575f5ffd5b5060408051808201909152600681526576302e362e3160d01b6020820152610456565b34801561097a575f5ffd5b506105e67f000000000000000000000000000000000000000000000000000000000000000081565b3480156109ad575f5ffd5b5061050e6109bc366004613ad1565b611ec6565b3480156109cc575f5ffd5b506109e06109db36600461358e565b611ee0565b60405161042e9190613afb565b3480156109f8575f5ffd5b5061050e610a0736600461383e565b612044565b348015610a17575f5ffd5b5061050e610a2636600461386c565b612091565b348015610a36575f5ffd5b506105e65f81565b348015610a49575f5ffd5b5061050e610a58366004613b21565b6120b7565b348015610a68575f5ffd5b5061050e610a77366004613b8c565b612199565b348015610a87575f5ffd5b506105e67f000000000000000000000000000000000000000000000000000000000000000081565b348015610aba575f5ffd5b50610456610ac936600461358e565b6121e0565b348015610ad9575f5ffd5b50610aed610ae83660046135f6565b612290565b60405161042e9190613c6f565b348015610b05575f5ffd5b50610b0e612384565b60405161042e9796959493929190613c7e565b348015610b2c575f5ffd5b5061050e610b3b366004613e07565b6123c6565b348015610b4b575f5ffd5b506105e6610b5a366004613ecb565b6123d8565b348015610b6a575f5ffd5b506105e6606481565b348015610b7e575f5ffd5b50610422610b8d366004613ef3565b612436565b348015610b9d575f5ffd5b50610bb1610bac366004613a3f565b612478565b60405161042e9190613f5b565b348015610bc9575f5ffd5b5061050e610bd8366004613f6d565b612538565b348015610be8575f5ffd5b5061050e610bf7366004613fa6565b61254c565b348015610c07575f5ffd5b50600a546105e6565b348015610c1b575f5ffd5b5061050e610c2a3660046135f6565b6125f8565b348015610c3a575f5ffd5b506105e6610c4936600461358e565b5f9081526004602052604090206001015490565b348015610c68575f5ffd5b506104d3610c7736600461412d565b61269f565b348015610c87575f5ffd5b50610613610c9636600461415e565b6126ed565b348015610ca6575f5ffd5b506104a1610cb536600461420a565b612727565b348015610cc5575f5ffd5b50610456610cd436600461358e565b61279f565b348015610ce4575f5ffd5b506009546104d390600160a01b900461ffff1681565b348015610d05575f5ffd5b506104566127be565b348015610d19575f5ffd5b506105e6610d283660046139ae565b6127cb565b348015610d38575f5ffd5b506105e67f000000000000000000000000000000000000000000000000000000000000000081565b348015610d6b575f5ffd5b506105e6610d7a3660046135f6565b61ffff165f908152600360208190526040909120015490565b348015610d9e575f5ffd5b5061050e610dad36600461386c565b612bdf565b348015610dbd575f5ffd5b50610613610dcc366004614226565b612c30565b348015610ddc575f5ffd5b50610456610deb36600461358e565b612c68565b348015610dfb575f5ffd5b506105e67f000000000000000000000000000000000000000000000000000000000000000081565b348015610e2e575f5ffd5b5061050e610e3d36600461429c565b612c87565b348015610e4d575f5ffd5b50610422610e5c36600461386c565b6001600160a01b03165f9081526005602052604090205460ff1690565b5f6001600160e01b03198216630a85bd0160e11b1480610ea957506001600160e01b03198216630271189760e51b145b80610ec457506301ffc9a760e01b6001600160e01b03198316145b92915050565b5f818152600460205260409020600201805460609190610ee99061434b565b80601f0160208091040260200160405190810160405280929190818152602001828054610f159061434b565b8015610f605780601f10610f3757610100808354040283529160200191610f60565b820191905f5260205f20905b815481529060010190602001808311610f4357829003601f168201915b50505050509050919050565b60068054610f799061434b565b80601f0160208091040260200160405190810160405280929190818152602001828054610fa59061434b565b8015610ff05780601f10610fc757610100808354040283529160200191610ff0565b820191905f5260205f20905b815481529060010190602001808311610fd357829003601f168201915b505050505081565b611000612d58565b61104633604080515f8082526020820190925290611040565b60408051808201909152606080825260208201528152602001906001900390816110195790505b50612d89565b565b61ffff88165f9081526003602052604090208054600160d01b900460ff1661108357604051632e53afcd60e01b815260040160405180910390fd5b80546001600160a01b031633146110ad57604051635574892960e11b815260040160405180910390fd5b5f8881526002602052604090208054600160301b900465ffffffffffff1615806110e657508054600160901b900465ffffffffffff1615155b15611104576040516301dd1d1560e71b815260040160405180910390fd5b8054600160601b900465ffffffffffff16156111335760405163a517239560e01b815260040160405180910390fd5b8685811415806111435750808414155b156111615760405163dbf15fa560e01b815260040160405180910390fd5b7f00000000000000000000000000000000000000000000000000000000000000008111156111a25760405163d0b6a17960e01b815260040160405180910390fd5b815471ffffffffffff0000000000000000000000001916600160601b4365ffffffffffff16021782555f5b81811015611441577f000000000000000000000000000000000000000000000000000000000000000086868381811061120857611208614383565b905060200281019061121a9190614397565b9050111561123b57604051631c3bc5e360e31b815260040160405180910390fd5b6112658a8a8381811061125057611250614383565b9050602002016020810190610e5c919061386c565b15611283576040516334d52f6b60e01b815260040160405180910390fd5b5f5f8b8b8481811061129757611297614383565b90506020020160208101906112ac919061386c565b6001600160a01b03168a8a858181106112c7576112c7614383565b905060200201358989868181106112e0576112e0614383565b90506020028101906112f29190614397565b6040516113009291906143d9565b5f6040518083038185875af1925050503d805f811461133a576040519150601f19603f3d011682016040523d82523d5f602084013e61133f565b606091505b5091509150816113a85784547fffff000000000000ffffffffffffffffffffffffffffffffffffffffffffffff16600160c01b4365ffffffffffff160217855580511561138f5780518082602001fd5b604051631d8fb90d60e21b815260040160405180910390fd5b7f00000000000000000000000000000000000000000000000000000000000000008151116113f6576005850180546001810182555f9182526020909120016113f08282614433565b50611437565b604080515f602082015260058701910160408051601f1981840301815291905281546001810183555f9283526020909220909101906114359082614433565b505b50506001016111cd565b50898b61ffff167f6f483abfdcf4f122955fd235993c09897d9190ed80964fe5cb76daac8a7a8b878b8b8b8b8b8b604051611481969594939291906145a9565b60405180910390a3505080547fffffffffffff000000000000ffffffffffffffffffffffffffffffffffffffff16600160a01b4365ffffffffffff16021790555050505050505050565b61ffff84165f9081526003602052604081208054600160d01b900460ff1661150657604051632e53afcd60e01b815260040160405180910390fd5b604051630b704dbd60e11b81525f9073__$b8401669eb6e3c34470049924d5a7c9ef9$__906316e09b7a90611545908a908a908a908a90600401614658565b602060405180830381865af4158015611560573d5f5f3e3d5ffd5b505050506040513d601f19601f820116820180604052508101906115849190614686565b5f81815260026020819052604090912090810154919250906001600160a01b0316336001600160a01b0316146115cd57604051637365858560e01b815260040160405180910390fd5b805465ffffffffffff165f036115f65760405163f661f4bf60e01b815260040160405180910390fd5b8054600160601b900465ffffffffffff1615158061162357508054600160901b900465ffffffffffff1615155b156116415760405163b831530960e01b815260040160405180910390fd5b80547fffffffffffffffff000000000000ffffffffffffffffffffffffffffffffffff16600160901b4365ffffffffffff160217815560405182907f8eb4cfeba12ece86fc1590773502e55423b37db556543430337376b30d27c42b905f90a2509695505050505050565b600b545f9060ff166116d157604051630889b5b960e31b815260040160405180910390fd5b50630a85bd0160e11b95945050505050565b5f828152600460205260408120600181015483106117145760405163472e61bd60e01b815260040160405180910390fd5b80600101838154811061172957611729614383565b5f918252602090912001546001600160a01b0316949350505050565b61174d612e41565b61175882825f612e61565b5050565b5f8181526002602052604081206001810154829182918291829182919065ffffffffffff811690600160401b900463ffffffff1661179a81836146b1565b60019390930154919a90995065ffffffffffff909216975063ffffffff600160601b820481169750600160801b820481169650600160a01b909104169350915050565b6117e5612e41565b6001600160a01b03811661180c57604051636e7e8feb60e11b815260040160405180910390fd5b600980546001600160a01b0319166001600160a01b0383169081179091556040517f8be32e66bcd4d1783b05affa4e89ba5fc5e37bea009c896d862c795acf9e842b905f90a250565b5f818152600460205260409020600301805460609190610ee99061434b565b600b545f9060ff1661189957604051630889b5b960e31b815260040160405180910390fd5b61ffff86165f9081526003602052604090208054600160d01b900460ff166118d457604051632e53afcd60e01b815260040160405180910390fd5b6118df335b88612436565b6118fc57604051637079d1b960e11b815260040160405180910390fd5b61190533610e5c565b15611923576040516334d52f6b60e01b815260040160405180910390fd5b7f000000000000000000000000000000000000000000000000000000000000000085111561196457604051631c3bc5e360e31b815260040160405180910390fd5b6002810154604051630b704dbd60e11b815263ffffffff821691600160801b900460ff169073__$b8401669eb6e3c34470049924d5a7c9ef9$__906316e09b7a906119b9908c908c908c908c90600401614658565b602060405180830381865af41580156119d4573d5f5f3e3d5ffd5b505050506040513d601f19601f820116820180604052508101906119f89190614686565b5f818152600260205260409020600181015491955090600160301b900461ffff1615611a375760405163fc0e49ff60e01b815260040160405180910390fd5b6003840180546001810182555f91825260209091200185905560048101611a5f898b836146cf565b50805465ffffffffffff19164365ffffffffffff1617815560018101805467ffff0000000000001916600160301b61ffff8d160217905560ff8216611aa4575f611aa6565b435b60018201805465ffffffffffff929092166bffffffff0000ffffffffffff1990921691909117600160401b63ffffffff861602179055600281018054336001600160a01b031990911617905560068101611b008782614433565b506003810187905561ffff8a1633867fb5856a9700a7e851456d3a16348b4ae0fbb11b06ac0af8dbe8e8652c57cc4cbd8c8c43611b4363ffffffff8b1682614788565b8e8e604051611b579695949392919061479b565b60405180910390a45050505095945050505050565b600a5460609060ff831610611b945760405163472e61bd60e01b815260040160405180910390fd5b600a8260ff1681548110611baa57611baa614383565b905f5260205f2090600202016001018054610ee99061434b565b611bcc612e41565b60095461ffff600160a01b90910481169082161115611bfe57604051633a8de3a560e11b815260040160405180910390fd5b600a5460ff841610611c235760405163e2190a4d60e01b815260040160405180910390fd5b5f600a8460ff1681548110611c3a57611c3a614383565b5f9182526020909120600290910201805490915060ff841610611c705760405163321decd960e21b815260040160405180910390fd5b81815f018460ff1681548110611c8857611c88614383565b905f5260205f2090601091828204019190066002026101000a81548161ffff021916908361ffff1602179055507fbab75fb33733fb786b1bd731a4e31deb8b360f52fdc6e437843f5803cd84141d848484604051611d059392919060ff938416815291909216602082015261ffff91909116604082015260600190565b60405180910390a150505050565b5f82815260026020526040902060050180546060919083908110611d3957611d39614383565b905f5260205f20018054611d4c9061434b565b80601f0160208091040260200160405190810160405280929190818152602001828054611d789061434b565b8015611dc35780601f10611d9a57610100808354040283529160200191611dc3565b820191905f5260205f20905b815481529060010190602001808311611da657829003601f168201915b5050505050905092915050565b611dd8612e41565b6001600160a01b0382165f81815260056020526040808220805460ff191685151590811790915590519092917f921341769c2075d1ae425396063d5ab65ff5006c4bc0bd0821e50ce51fb6012391a35050565b611e33612e41565b600a5460ff821610611e585760405163e2190a4d60e01b815260040160405180910390fd5b600a8160ff1681548110611e6e57611e6e614383565b5f9182526020822060029091020190611e87828261344d565b611e94600183015f61346f565b505060405160ff8216907fdb9bcd47830726db0b83034aa4bc1b92414a20b1790a2f63434fe60bd243d9e0905f90a250565b61175882338360405180602001604052805f815250612f1c565b5f818152600260205260408120805465ffffffffffff16158015611f1257508054600160301b900465ffffffffffff16155b8015611f2c57508054600160601b900465ffffffffffff16155b8015611f4657508054600160901b900465ffffffffffff16155b15611f5357505f92915050565b8054600160c01b900465ffffffffffff1615611f725750600892915050565b8054600160601b900465ffffffffffff1615611f915750600792915050565b8054600160901b900465ffffffffffff1615611fb05750600292915050565b8054600160301b900465ffffffffffff1615611fcf5750600692915050565b60018101545f90611ff59063ffffffff600160401b8204169065ffffffffffff166146b1565b65ffffffffffff169050438110612010575060039392505050565b612019846130a1565b158061202b575061202984613144565b155b1561203a575060049392505050565b5060059392505050565b61204c612e41565b6001600160a01b0381165f9081526005602052604090205460ff1615612085576040516334d52f6b60e01b815260040160405180910390fd5b61175882826001612e61565b612099612d58565b604080515f808252602082019092526120b491839190611040565b50565b6120bf612e41565b81515f036120e0576040516333a0807f60e21b815260040160405180910390fd5b60ff82511115612103576040516350cc0e8d60e01b815260040160405180910390fd5b60ff815111156121265760405163d315c6bd60e01b815260040160405180910390fd5b5f8381526004602052604090206002016121408382614433565b505f83815260046020526040902060030161215b8282614433565b50827f4c6d3d4a776b1458bbd518e75903a3f27a0c6f4597b10882784aa64769d56c718360405161218c91906135d3565b60405180910390a2505050565b6121da84338585858080601f0160208091040260200160405190810160405280939291908181526020018383808284375f92019190915250612f1c92505050565b50505050565b600a81815481106121ef575f80fd5b905f5260205f2090600202015f9150905080600101805461220f9061434b565b80601f016020809104026020016040519081016040528092919081815260200182805461223b9061434b565b80156122865780601f1061225d57610100808354040283529160200191612286565b820191905f5260205f20905b81548152906001019060200180831161226957829003601f168201915b5050505050905081565b60408051610100810182525f80825260208201819052918101829052606081018290526080810182905260a0810182905260c0810182905260e08101919091525061ffff9081165f908152600360209081526040918290208251610100810184526001820154815260029091015463ffffffff808216938301939093526401000000008104831693820193909352600160401b83049091166060820152600160601b8204831660808201526e010000000000000000000000000000820490921660a083015260ff600160801b8204811660c0840152710100000000000000000000000000000000009091041660e082015290565b5f6060805f5f5f60606123956131c2565b61239d6131f3565b604080515f80825260208201909252600f60f81b9b939a50919850469750309650945092509050565b6123ce612d58565b6117588282612d89565b61ffff82165f908152600360208190526040822090810154831061240f5760405163472e61bd60e01b815260040160405180910390fd5b80600301838154811061242457612424614383565b905f5260205f20015491505092915050565b61ffff81165f90815260036020526040812060010154816124578583612727565b905065ffffffffffff811615158061246f57505f1982145b95945050505050565b600a5460609060ff8316106124a05760405163472e61bd60e01b815260040160405180910390fd5b600a8260ff16815481106124b6576124b6614383565b5f9182526020918290206002909102018054604080518285028101850190915281815292830182828015610f6057602002820191905f5260205f20905f905b82829054906101000a900461ffff1661ffff16815260200190600201906020826001010492830192600103820291508084116124f5575094979650505050505050565b612540612e41565b60076117588282614433565b612554612e41565b600a80546001810182555f919091528151805183926002027fc65a7bb8d6351c1cf70c95a316cc6a92839c986682d98bc35f958f4883f9d2a8019161259e918391602001906134a6565b50602082015160018201906125b39082614433565b5050815160208301516040517fb56a1edd5f36655e5ec0dfaaee335db8dce67084b7e03de2f6771824f68d356593506125ed9291906147df565b60405180910390a150565b612600612e41565b61ffff81165f90815260036020526040812054600160d01b900460ff161515900361263e57604051632e53afcd60e01b815260040160405180910390fd5b61ffff81165f8181526003602052604080822080547fffffffffff00ffffffffffffffffffffffffffffffffffffffffffffffffffff169055517ffb1d94dcf467f70febf412166aaa551737afd946ba6a4b4eac970aaf28a7e74f9190a250565b5f6126a8612e41565b50600954600160a01b900461ffff166126c18183613220565b60098054600161ffff600160a01b808404821692909201160261ffff60a01b199091161790555b919050565b600b545f9060ff1661271257604051630889b5b960e31b815260040160405180910390fd5b5063bc197c8160e01b98975050505050505050565b5f8181526004602090815260408083206001600160a01b03861684529182905282205480830361275b575f92505050610ec4565b8160010160018261276c9190614803565b8154811061277c5761277c614383565b5f91825260209091200154600160a01b900465ffffffffffff1695945050505050565b5f818152600260205260409020600401805460609190610ee99061434b565b60078054610f799061434b565b600b545f9060ff166127f057604051630889b5b960e31b815260040160405180910390fd5b604051630b704dbd60e11b815273__$b8401669eb6e3c34470049924d5a7c9ef9$__906316e09b7a9061282d908990899089908990600401614658565b602060405180830381865af4158015612848573d5f5f3e3d5ffd5b505050506040513d601f19601f8201168201806040525081019061286c9190614686565b61ffff87165f908152600360205260409020805491925090600160d01b900460ff166128ab57604051632e53afcd60e01b815260040160405180910390fd5b7f00000000000000000000000000000000000000000000000000000000000000008511156128ec57604051631c3bc5e360e31b815260040160405180910390fd5b6128f533610e5c565b15612913576040516334d52f6b60e01b815260040160405180910390fd5b61291c336118d9565b61293957604051637079d1b960e11b815260040160405180910390fd5b5f8281526002602052604090208054600160301b900465ffffffffffff1615158061297357508054600160601b900465ffffffffffff1615155b156129915760405163fc0e49ff60e01b815260040160405180910390fd5b8054600160901b900465ffffffffffff16156129c057604051632ec3fe1560e11b815260040160405180910390fd5b8154604051633881b32960e01b815273__$b8401669eb6e3c34470049924d5a7c9ef9$__91633881b32991612a12918c918c918c9130918d91600160a01b90910465ffffffffffff1690600401614816565b5f6040518083038186803b158015612a28575f5ffd5b505af4158015612a3a573d5f5f3e3d5ffd5b505050506001810154600160301b900461ffff165f03612a6e576003820180546001810182555f9182526020909120018390555b600281018054336001600160a01b031990911617905580546bffffffffffff0000000000001916600160301b4365ffffffffffff16810291909117825560018201805467ffff000000000000191661ffff8b1690920291909117905560048101612ad98789836146cf565b5060068101612ae88582614433565b506003810185905581546040516326a8b78760e11b81525f916001600160a01b031690634d516f0e90612b279033908d908d908d908d90600401614862565b6020604051808303815f875af1158015612b43573d5f5f3e3d5ffd5b505050506040513d601f19601f82011682018060405250810190612b6791906148a0565b905080612b875760405163382654b960e21b815260040160405180910390fd5b61ffff8916336001600160a01b03167f98e1e52af9c2155b4c2b4844cdccf64c85cb13dd804231d177ef6fea4325d4058a8a8a8a604051612bcb94939291906148bb565b60405180910390a350505095945050505050565b612be7612e41565b6001600160a01b038116612c0e57604051636e7e8feb60e11b815260040160405180910390fd5b600880546001600160a01b0319166001600160a01b0392909216919091179055565b600b545f9060ff16612c5557604051630889b5b960e31b815260040160405180910390fd5b5063f23a6e6160e01b9695505050505050565b5f818152600260205260409020600601805460609190610ee99061434b565b612c8f612d58565b600b5460ff1615612cb3576040516315ea064b60e31b815260040160405180910390fd5b600954600160a01b900461ffff165f5b8251811015612d34575f6001600160a01b0316838281518110612ce857612ce8614383565b6020026020010151602001516001600160a01b031614612d2c57612d2582848381518110612d1857612d18614383565b6020026020010151613220565b8160010191505b600101612cc3565b506009805461ffff909216600160a01b0261ffff60a01b1990921691909117905550565b612d62335f612727565b65ffffffffffff165f0361104657604051630eaa87a560e21b815260040160405180910390fd5b336001600160a01b03831614612db057612da45f335f612e61565b612db05f836001612e61565b805115612e30575f5b8151811015612e2e57600a828281518110612dd657612dd6614383565b60209081029190910181015182546001810184555f9384529282902081518051929460020290910192612e0e928492909101906134a6565b5060208201516001820190612e239082614433565b505050600101612db9565b505b5050600b805460ff19166001179055565b3330146110465760405163e890ccbf60e01b815260040160405180910390fd5b6040516393926d2560e01b8152600480820152602481018490526001600160a01b0383166044820152811515606482015273__$4fdb155c07e189d6709d928ad749b812b4$__906393926d25906084015f6040518083038186803b158015612ec7575f5ffd5b505af4158015612ed9573d5f5f3e3d5ffd5b50505050801515826001600160a01b0316847f294507a8f5830b538faef39fbdd28f1164f27c8338a32fc7b47ddf82e4c8d9e460405160405180910390a4505050565b5f848152600260205260409020805465ffffffffffff161580612f4e57508054600160601b900465ffffffffffff1615155b80612f6857508054600160901b900465ffffffffffff1615155b80612f8257508054600160301b900465ffffffffffff1615155b80612fb8575060018101544390612fae9063ffffffff600160401b8204169065ffffffffffff166146b1565b65ffffffffffff16105b15612fd6576040516322024acd60e21b815260040160405180910390fd5b6001810154600160301b900461ffff16612ff08582612436565b61300d57604051637079d1b960e11b815260040160405180910390fd5b6001600160a01b0385165f90815260078301602052604090205460ff16156130485760405163c9e3c8d960e01b815260040160405180910390fd5b6130538686866132bd565b8360ff1686866001600160a01b03167f5be2678cab71c7d94235767eb1df3c57673f19e805cdc0edbd2e74854ae9f0f98660405161309191906135d3565b60405180910390a4505050505050565b5f818152600260205260408120600181015482906130c990600160301b900461ffff16612290565b80515f9081526004602052604090206001015460c08201519192509060ff16158061246f575060018301546064906131179063ffffffff600160a01b8204811691600160801b9004166148f1565b63ffffffff16613127919061490d565b60c08301516131399060ff168361490d565b111595945050505050565b5f8181526002602052604081206001810154829061316c90600160301b900461ffff16612290565b80515f9081526004602052604090206001015460c08201519192509060ff16158061246f575060018301546131b090606490600160801b900463ffffffff1661490d565b60e08301516131399060ff168361490d565b60606131ee7f00000000000000000000000000000000000000000000000000000000000000005f613340565b905090565b60606131ee7f00000000000000000000000000000000000000000000000000000000000000006001613340565b6040516336428ec760e11b815273__$4fdb155c07e189d6709d928ad749b812b4$__90636c851d8e9061325f9060039060059087908790600401614924565b5f6040518083038186803b158015613275575f5ffd5b505af4158015613287573d5f5f3e3d5ffd5b505060405161ffff851692507f284812f41d73696d76ff026c35ebc1a8e8bf24544551c55dd0877334dca88a5691505f90a25050565b604051630499d27d60e11b815260026004820152602481018490526001600160a01b038316604482015260ff8216606482015273__$4fdb155c07e189d6709d928ad749b812b4$__90630933a4fa906084015f6040518083038186803b158015613325575f5ffd5b505af4158015613337573d5f5f3e3d5ffd5b50505050505050565b606060ff831461335a57613353836133e9565b9050610ec4565b8180546133669061434b565b80601f01602080910402602001604051908101604052809291908181526020018280546133929061434b565b80156133dd5780601f106133b4576101008083540402835291602001916133dd565b820191905f5260205f20905b8154815290600101906020018083116133c057829003601f168201915b50505050509050610ec4565b60605f6133f583613426565b6040805160208082528183019092529192505f91906020820181803683375050509182525060208101929092525090565b5f60ff8216601f811115610ec457604051632cd44ac360e21b815260040160405180910390fd5b5080545f8255600f0160109004905f5260205f20908101906120b4919061354c565b50805461347b9061434b565b5f825580601f1061348a575050565b601f0160209004905f5260205f20908101906120b4919061354c565b828054828255905f5260205f2090600f0160109004810192821561353c579160200282015f5b8382111561350c57835183826101000a81548161ffff021916908361ffff16021790555092602001926002016020816001010492830192600103026134cc565b801561353a5782816101000a81549061ffff021916905560020160208160010104928301926001030261350c565b505b5061354892915061354c565b5090565b5b80821115613548575f815560010161354d565b5f60208284031215613570575f5ffd5b81356001600160e01b031981168114613587575f5ffd5b9392505050565b5f6020828403121561359e575f5ffd5b5035919050565b5f81518084528060208401602086015e5f602082860101526020601f19601f83011685010191505092915050565b602081525f61358760208301846135a5565b803561ffff811681146126e8575f5ffd5b5f60208284031215613606575f5ffd5b613587826135e5565b5f5f83601f84011261361f575f5ffd5b5081356001600160401b03811115613635575f5ffd5b6020830191508360208260051b850101111561364f575f5ffd5b9250929050565b5f5f5f5f5f5f5f5f60a0898b03121561366d575f5ffd5b613676896135e5565b97506020890135965060408901356001600160401b03811115613697575f5ffd5b6136a38b828c0161360f565b90975095505060608901356001600160401b038111156136c1575f5ffd5b6136cd8b828c0161360f565b90955093505060808901356001600160401b038111156136eb575f5ffd5b6136f78b828c0161360f565b999c989b5096995094979396929594505050565b5f5f83601f84011261371b575f5ffd5b5081356001600160401b03811115613731575f5ffd5b60208301915083602082850101111561364f575f5ffd5b5f5f5f5f6060858703121561375b575f5ffd5b613764856135e5565b935060208501356001600160401b0381111561377e575f5ffd5b61378a8782880161370b565b9598909750949560400135949350505050565b6001600160a01b03811681146120b4575f5ffd5b5f5f5f5f5f608086880312156137c5575f5ffd5b85356137d08161379d565b945060208601356137e08161379d565b93506040860135925060608601356001600160401b03811115613801575f5ffd5b61380d8882890161370b565b969995985093965092949392505050565b5f5f6040838503121561382f575f5ffd5b50508035926020909101359150565b5f5f6040838503121561384f575f5ffd5b8235915060208301356138618161379d565b809150509250929050565b5f6020828403121561387c575f5ffd5b81356135878161379d565b634e487b7160e01b5f52604160045260245ffd5b604080519081016001600160401b03811182821017156138bd576138bd613887565b60405290565b60405161010081016001600160401b03811182821017156138bd576138bd613887565b604051608081016001600160401b03811182821017156138bd576138bd613887565b604051601f8201601f191681016001600160401b038111828210171561393057613930613887565b604052919050565b5f5f6001600160401b0384111561395157613951613887565b50601f8301601f191660200161396681613908565b91505082815283838301111561397a575f5ffd5b828260208301375f602084830101529392505050565b5f82601f83011261399f575f5ffd5b61358783833560208501613938565b5f5f5f5f5f608086880312156139c2575f5ffd5b6139cb866135e5565b945060208601356001600160401b038111156139e5575f5ffd5b6139f18882890161370b565b9095509350506040860135915060608601356001600160401b03811115613a16575f5ffd5b613a2288828901613990565b9150509295509295909350565b803560ff811681146126e8575f5ffd5b5f60208284031215613a4f575f5ffd5b61358782613a2f565b5f5f5f60608486031215613a6a575f5ffd5b613a7384613a2f565b9250613a8160208501613a2f565b9150613a8f604085016135e5565b90509250925092565b80151581146120b4575f5ffd5b5f5f60408385031215613ab6575f5ffd5b8235613ac18161379d565b9150602083013561386181613a98565b5f5f60408385031215613ae2575f5ffd5b82359150613af260208401613a2f565b90509250929050565b6020810160098310613b1b57634e487b7160e01b5f52602160045260245ffd5b91905290565b5f5f5f60608486031215613b33575f5ffd5b8335925060208401356001600160401b03811115613b4f575f5ffd5b613b5b86828701613990565b92505060408401356001600160401b03811115613b76575f5ffd5b613b8286828701613990565b9150509250925092565b5f5f5f5f60608587031215613b9f575f5ffd5b84359350613baf60208601613a2f565b925060408501356001600160401b03811115613bc9575f5ffd5b613bd58782880161370b565b95989497509550505050565b8051825263ffffffff602082015116602083015263ffffffff604082015116604083015263ffffffff60608201511660608301526080810151613c2a608084018261ffff169052565b5060a0810151613c4060a084018261ffff169052565b5060c0810151613c5560c084018260ff169052565b5060e0810151613c6a60e084018260ff169052565b505050565b6101008101610ec48284613be1565b60ff60f81b8816815260e060208201525f613c9c60e08301896135a5565b8281036040840152613cae81896135a5565b606084018890526001600160a01b038716608085015260a0840186905283810360c0850152845180825260208087019350909101905f5b81811015613d03578351835260209384019390920191600101613ce5565b50909b9a5050505050505050505050565b5f6001600160401b03821115613d2c57613d2c613887565b5060051b60200190565b5f60408284031215613d46575f5ffd5b613d4e61389b565b905081356001600160401b03811115613d65575f5ffd5b8201601f81018413613d75575f5ffd5b8035613d88613d8382613d14565b613908565b8082825260208201915060208360051b850101925086831115613da9575f5ffd5b6020840193505b82841015613dd257613dc1846135e5565b825260209384019390910190613db0565b845250505060208201356001600160401b03811115613def575f5ffd5b613dfb84828501613990565b60208301525092915050565b5f5f60408385031215613e18575f5ffd5b8235613e238161379d565b915060208301356001600160401b03811115613e3d575f5ffd5b8301601f81018513613e4d575f5ffd5b8035613e5b613d8382613d14565b8082825260208201915060208360051b850101925087831115613e7c575f5ffd5b602084015b83811015613ebc5780356001600160401b03811115613e9e575f5ffd5b613ead8a602083890101613d36565b84525060209283019201613e81565b50809450505050509250929050565b5f5f60408385031215613edc575f5ffd5b613ee5836135e5565b946020939093013593505050565b5f5f60408385031215613f04575f5ffd5b8235613f0f8161379d565b9150613af2602084016135e5565b5f8151808452602084019350602083015f5b82811015613f5157815161ffff16865260209586019590910190600101613f2f565b5093949350505050565b602081525f6135876020830184613f1d565b5f60208284031215613f7d575f5ffd5b81356001600160401b03811115613f92575f5ffd5b613f9e84828501613990565b949350505050565b5f60208284031215613fb6575f5ffd5b81356001600160401b03811115613fcb575f5ffd5b613f9e84828501613d36565b803563ffffffff811681146126e8575f5ffd5b5f6101008284031215613ffb575f5ffd5b6140036138c3565b82358152905061401560208301613fd7565b602082015261402660408301613fd7565b604082015261403760608301613fd7565b6060820152614048608083016135e5565b608082015261405960a083016135e5565b60a082015261406a60c08301613a2f565b60c082015261407b60e08301613a2f565b60e082015292915050565b5f6101608284031215614097575f5ffd5b61409f6138e6565b905081356001600160401b038111156140b6575f5ffd5b6140c284828501613990565b82525060208201356140d38161379d565b602082015260408201356001600160401b038111156140f0575f5ffd5b8201601f81018413614100575f5ffd5b61410f84823560208401613938565b6040830152506141228360608401613fea565b606082015292915050565b5f6020828403121561413d575f5ffd5b81356001600160401b03811115614152575f5ffd5b613f9e84828501614086565b5f5f5f5f5f5f5f5f60a0898b031215614175575f5ffd5b88356141808161379d565b975060208901356141908161379d565b965060408901356001600160401b038111156141aa575f5ffd5b6141b68b828c0161360f565b90975095505060608901356001600160401b038111156141d4575f5ffd5b6141e08b828c0161360f565b90955093505060808901356001600160401b038111156141fe575f5ffd5b6136f78b828c0161370b565b5f5f6040838503121561421b575f5ffd5b8235613ee58161379d565b5f5f5f5f5f5f60a0878903121561423b575f5ffd5b86356142468161379d565b955060208701356142568161379d565b9450604087013593506060870135925060808701356001600160401b0381111561427e575f5ffd5b61428a89828a0161370b565b979a9699509497509295939492505050565b5f602082840312156142ac575f5ffd5b81356001600160401b038111156142c1575f5ffd5b8201601f810184136142d1575f5ffd5b80356142df613d8382613d14565b8082825260208201915060208360051b850101925086831115614300575f5ffd5b602084015b838110156143405780356001600160401b03811115614322575f5ffd5b61433189602083890101614086565b84525060209283019201614305565b509695505050505050565b600181811c9082168061435f57607f821691505b60208210810361437d57634e487b7160e01b5f52602260045260245ffd5b50919050565b634e487b7160e01b5f52603260045260245ffd5b5f5f8335601e198436030181126143ac575f5ffd5b8301803591506001600160401b038211156143c5575f5ffd5b60200191503681900382131561364f575f5ffd5b818382375f9101908152919050565b601f821115613c6a57805f5260205f20601f840160051c8101602085101561440d5750805b601f840160051c820191505b8181101561442c575f8155600101614419565b5050505050565b81516001600160401b0381111561444c5761444c613887565b6144608161445a845461434b565b846143e8565b6020601f821160018114614492575f831561447b5750848201515b5f19600385901b1c1916600184901b17845561442c565b5f84815260208120601f198516915b828110156144c157878501518255602094850194600190920191016144a1565b50848210156144de57868401515f19600387901b60f8161c191681555b50505050600190811b01905550565b81835281816020850137505f828201602090810191909152601f909101601f19169091010190565b5f8383855260208501945060208460051b820101835f5b8681101561459d57838303601f19018852813536879003601e19018112614551575f5ffd5b86016020810190356001600160401b0381111561456c575f5ffd5b80360382131561457a575f5ffd5b6145858582846144ed565b60209a8b019a9095509390930192505060010161452c565b50909695505050505050565b606080825281018690525f8760808301825b898110156145eb5782356145ce8161379d565b6001600160a01b03168252602092830192909101906001016145bb565b5083810360208501528681527f07ffffffffffffffffffffffffffffffffffffffffffffffffffffffffffffff871115614623575f5ffd5b8660051b915081886020830137018281036020908101604085015261464b9082018587614515565b9998505050505050505050565b61ffff85168152606060208201525f6146756060830185876144ed565b905082604083015295945050505050565b5f60208284031215614696575f5ffd5b5051919050565b634e487b7160e01b5f52601160045260245ffd5b65ffffffffffff8181168382160190811115610ec457610ec461469d565b6001600160401b038311156146e6576146e6613887565b6146fa836146f4835461434b565b836143e8565b5f601f84116001811461472b575f85156147145750838201355b5f19600387901b1c1916600186901b17835561442c565b5f83815260208120601f198716915b8281101561475a578685013582556020948501946001909201910161473a565b5086821015614776575f1960f88860031b161c19848701351681555b505060018560011b0183555050505050565b80820180821115610ec457610ec461469d565b60c081525f60c082015260e060208201525f6147bb60e08301888a6144ed565b86604084015285606084015284608084015282810360a084015261464b81856135a5565b604081525f6147f16040830185613f1d565b828103602084015261246f81856135a5565b81810381811115610ec457610ec461469d565b61ffff8716815260a060208201525f61483360a0830187896144ed565b6001600160a01b0395909516604083015250606081019290925265ffffffffffff166080909101529392505050565b6001600160a01b038616815261ffff85166020820152608060408201525f61488e6080830185876144ed565b90508260608301529695505050505050565b5f602082840312156148b0575f5ffd5b815161358781613a98565b606081525f6148ce6060830186886144ed565b84602084015282810360408401526148e681856135a5565b979650505050505050565b63ffffffff8181168382160190811115610ec457610ec461469d565b8082028115828204841417610ec457610ec461469d565b84815283602082015261ffff83166040820152608060608201525f825161016060808401526149576101e08401826135a5565b90506001600160a01b0360208501511660a08401526040840151607f198483030160c085015261498782826135a5565b915050606084015161434060e0850182613be156fea2646970667358221220b63d0222d6fdbf943ec0a63f6c2056c3ddba985c1057433477d77d5f2dbdc38f64736f6c634300081e0033","linkReferences":{"src/libraries/Checks.sol":{"Checks":[{"start":7253,"length":20},{"start":8393,"length":20},{"start":12093,"length":20},{"start":12559,"length":20}]},"src/libraries/PowersUtilities.sol":{"PowersUtilities":[{"start":628,"length":20},{"start":13778,"length":20},{"start":14701,"length":20},{"start":14896,"length":20}]}}},"methodIdentifiers":{"ADMIN_ROLE()":"75b238fc","DENOMINATOR()":"918f8674","FOUNDED_AT()":"5532f99b","MAX_CALLDATA_LENGTH()":"edf2a596","MAX_EXECUTIONS_LENGTH()":"f6226e7c","MAX_RETURN_DATA_LENGTH()":"7c1b5539","PUBLIC_ROLE()":"3ca7c02a","addFlow((uint16[],string))":"a3751098","adoptMandate((string,address,bytes,(uint256,uint32,uint32,uint32,uint16,uint16,uint8,uint8)))":"b4497115","assignRole(uint256,address)":"685b824a","blacklistAddress(address,bool)":"455a4396","canCallMandate(address,uint16)":"93d7dae5","cancel(uint16,bytes,uint256)":"12561b1a","castVote(uint256,uint8)":"56781388","castVoteWithReason(uint256,uint8,string)":"7b3c71d3","closeConstitute()":"0d7abeaa","closeConstitute(address)":"7258883f","closeConstitute(address,(uint16[],string)[])":"8973be04","constitute((string,address,bytes,(uint256,uint32,uint32,uint32,uint16,uint16,uint8,uint8))[])":"fc2d96d0","editFlowByIndex(uint8,uint8,uint16)":"3fc42d2e","eip712Domain()":"84b0196e","flows(uint256)":"8180d29e","fulfill(uint16,uint256,address[],uint256[],bytes[])":"0de6a601","getActionCalldata(uint256)":"d902bf3a","getActionData(uint256)":"4583476b","getActionReturnData(uint256,uint256)":"41bd157d","getActionState(uint256)":"666ca2d6","getActionUri(uint256)":"f2a0bb75","getActionVoteData(uint256)":"2179e04e","getAdoptedMandate(uint16)":"1031bdb0","getAmountRoleHolders(uint256)":"b4324dd3","getConditions(uint16)":"831af379","getFlowCount()":"afe2658b","getFlowDescriptionAtIndex(uint8)":"36126216","getFlowMandatesAtIndex(uint8)":"9a0435d4","getLatestFulfillment(uint16)":"040b8c24","getMandateActionAtIndex(uint16,uint256)":"8a4359e0","getMandateCounter()":"055dbe10","getQuantityMandateActions(uint16)":"edfd2e87","getRoleHolderAtIndex(uint256,uint256)":"199093bb","getRoleLabel(uint256)":"0398f05f","getRoleMetadata(uint256)":"2d90fe5f","getTreasury()":"3b19e84a","hasRoleSince(address,uint256)":"cc5812cf","hasVoted(uint256,address)":"43859632","isBlacklisted(address)":"fe575a87","labelRole(uint256,string,string)":"76ff7577","mandateCounter()":"e88efe35","name()":"06fdde03","onERC1155BatchReceived(address,address,uint256[],uint256[],bytes)":"bc197c81","onERC1155Received(address,address,uint256,uint256,bytes)":"f23a6e61","onERC721Received(address,address,uint256,bytes)":"150b7a02","paymaster()":"16e4cbf9","propose(uint16,bytes,uint256,string)":"2e2d8253","removeFlow(uint8)":"519fcfb0","request(uint16,bytes,uint256,string)":"ebef6d97","revokeMandate(uint16)":"b367cac0","revokeRole(uint256,address)":"1d0b19e7","setPaymaster(address)":"2a97fa77","setTreasury(address)":"f0f44260","setUri(string)":"9b642de1","supportsInterface(bytes4)":"01ffc9a7","uri()":"eac989f8","version()":"54fd4d50"},"id":99}