{"abi":[{"type":"constructor","inputs":[],"stateMutability":"nonpayable"},{"type":"function","name":"executeMandate","inputs":[{"name":"caller","type":"address","internalType":"address"},{"name":"mandateId","type":"uint16","internalType":"uint16"},{"name":"mandateCalldata","type":"bytes","internalType":"bytes"},{"name":"nonce","type":"uint256","internalType":"uint256"}],"outputs":[{"name":"success","type":"bool","internalType":"bool"}],"stateMutability":"nonpayable"},{"type":"function","name":"getConfig","inputs":[{"name":"powers","type":"address","internalType":"address"},{"name":"mandateId","type":"uint16","internalType":"uint16"}],"outputs":[{"name":"config","type":"bytes","internalType":"bytes"}],"stateMutability":"view"},{"type":"function","name":"getData","inputs":[{"name":"mandateHash","type":"bytes32","internalType":"bytes32"}],"outputs":[{"name":"","type":"tuple","internalType":"struct TreasuryRoleWithTransfer.Data","components":[{"name":"treasuryContract","type":"address","internalType":"address"},{"name":"roleIdToSet","type":"uint16","internalType":"uint16"}]}],"stateMutability":"view"},{"type":"function","name":"getInputParams","inputs":[{"name":"powers","type":"address","internalType":"address"},{"name":"mandateId","type":"uint16","internalType":"uint16"}],"outputs":[{"name":"inputParams","type":"bytes","internalType":"bytes"}],"stateMutability":"view"},{"type":"function","name":"getNameDescription","inputs":[{"name":"powers","type":"address","internalType":"address"},{"name":"mandateId","type":"uint16","internalType":"uint16"}],"outputs":[{"name":"nameDescription","type":"string","internalType":"string"}],"stateMutability":"view"},{"type":"function","name":"getTokenConfig","inputs":[{"name":"mandateHash","type":"bytes32","internalType":"bytes32"},{"name":"token","type":"address","internalType":"address"}],"outputs":[{"name":"","type":"tuple","internalType":"struct TreasuryRoleWithTransfer.TokenConfig","components":[{"name":"tokensPerBlock","type":"uint256","internalType":"uint256"}]}],"stateMutability":"view"},{"type":"function","name":"handleRequest","inputs":[{"name":"caller","type":"address","internalType":"address"},{"name":"powers","type":"address","internalType":"address"},{"name":"mandateId","type":"uint16","internalType":"uint16"},{"name":"mandateCalldata","type":"bytes","internalType":"bytes"},{"name":"nonce","type":"uint256","internalType":"uint256"}],"outputs":[{"name":"actionId","type":"uint256","internalType":"uint256"},{"name":"targets","type":"address[]","internalType":"address[]"},{"name":"values","type":"uint256[]","internalType":"uint256[]"},{"name":"calldatas","type":"bytes[]","internalType":"bytes[]"}],"stateMutability":"view"},{"type":"function","name":"initializeMandate","inputs":[{"name":"index","type":"uint16","internalType":"uint16"},{"name":"nameDescription","type":"string","internalType":"string"},{"name":"inputParams","type":"bytes","internalType":"bytes"},{"name":"config","type":"bytes","internalType":"bytes"}],"outputs":[],"stateMutability":"nonpayable"},{"type":"function","name":"mandates","inputs":[{"name":"mandateHash","type":"bytes32","internalType":"bytes32"}],"outputs":[{"name":"nameDescription","type":"string","internalType":"string"},{"name":"inputParams","type":"bytes","internalType":"bytes"},{"name":"config","type":"bytes","internalType":"bytes"},{"name":"powers","type":"address","internalType":"address"}],"stateMutability":"view"},{"type":"function","name":"supportsInterface","inputs":[{"name":"interfaceId","type":"bytes4","internalType":"bytes4"}],"outputs":[{"name":"","type":"bool","internalType":"bool"}],"stateMutability":"view"},{"type":"event","name":"Mandate__Deployed","inputs":[{"name":"configParams","type":"bytes","indexed":false,"internalType":"bytes"}],"anonymous":false},{"type":"event","name":"Mandate__Initialized","inputs":[{"name":"powers","type":"address","indexed":true,"internalType":"address"},{"name":"index","type":"uint16","indexed":true,"internalType":"uint16"},{"name":"nameDescription","type":"string","indexed":false,"internalType":"string"},{"name":"inputParams","type":"bytes","indexed":false,"internalType":"bytes"},{"name":"config","type":"bytes","indexed":false,"internalType":"bytes"}],"anonymous":false}],"bytecode":{"object":"0x608060405234801561000f575f80fd5b505f6040516020016100de9060808152601860808201527f61646472657373205472656173757279436f6e7472616374000000000000000060a082015260c06020820152601060c08201526f616464726573735b5d20546f6b656e7360801b60e0820152610100604082015260186101008201527f75696e743235365b5d20546f6b656e73506572426c6f636b00000000000000006101208201526101406060820152600d6101408201526c1d5a5b9d0c4d88149bdb195259609a1b6101608201525f61018082019050919050565b60405160208183030381529060405290507f71bb7b033e40374cfbc64859f679a737bcbfca31158d6a4783c01ee8d445cc5e8160405161011e919061012c565b60405180910390a150610161565b602081525f82518060208401528060208501604085015e5f604082850101526040601f19601f83011684010191505092915050565b611df08061016e5f395ff3fe608060405234801561000f575f80fd5b50600436106100b9575f3560e01c806354f6127f11610072578063b1f50f8911610058578063b1f50f891461023e578063c0d27aad14610253578063d8a941f414610266575f80fd5b806354f6127f14610199578063552cb3721461021b575f80fd5b80630d157721116100a25780630d1577211461010c57806319028aa31461012c5780634d516f0e14610186575f80fd5b806301e07972146100bd57806301ffc9a7146100e9575b5f80fd5b6100d06100cb3660046112fe565b610279565b6040516100e09493929190611343565b60405180910390f35b6100fc6100f7366004611396565b61043b565b60405190151581526020016100e0565b61011f61011a3660046113ea565b610471565b6040516100e09190611421565b61017761013a366004611433565b60408051602080820183525f91829052938152600284528181206001600160a01b0393909316815291835290819020815192830190915254815290565b604051905181526020016100e0565b6100fc610194366004611456565b61059a565b6101f36101a73660046112fe565b604080518082019091525f8082526020820152505f908152600160209081526040918290208251808401909352546001600160a01b0381168352600160a01b900461ffff169082015290565b6040805182516001600160a01b0316815260209283015161ffff1692810192909252016100e0565b61022e6102293660046115b0565b6106f6565b6040516100e094939291906116f5565b61025161024c36600461173e565b610cb6565b005b61011f6102613660046113ea565b610f7d565b61011f6102743660046113ea565b611023565b5f60208190529081526040902080548190610293906117f2565b80601f01602080910402602001604051908101604052809291908181526020018280546102bf906117f2565b801561030a5780601f106102e15761010080835404028352916020019161030a565b820191905f5260205f20905b8154815290600101906020018083116102ed57829003601f168201915b50505050509080600101805461031f906117f2565b80601f016020809104026020016040519081016040528092919081815260200182805461034b906117f2565b80156103965780601f1061036d57610100808354040283529160200191610396565b820191905f5260205f20905b81548152906001019060200180831161037957829003601f168201915b5050505050908060020180546103ab906117f2565b80601f01602080910402602001604051908101604052809291908181526020018280546103d7906117f2565b80156104225780601f106103f957610100808354040283529160200191610422565b820191905f5260205f20905b81548152906001019060200180831161040557829003601f168201915b505050600390930154919250506001600160a01b031684565b5f6001600160e01b0319821663a988d3f560e01b148061046b57506301ffc9a760e01b6001600160e01b03198316145b92915050565b60405163ee7620b960e01b81526001600160a01b038316600482015261ffff821660248201526060905f90819073__$b344a487aac4b55987f24f901fcd77e415$__9063ee7620b990604401602060405180830381865af41580156104d8573d5f803e3d5ffd5b505050506040513d601f19601f820116820180604052508101906104fc919061182a565b81526020019081526020015f205f018054610516906117f2565b80601f0160208091040260200160405190810160405280929190818152602001828054610542906117f2565b801561058d5780601f106105645761010080835404028352916020019161058d565b820191905f5260205f20905b81548152906001019060200180831161057057829003601f168201915b5050505050905092915050565b60405163ee7620b960e01b815233600482015261ffff851660248201525f90819073__$b344a487aac4b55987f24f901fcd77e415$__9063ee7620b990604401602060405180830381865af41580156105f5573d5f803e3d5ffd5b505050506040513d601f19601f82011682018060405250810190610619919061182a565b5f818152602081905260409020600301549091506001600160a01b031633146106895760405162461bcd60e51b815260206004820152600b60248201527f4f6e6c7920506f7765727300000000000000000000000000000000000000000060448201526064015b60405180910390fd5b5f805f806106d08b338c8c8c8080601f0160208091040260200160405190810160405280939291908181526020018383808284375f920191909152508e92506106f6915050565b93509350935093506106e58a858585856110d0565b5060019a9950505050505050505050565b5f606080606061077e60408051610140810182525f808252825180840184528181526020808201839052808401919091528284018290526060808401839052608080850184905285519081018652838152918201839052938101829052928301529060a082019081525f60208201819052604082018190526060820181905260809091015290565b60405163ee7620b960e01b81526001600160a01b038a16600482015261ffff8916602482015273__$b344a487aac4b55987f24f901fcd77e415$__9063ee7620b990604401602060405180830381865af41580156107de573d5f803e3d5ffd5b505050506040513d601f19601f82011682018060405250810190610802919061182a565b8082525f908152600160209081526040918290208251808401845290546001600160a01b0381168252600160a01b900461ffff16818301529083015251630bcec85560e01b815273__$b344a487aac4b55987f24f901fcd77e415$__90630bcec85590610877908b908b908b90600401611841565b602060405180830381865af4158015610892573d5f803e3d5ffd5b505050506040513d601f19601f820116820180604052508101906108b6919061182a565b33604083015287519095506108d4908801602090810190890161182a565b6060820181905260208201515160405163c16fe90760e01b815260048101929092526001600160a01b03169063c16fe90790602401608060405180830381865afa158015610924573d5f803e3d5ffd5b505050506040513d601f19601f82011682018060405250810190610948919061186d565b60a08201819052604001515f036109a15760405162461bcd60e51b815260206004820152601760248201527f5472616e7366657220646f6573206e6f742065786973740000000000000000006044820152606401610680565b896001600160a01b03168160a001515f01516001600160a01b031614610a095760405162461bcd60e51b815260206004820152601860248201527f5472616e73666572206e6f742066726f6d2063616c6c657200000000000000006044820152606401610680565b65ffffffffffff431660c082015280515f90815260026020908152604080832060a08501518301516001600160a01b0316845290915281205460e083018190529003610a975760405162461bcd60e51b815260206004820152601460248201527f546f6b656e206e6f7420636f6e666967757265640000000000000000000000006044820152606401610680565b8060e001518160a0015160400151610aaf91906118e2565b61010082018190525f03610b055760405162461bcd60e51b815260206004820152601c60248201527f496e73756666696369656e74207472616e7366657220616d6f756e74000000006044820152606401610680565b8061010001518160a0015160600151610b1e9190611901565b65ffffffffffff168160c0015165ffffffffffff161115610b815760405162461bcd60e51b815260206004820152600e60248201527f41636365737320657870697265640000000000000000000000000000000000006044820152606401610680565b60405163054591f760e11b81526001600482015273__$b344a487aac4b55987f24f901fcd77e415$__90630a8b23ee906024015f60405180830381865af4158015610bce573d5f803e3d5ffd5b505050506040513d5f823e601f3d908101601f19168201604052610bf59190810190611a17565b82519296509094509250899085905f90610c1157610c11611b5e565b6001600160a01b03928316602091820292909201810191909152828101518101516040805161ffff9092166024830152928d16604480830191909152835180830390910181526064909101909252810180517bffffffffffffffffffffffffffffffffffffffffffffffffffffffff1663342dc12560e11b179052825183905f90610c9e57610c9e611b5e565b60200260200101819052505095509550955095915050565b5f805f8084806020019051810190610cce9190611b72565b93509350935093508151835114610d4d5760405162461bcd60e51b815260206004820152603a60248201527f546f6b656e7320616e6420546f6b656e73506572426c6f636b2061727261797360448201527f206d7573742068617665207468652073616d65206c656e6774680000000000006064820152608401610680565b82515f03610dc35760405162461bcd60e51b815260206004820152602c60248201527f4174206c65617374206f6e6520746f6b656e20636f6e66696775726174696f6e60448201527f20697320726571756972656400000000000000000000000000000000000000006064820152608401610680565b60405163ee7620b960e01b815233600482015261ffff891660248201525f9073__$b344a487aac4b55987f24f901fcd77e415$__9063ee7620b990604401602060405180830381865af4158015610e1c573d5f803e3d5ffd5b505050506040513d601f19601f82011682018060405250810190610e40919061182a565b5f818152600160205260408120805461ffff8616600160a01b027fffffffffffffffffffff000000000000000000000000000000000000000000009091166001600160a01b038a16171790559091505b8451811015610f13576040518060200160405280858381518110610eb657610eb6611b5e565b602002602001015181525060025f8481526020019081526020015f205f878481518110610ee557610ee5611b5e565b6020908102919091018101516001600160a01b031682528101919091526040015f2090519055600101610e90565b50604051602001610f559060208082526011908201527f75696e7432353620726563656970744964000000000000000000000000000000604082015260600190565b6040516020818303038152906040529650610f728989898961112b565b505050505050505050565b60405163ee7620b960e01b81526001600160a01b038316600482015261ffff821660248201526060905f90819073__$b344a487aac4b55987f24f901fcd77e415$__9063ee7620b990604401602060405180830381865af4158015610fe4573d5f803e3d5ffd5b505050506040513d601f19601f82011682018060405250810190611008919061182a565b81526020019081526020015f206002018054610516906117f2565b60405163ee7620b960e01b81526001600160a01b038316600482015261ffff821660248201526060905f90819073__$b344a487aac4b55987f24f901fcd77e415$__9063ee7620b990604401602060405180830381865af415801561108a573d5f803e3d5ffd5b505050506040513d601f19601f820116820180604052508101906110ae919061182a565b81526020019081526020015f206001018054610516906117f2565b5050505050565b8251156110c957604051630de6a60160e01b81523390630de6a601906111029088908890889088908890600401611bfc565b5f604051808303815f87803b158015611119575f80fd5b505af1158015610f72573d5f803e3d5ffd5b60405163ee7620b960e01b815233600482015261ffff851660248201525f9073__$b344a487aac4b55987f24f901fcd77e415$__9063ee7620b990604401602060405180830381865af4158015611184573d5f803e3d5ffd5b505050506040513d601f19601f820116820180604052508101906111a8919061182a565b60405163cb4a15c560e01b815290915073__$b344a487aac4b55987f24f901fcd77e415$__9063cb4a15c5906111e890879060019060ff90600401611c50565b5f6040518083038186803b1580156111fe575f80fd5b505af4158015611210573d5f803e3d5ffd5b50506040805160808101825287815260208082018890528183018790523360608301525f86815290819052919091208151919350915081906112529082611cbd565b50602082015160018201906112679082611cbd565b506040820151600282019061127c9082611cbd565b50606091909101516003909101805473ffffffffffffffffffffffffffffffffffffffff19166001600160a01b0390921691909117905560405161ffff86169033907ff02558935ef4a7a4dd0455b94fd00eb1bcd7d048c0ab648841d3985a31a135c2906112ef90889088908890611d78565b60405180910390a35050505050565b5f6020828403121561130e575f80fd5b5035919050565b5f81518084528060208401602086015e5f602082860101526020601f19601f83011685010191505092915050565b608081525f6113556080830187611315565b82810360208401526113678187611315565b9050828103604084015261137b8186611315565b9150506001600160a01b038316606083015295945050505050565b5f602082840312156113a6575f80fd5b81356001600160e01b0319811681146113bd575f80fd5b9392505050565b6001600160a01b03811681146113d8575f80fd5b50565b61ffff811681146113d8575f80fd5b5f80604083850312156113fb575f80fd5b8235611406816113c4565b91506020830135611416816113db565b809150509250929050565b602081525f6113bd6020830184611315565b5f8060408385031215611444575f80fd5b823591506020830135611416816113c4565b5f805f805f6080868803121561146a575f80fd5b8535611475816113c4565b94506020860135611485816113db565b9350604086013567ffffffffffffffff8111156114a0575f80fd5b8601601f810188136114b0575f80fd5b803567ffffffffffffffff8111156114c6575f80fd5b8860208284010111156114d7575f80fd5b959894975060200195606001359392505050565b634e487b7160e01b5f52604160045260245ffd5b604051601f8201601f1916810167ffffffffffffffff81118282101715611528576115286114eb565b604052919050565b5f67ffffffffffffffff821115611549576115496114eb565b50601f01601f191660200190565b5f61156961156484611530565b6114ff565b905082815283838301111561157c575f80fd5b828260208301375f602084830101529392505050565b5f82601f8301126115a1575f80fd5b6113bd83833560208501611557565b5f805f805f60a086880312156115c4575f80fd5b85356115cf816113c4565b945060208601356115df816113c4565b935060408601356115ef816113db565b9250606086013567ffffffffffffffff81111561160a575f80fd5b61161688828901611592565b95989497509295608001359392505050565b5f8151808452602084019350602083015f5b828110156116615781516001600160a01b031686526020958601959091019060010161163a565b5093949350505050565b5f8151808452602084019350602083015f5b8281101561166157815186526020958601959091019060010161167d565b5f82825180855260208501945060208160051b830101602085015f5b838110156116e957601f198584030188526116d3838351611315565b60209889019890935091909101906001016116b7565b50909695505050505050565b848152608060208201525f61170d6080830186611628565b828103604084015261171f818661166b565b90508281036060840152611733818561169b565b979650505050505050565b5f805f8060808587031215611751575f80fd5b843561175c816113db565b9350602085013567ffffffffffffffff811115611777575f80fd5b8501601f81018713611787575f80fd5b61179687823560208401611557565b935050604085013567ffffffffffffffff8111156117b2575f80fd5b6117be87828801611592565b925050606085013567ffffffffffffffff8111156117da575f80fd5b6117e687828801611592565b91505092959194509250565b600181811c9082168061180657607f821691505b60208210810361182457634e487b7160e01b5f52602260045260245ffd5b50919050565b5f6020828403121561183a575f80fd5b5051919050565b61ffff84168152606060208201525f61185d6060830185611315565b9050826040830152949350505050565b5f608082840312801561187e575f80fd5b506040516080810167ffffffffffffffff811182821017156118a2576118a26114eb565b60405282516118b0816113c4565b815260208301516118c0816113c4565b6020820152604083810151908201526060928301519281019290925250919050565b5f826118fc57634e487b7160e01b5f52601260045260245ffd5b500490565b65ffffffffffff818116838216019081111561046b57634e487b7160e01b5f52601160045260245ffd5b5f67ffffffffffffffff821115611944576119446114eb565b5060051b60200190565b5f82601f83011261195d575f80fd5b815161196b6115648261192b565b8082825260208201915060208360051b86010192508583111561198c575f80fd5b602085015b838110156119b25780516119a4816113c4565b835260209283019201611991565b5095945050505050565b5f82601f8301126119cb575f80fd5b81516119d96115648261192b565b8082825260208201915060208360051b8601019250858311156119fa575f80fd5b602085015b838110156119b25780518352602092830192016119ff565b5f805f60608486031215611a29575f80fd5b835167ffffffffffffffff811115611a3f575f80fd5b611a4b8682870161194e565b935050602084015167ffffffffffffffff811115611a67575f80fd5b611a73868287016119bc565b925050604084015167ffffffffffffffff811115611a8f575f80fd5b8401601f81018613611a9f575f80fd5b8051611aad6115648261192b565b8082825260208201915060208360051b850101925088831115611ace575f80fd5b602084015b83811015611b4f57805167ffffffffffffffff811115611af1575f80fd5b8501603f81018b13611b01575f80fd5b6020810151611b1261156482611530565b8181526040838301018d1015611b26575f80fd5b8160408401602083015e5f60208383010152808652505050602083019250602081019050611ad3565b50809450505050509250925092565b634e487b7160e01b5f52603260045260245ffd5b5f805f8060808587031215611b85575f80fd5b8451611b90816113c4565b602086015190945067ffffffffffffffff811115611bac575f80fd5b611bb88782880161194e565b935050604085015167ffffffffffffffff811115611bd4575f80fd5b611be0878288016119bc565b9250506060850151611bf1816113db565b939692955090935050565b61ffff8616815284602082015260a060408201525f611c1e60a0830186611628565b8281036060840152611c30818661166b565b90508281036080840152611c44818561169b565b98975050505050505050565b606081525f611c626060830186611315565b60208301949094525060400152919050565b601f821115611cb857805f5260205f20601f840160051c81016020851015611c995750805b601f840160051c820191505b818110156110c9575f8155600101611ca5565b505050565b815167ffffffffffffffff811115611cd757611cd76114eb565b611ceb81611ce584546117f2565b84611c74565b6020601f821160018114611d1d575f8315611d065750848201515b5f19600385901b1c1916600184901b1784556110c9565b5f84815260208120601f198516915b82811015611d4c5787850151825560209485019460019092019101611d2c565b5084821015611d6957868401515f19600387901b60f8161c191681555b50505050600190811b01905550565b606081525f611d8a6060830186611315565b8281036020840152611d9c8186611315565b90508281036040840152611db08185611315565b969550505050505056fea264697066735822122076324323e96ecb4164115404f89122a01c051e70cd877bfa089b1e3013ef1ebb64736f6c634300081a0033","linkReferences":{"src/libraries/MandateUtilities.sol":{"MandateUtilities":[{"start":1550,"length":20},{"start":1835,"length":20},{"start":2324,"length":20},{"start":2489,"length":20},{"start":3333,"length":20},{"start":3922,"length":20},{"start":4378,"length":20},{"start":4544,"length":20},{"start":4794,"length":20},{"start":4904,"length":20}]}}},"methodIdentifiers":{"executeMandate(address,uint16,bytes,uint256)":"4d516f0e","getConfig(address,uint16)":"c0d27aad","getData(bytes32)":"54f6127f","getInputParams(address,uint16)":"d8a941f4","getNameDescription(address,uint16)":"0d157721","getTokenConfig(bytes32,address)":"19028aa3","handleRequest(address,address,uint16,bytes,uint256)":"552cb372","initializeMandate(uint16,string,bytes,bytes)":"b1f50f89","mandates(bytes32)":"01e07972","supportsInterface(bytes4)":"01ffc9a7"},"id":179}