{"abi":[{"type":"constructor","inputs":[],"stateMutability":"nonpayable"},{"type":"function","name":"executeMandate","inputs":[{"name":"caller","type":"address","internalType":"address"},{"name":"mandateId","type":"uint16","internalType":"uint16"},{"name":"mandateCalldata","type":"bytes","internalType":"bytes"},{"name":"nonce","type":"uint256","internalType":"uint256"}],"outputs":[{"name":"success","type":"bool","internalType":"bool"}],"stateMutability":"nonpayable"},{"type":"function","name":"getConfig","inputs":[{"name":"powers","type":"address","internalType":"address"},{"name":"mandateId","type":"uint16","internalType":"uint16"}],"outputs":[{"name":"config","type":"bytes","internalType":"bytes"}],"stateMutability":"view"},{"type":"function","name":"getInputParams","inputs":[{"name":"powers","type":"address","internalType":"address"},{"name":"mandateId","type":"uint16","internalType":"uint16"}],"outputs":[{"name":"inputParams","type":"bytes","internalType":"bytes"}],"stateMutability":"view"},{"type":"function","name":"getNameDescription","inputs":[{"name":"powers","type":"address","internalType":"address"},{"name":"mandateId","type":"uint16","internalType":"uint16"}],"outputs":[{"name":"nameDescription","type":"string","internalType":"string"}],"stateMutability":"view"},{"type":"function","name":"handleRequest","inputs":[{"name":"caller","type":"address","internalType":"address"},{"name":"powers","type":"address","internalType":"address"},{"name":"mandateId","type":"uint16","internalType":"uint16"},{"name":"mandateCalldata","type":"bytes","internalType":"bytes"},{"name":"nonce","type":"uint256","internalType":"uint256"}],"outputs":[{"name":"actionId","type":"uint256","internalType":"uint256"},{"name":"targets","type":"address[]","internalType":"address[]"},{"name":"values","type":"uint256[]","internalType":"uint256[]"},{"name":"calldatas","type":"bytes[]","internalType":"bytes[]"}],"stateMutability":"view"},{"type":"function","name":"initializeMandate","inputs":[{"name":"index","type":"uint16","internalType":"uint16"},{"name":"nameDescription","type":"string","internalType":"string"},{"name":"inputParams","type":"bytes","internalType":"bytes"},{"name":"config","type":"bytes","internalType":"bytes"}],"outputs":[],"stateMutability":"nonpayable"},{"type":"function","name":"mandates","inputs":[{"name":"mandateHash","type":"bytes32","internalType":"bytes32"}],"outputs":[{"name":"nameDescription","type":"string","internalType":"string"},{"name":"inputParams","type":"bytes","internalType":"bytes"},{"name":"config","type":"bytes","internalType":"bytes"},{"name":"powers","type":"address","internalType":"address"}],"stateMutability":"view"},{"type":"function","name":"supportsInterface","inputs":[{"name":"interfaceId","type":"bytes4","internalType":"bytes4"}],"outputs":[{"name":"","type":"bool","internalType":"bool"}],"stateMutability":"view"},{"type":"function","name":"version","inputs":[],"outputs":[{"name":"","type":"string","internalType":"string"}],"stateMutability":"pure"},{"type":"event","name":"AsyncMandate__Initialized","inputs":[{"name":"powers","type":"address","indexed":true,"internalType":"address"},{"name":"index","type":"uint16","indexed":true,"internalType":"uint16"},{"name":"nameDescription","type":"string","indexed":false,"internalType":"string"},{"name":"inputParams","type":"bytes","indexed":false,"internalType":"bytes"},{"name":"config","type":"bytes","indexed":false,"internalType":"bytes"},{"name":"oracle","type":"address","indexed":false,"internalType":"address"}],"anonymous":false},{"type":"event","name":"Mandate__Deployed","inputs":[{"name":"configParams","type":"bytes","indexed":false,"internalType":"bytes"}],"anonymous":false},{"type":"event","name":"Mandate__Initialized","inputs":[{"name":"powers","type":"address","indexed":true,"internalType":"address"},{"name":"index","type":"uint16","indexed":true,"internalType":"uint16"},{"name":"nameDescription","type":"string","indexed":false,"internalType":"string"},{"name":"inputParams","type":"bytes","indexed":false,"internalType":"bytes"},{"name":"config","type":"bytes","indexed":false,"internalType":"bytes"}],"anonymous":false},{"type":"error","name":"OnlyPowers","inputs":[]}],"bytecode":{"object":"0x608060405234801561000f575f5ffd5b505f6040516020016100209061006e565b60405160208183030381529060405290507f71bb7b033e40374cfbc64859f679a737bcbfca31158d6a4783c01ee8d445cc5e8160405161006091906101aa565b60405180910390a1506101df565b60c08152601460c08201527f737472696e675b5d20696e707574506172616d7300000000000000000000000060e0820152610100602082015260106101008201526f6164647265737320726567697374727960801b61012082015261014060408201525f61014082015f601982527f75696e74323536207374616c6541667465725365636f6e6473000000000000006020830152604082019050838103606085015261014481601681527f626f6f6c20666163656d61746368526571756972656400000000000000000000602082015260400190565b8481036080860152601781527f6279746573342066756e6374696f6e53656c6563746f7200000000000000000060208201529150506040810183810360a0850152600b81526a189e5d195cc81a5b9c1d5d60aa1b60208201529050604081019392505050565b602081525f82518060208401528060208501604085015e5f604082850101526040601f19601f83011684010191505092915050565b612aca806101ec5f395ff3fe608060405234801561000f575f5ffd5b506004361061009f575f3560e01c806354fd4d5011610072578063b1f50f8911610058578063b1f50f891461016a578063c0d27aad1461017f578063d8a941f414610192575f5ffd5b806354fd4d5014610125578063552cb37214610147575f5ffd5b806301e07972146100a357806301ffc9a7146100cf5780630d157721146100f25780634d516f0e14610112575b5f5ffd5b6100b66100b1366004611e26565b6101a5565b6040516100c69493929190611e6b565b60405180910390f35b6100e26100dd366004611ed6565b610367565b60405190151581526020016100c6565b610105610100366004611f22565b61039d565b6040516100c69190611f55565b6100e2610120366004611fac565b61046e565b604080518082019091526006815265076302e362e360d41b6020820152610105565b61015a610155366004612012565b61055b565b6040516100c6949392919061215c565b61017d610178366004612294565b610e76565b005b61010561018d366004611f22565b610fc1565b6101056101a0366004611f22565b611011565b5f602081905290815260409020805481906101bf90612346565b80601f01602080910402602001604051908101604052809291908181526020018280546101eb90612346565b80156102365780601f1061020d57610100808354040283529160200191610236565b820191905f5260205f20905b81548152906001019060200180831161021957829003601f168201915b50505050509080600101805461024b90612346565b80601f016020809104026020016040519081016040528092919081815260200182805461027790612346565b80156102c25780601f10610299576101008083540402835291602001916102c2565b820191905f5260205f20905b8154815290600101906020018083116102a557829003601f168201915b5050505050908060020180546102d790612346565b80601f016020809104026020016040519081016040528092919081815260200182805461030390612346565b801561034e5780601f106103255761010080835404028352916020019161034e565b820191905f5260205f20905b81548152906001019060200180831161033157829003601f168201915b505050600390930154919250506001600160a01b031684565b5f6001600160e01b0319821663a988d3f560e01b148061039757506301ffc9a760e01b6001600160e01b03198316145b92915050565b604080516001600160a01b03841660208083019190915261ffff841682840152825180830384018152606092830184528051908201205f908152908190529190912080546103ea90612346565b80601f016020809104026020016040519081016040528092919081815260200182805461041690612346565b80156104615780601f1061043857610100808354040283529160200191610461565b820191905f5260205f20905b81548152906001019060200180831161044457829003601f168201915b5050505050905092915050565b6040805133602080830182905261ffff881683850152835180840385018152606090930184528251928101929092205f81815292839052928220600301549192916001600160a01b0316146104d65760405163e317a3d160e01b815260040160405180910390fd5b5f5f5f5f6104e88b338c8c8c8c61055b565b604051630de6a60160e01b8152939750919550935091503390630de6a6019061051d908d90889088908890889060040161237e565b5f604051808303815f87803b158015610534575f5ffd5b505af1158015610546573d5f5f3e3d5ffd5b5060019e9d5050505050505050505050505050565b5f6060806060610569611d58565b6105738a8a610fc1565b80602001905181019061058691906124cf565b60c08701526001600160e01b03191660a08601521515608085015260608401526001600160a01b03166040830152506105c187890189612585565b6001600160a01b0390811660e08301526040820151166106345760405162461bcd60e51b8152602060048201526024808201527f5a4b50617373706f72743a20496e76616c6964207265676973747279206164646044820152637265737360e01b60648201526084015b60405180910390fd5b60e08101516001600160a01b03166106b45760405162461bcd60e51b815260206004820152603560248201527f5a4b50617373706f72743a20496e76616c6964207a65726f206164647265737360448201527f20666f72206163636f756e7420746f20636865636b0000000000000000000000606482015260840161062b565b8a6001600160a01b03168160e001516001600160a01b03161461073f5760405162461bcd60e51b815260206004820152602e60248201527f5a4b50617373706f72743a2043616c6c6572206973206e6f742074686520616360448201527f636f756e7420746f20636865636b000000000000000000000000000000000000606482015260840161062b565b5f816040015190506107888a8a8a8080601f0160208091040260200160405190810160405280939291908181526020018383808284375f920191909152508c9250611061915050565b60e0830151604051635941514d60e11b81526001600160a01b03918216600482015291975082169063b282a29a90602401602060405180830381865afa1580156107d4573d5f5f3e3d5ffd5b505050506040513d601f19601f820116820180604052508101906107f891906125a0565b610100830181905260608301519061081090426125cb565b1061085d5760405162461bcd60e51b815260206004820152600e60248201527f50726f6f66206973207374616c65000000000000000000000000000000000000604482015260640161062b565b8160800151156109215760e082015160405163306b618f60e21b81526001600160a01b0391821660048201529082169063c1ad863c90602401602060405180830381865afa1580156108b1573d5f5f3e3d5ffd5b505050506040513d601f19601f820116820180604052508101906108d591906125de565b6109215760405162461bcd60e51b815260206004820152601d60248201527f466163654d6174636820726571756972656d656e74206e6f74206d6574000000604482015260640161062b565b60e0820151604051633eca794d60e01b81526001600160a01b03918216600482015290821690633eca794d906024015f60405180830381865afa15801561096a573d5f5f3e3d5ffd5b505050506040513d5f823e601f3d908101601f1916820160405261099191908101906125f7565b61014083015260a08201516001600160e01b03191663d4d6de8760e01b016109d3576109c68260c00151836101400151611097565b1515610120830152610df6565b60a08201516001600160e01b0319166321f06bd160e21b01610a02576109c68260c001518361014001516110c9565b60a08201516001600160e01b031916631491889760e31b01610a31576109c68260c001518361014001516110fc565b60a08201516001600160e01b0319166303617ca560e61b01610a60576109c68260c0015183610140015161112e565b60a08201516001600160e01b031916630e85aea760e11b01610a8f576109c68260c00151836101400151611161565b60a08201516001600160e01b03191663210fe7d760e11b01610abe576109c68260c001518361014001516111ac565b60a08201516001600160e01b0319166331582e7d60e11b01610aed576109c68260c001518361014001516111de565b60a08201516001600160e01b03191663a21e3f7960e01b01610b1c576109c68260c0015183610140015161120d565b60a08201516001600160e01b0319166351559d7b60e01b01610b4b576109c68260c0015183610140015161123c565b60a08201516001600160e01b0319166312f01d8d60e31b01610b7a576109c68260c0015183610140015161126b565b60a08201516001600160e01b03191663df399da760e01b01610ba9576109c68260c0015183610140015161129a565b60a08201516001600160e01b031916638bd9b20b60e01b01610bd8576109c68260c001518361014001516112ed565b60a08201516001600160e01b03191663d2e2745f60e01b01610c07576109c68260c0015183610140015161131c565b60a08201516001600160e01b031916632523ed0760e11b01610c36576109c68260c0015183610140015161134c565b60a08201516001600160e01b031916630c5e0e2760e01b01610c65576109c68260c0015183610140015161137c565b60a08201516001600160e01b031916636191efaf60e11b01610c94576109c68260c001518361014001516113ac565b60a08201516001600160e01b0319166372ab993f60e11b01610cc3576109c68260c001518361014001516113dc565b60a08201516001600160e01b031916635cbf449760e11b01610cf2576109c68260c00151836101400151611407565b60a08201516001600160e01b031916638519981760e01b01610d21576109c68260c00151836101400151611437565b60a08201516001600160e01b03191663c91aa4f960e01b01610d50576109c68260c001518361014001516114a9565b60a08201516001600160e01b03191663d3a2e4bb60e01b01610d7f576109c68260c0015183610140015161151b565b60a08201516001600160e01b031916631b0093df60e01b01610dae576109c68260c00151836101400151611583565b60405162461bcd60e51b815260206004820152601d60248201527f556e737570706f727465642066756e6374696f6e2073656c6563746f72000000604482015260640161062b565b816101200151610e565760405162461bcd60e51b815260206004820152602560248201527f5a4b50617373706f72743a2050726f6f6620766572696669636174696f6e2066604482015264185a5b195960da1b606482015260840161062b565b610e6060016115ea565b9196509450925050509650965096509692505050565b5f81806020019051810190610e8b91906124cf565b505050505090505f81516001610ea19190612791565b67ffffffffffffffff811115610eb957610eb96121a5565b604051908082528060200260200182016040528015610eec57816020015b6060815260200190600190039081610ed75790505b5090505f5b8251811015610f3957828181518110610f0c57610f0c6127a4565b6020026020010151828281518110610f2657610f266127a4565b6020908102919091010152600101610ef1565b506040518060400160405280601681526020017f61646472657373204163636f756e74546f436865636b0000000000000000000081525081835181518110610f8357610f836127a4565b6020026020010181905250610fb9868683604051602001610fa491906127b8565b604051602081830303815290604052866116ce565b505050505050565b604080516001600160a01b03841660208083019190915261ffff841682840152825180830384018152606092830184528051908201205f908152908190529190912060020180546103ea90612346565b604080516001600160a01b03841660208083019190915261ffff841682840152825180830384018152606092830184528051908201205f908152908190529190912060010180546103ea90612346565b5f8383836040516020016110779392919061281b565b60408051601f198184030181529190528051602090910120949350505050565b5f5f838060200190518101906110ad9190612857565b90508060ff166110c084608001516117ef565b11949350505050565b5f5f838060200190518101906110df9190612857565b90508060ff166110f284608001516117ef565b1015949350505050565b5f5f838060200190518101906111129190612857565b90508060ff1661112584608001516117ef565b10949350505050565b5f5f838060200190518101906111449190612857565b90508060ff1661115784608001516117ef565b1115949350505050565b5f5f5f848060200190518101906111789190612870565b915091505f61118a85608001516117ef565b90508260ff1681101580156111a257508160ff168111155b9695505050505050565b5f5f838060200190518101906111c29190612857565b90508060ff166111d584608001516117ef565b14949350505050565b5f5f838060200190518101906111f491906125a0565b90506111ff81611839565b6110c084608001515f611882565b5f5f8380602001905181019061122391906125a0565b905061122e81611839565b6110f284608001515f611882565b5f5f8380602001905181019061125291906125a0565b905061125d81611839565b61112584608001515f611882565b5f5f8380602001905181019061128191906125a0565b905061128c81611839565b61115784608001515f611882565b5f5f5f848060200190518101906112b19190612898565b915091505f6112c485608001515f611882565b90506112cf83611839565b81101580156111a257506112e282611839565b101595945050505050565b5f5f8380602001905181019061130391906125a0565b905061130e81611839565b6111d584608001515f611882565b5f5f8380602001905181019061133291906125a0565b905061133d81611839565b6110c08460a001516001611882565b5f5f8380602001905181019061136291906125a0565b905061136d81611839565b6110f28460a001516001611882565b5f5f8380602001905181019061139291906125a0565b905061139d81611839565b6111258460a001516001611882565b5f5f838060200190518101906113c291906125a0565b90506113cd81611839565b6111578460a001516001611882565b5f5f5f848060200190518101906113f39190612898565b915091505f6112c48560a001516001611882565b5f5f8380602001905181019061141d91906125a0565b905061142881611839565b6111d58460a001516001611882565b5f5f8380602001905181019061144d91906128ba565b90505f5b815181101561149f57836020015180519060200120828281518110611478576114786127a4565b6020026020010151805190602001200361149757600192505050610397565b600101611451565b505f949350505050565b5f5f838060200190518101906114bf91906128ba565b90505f5b8151811015611510578360200151805190602001208282815181106114ea576114ea6127a4565b60200260200101518051906020012003611508575f92505050610397565b6001016114c3565b506001949350505050565b5f5f8380602001905181019061153191906128ba565b90505f5b815181101561149f5783604001518051906020012082828151811061155c5761155c6127a4565b6020026020010151805190602001200361157b57600192505050610397565b600101611535565b5f5f8380602001905181019061159991906128ba565b90505f5b8151811015611510578360400151805190602001208282815181106115c4576115c46127a4565b602002602001015180519060200120036115e2575f92505050610397565b60010161159d565b60608060608367ffffffffffffffff811115611608576116086121a5565b604051908082528060200260200182016040528015611631578160200160208202803683370190505b5092508367ffffffffffffffff81111561164d5761164d6121a5565b604051908082528060200260200182016040528015611676578160200160208202803683370190505b5091508367ffffffffffffffff811115611692576116926121a5565b6040519080825280602002602001820160405280156116c557816020015b60608152602001906001900390816116b05790505b50929491935050565b604080513360208083019190915261ffff8716828401528251808303840181526060909201909252805191012061170884600160ff611a8c565b6040805160808101825285815260208082018690528183018590523360608301525f8481529081905291909120815181906117439082612937565b50602082015160018201906117589082612937565b506040820151600282019061176d9082612937565b50606091909101516003909101805473ffffffffffffffffffffffffffffffffffffffff19166001600160a01b0390921691909117905560405161ffff86169033907ff02558935ef4a7a4dd0455b94fd00eb1bcd7d048c0ab648841d3985a31a135c2906117e0908890889088906129f2565b60405180910390a35050505050565b5f5f6117fb835f611882565b90505f61180742611839565b90508181101561181a57505f9392505050565b61271061182783836125cb565b6118319190612a3e565b949350505050565b5f5f5f5f61184685611b33565b9194509250905080611859836064612a51565b61186585612710612a51565b61186f9190612791565b6118799190612791565b95945050505050565b81515f9083906006146118d75760405162461bcd60e51b815260206004820152601760248201527f496e76616c6964204d525a2064617465206c656e677468000000000000000000604482015260640161062b565b5f611960825f815181106118ed576118ed6127a4565b602001015160f81c60f81b8360018151811061190b5761190b6127a4565b016020908101516040517fff0000000000000000000000000000000000000000000000000000000000000093841692810192909252919091166021820152602201604051602081830303815290604052611cde565b90505f61199783600281518110611979576119796127a4565b602001015160f81c60f81b8460038151811061190b5761190b6127a4565b90505f6119ce846004815181106119b0576119b06127a4565b602001015160f81c60f81b8560058151811061190b5761190b6127a4565b90505f6119da42611839565b90505f60646119eb61271084612a3e565b6119f59190612a68565b90505f8815611a2f57611a09826032612791565b861015611a2357611a1c866107d0612791565b9050611a52565b611a1c8661076c612791565b81861115611a4357611a1c8661076c612791565b611a4f866107d0612791565b90505b83611a5e866064612a51565b611a6a83612710612a51565b611a749190612791565b611a7e9190612791565b9a9950505050505050505050565b8183511015611add5760405162461bcd60e51b815260206004820152601060248201527f537472696e6720746f6f2073686f727400000000000000000000000000000000604482015260640161062b565b8083511115611b2e5760405162461bcd60e51b815260206004820152600f60248201527f537472696e6720746f6f206c6f6e670000000000000000000000000000000000604482015260640161062b565b505050565b5f808080611b446201518086612a3e565b611b5190620afa6c612791565b90505f611b6162023ab183612a3e565b90505f611b718262023ab1612a51565b611b7b90846125cb565b90505f61016d611b8e62023ab084612a3e565b611b9a618eac85612a3e565b611ba66105b486612a3e565b611bb090866125cb565b611bba9190612791565b611bc491906125cb565b611bce9190612a3e565b90505f611bdd84610190612a51565b611be79083612791565b90505f611bf5606484612a3e565b611c00600485612a3e565b611c0c8561016d612a51565b611c169190612791565b611c2091906125cb565b611c2a90856125cb565b90505f6099611c3a836005612a51565b611c45906002612791565b611c4f9190612a3e565b90506005611c5e826099612a51565b611c69906002612791565b611c739190612a3e565b611c7d90836125cb565b611c88906001612791565b9750600a8110611ca257611c9d6009826125cb565b611cad565b611cad816003612791565b98506002891115611cbe575f611cc1565b60015b611cce9060ff1684612791565b9950505050505050509193909250565b5f81815b8151811015611d51575f828281518110611cfe57611cfe6127a4565b016020015160f81c905060308110801590611d1d575060398160ff1611155b15611d4857611d2d603082612a7b565b60ff16611d3b85600a612a51565b611d459190612791565b93505b50600101611ce2565b5050919050565b6040518061016001604052805f15158152602001606081526020015f6001600160a01b031681526020015f81526020015f151581526020015f7bffffffffffffffffffffffffffffffffffffffffffffffffffffffff19168152602001606081526020015f6001600160a01b031681526020015f81526020015f15158152602001611e2160405180610100016040528060608152602001606081526020016060815260200160608152602001606081526020016060815260200160608152602001606081525090565b905290565b5f60208284031215611e36575f5ffd5b5035919050565b5f81518084528060208401602086015e5f602082860101526020601f19601f83011685010191505092915050565b608081525f611e7d6080830187611e3d565b8281036020840152611e8f8187611e3d565b90508281036040840152611ea38186611e3d565b9150506001600160a01b038316606083015295945050505050565b6001600160e01b031981168114611ed3575f5ffd5b50565b5f60208284031215611ee6575f5ffd5b8135611ef181611ebe565b9392505050565b6001600160a01b0381168114611ed3575f5ffd5b803561ffff81168114611f1d575f5ffd5b919050565b5f5f60408385031215611f33575f5ffd5b8235611f3e81611ef8565b9150611f4c60208401611f0c565b90509250929050565b602081525f611ef16020830184611e3d565b5f5f83601f840112611f77575f5ffd5b50813567ffffffffffffffff811115611f8e575f5ffd5b602083019150836020828501011115611fa5575f5ffd5b9250929050565b5f5f5f5f5f60808688031215611fc0575f5ffd5b8535611fcb81611ef8565b9450611fd960208701611f0c565b9350604086013567ffffffffffffffff811115611ff4575f5ffd5b61200088828901611f67565b96999598509660600135949350505050565b5f5f5f5f5f5f60a08789031215612027575f5ffd5b863561203281611ef8565b9550602087013561204281611ef8565b945061205060408801611f0c565b9350606087013567ffffffffffffffff81111561206b575f5ffd5b61207789828a01611f67565b979a9699509497949695608090950135949350505050565b5f8151808452602084019350602083015f5b828110156120c85781516001600160a01b03168652602095860195909101906001016120a1565b5093949350505050565b5f8151808452602084019350602083015f5b828110156120c85781518652602095860195909101906001016120e4565b5f82825180855260208501945060208160051b830101602085015f5b8381101561215057601f1985840301885261213a838351611e3d565b602098890198909350919091019060010161211e565b50909695505050505050565b848152608060208201525f612174608083018661208f565b828103604084015261218681866120d2565b9050828103606084015261219a8185612102565b979650505050505050565b634e487b7160e01b5f52604160045260245ffd5b604051610100810167ffffffffffffffff811182821017156121dd576121dd6121a5565b60405290565b604051601f8201601f1916810167ffffffffffffffff8111828210171561220c5761220c6121a5565b604052919050565b5f67ffffffffffffffff82111561222d5761222d6121a5565b50601f01601f191660200190565b5f61224d61224884612214565b6121e3565b9050828152838383011115612260575f5ffd5b828260208301375f602084830101529392505050565b5f82601f830112612285575f5ffd5b611ef18383356020850161223b565b5f5f5f5f608085870312156122a7575f5ffd5b6122b085611f0c565b9350602085013567ffffffffffffffff8111156122cb575f5ffd5b8501601f810187136122db575f5ffd5b6122ea8782356020840161223b565b935050604085013567ffffffffffffffff811115612306575f5ffd5b61231287828801612276565b925050606085013567ffffffffffffffff81111561232e575f5ffd5b61233a87828801612276565b91505092959194509250565b600181811c9082168061235a57607f821691505b60208210810361237857634e487b7160e01b5f52602260045260245ffd5b50919050565b61ffff8616815284602082015260a060408201525f6123a060a083018661208f565b82810360608401526123b281866120d2565b905082810360808401526123c68185612102565b98975050505050505050565b5f6123df61224884612214565b90508281528383830111156123f2575f5ffd5b8282602083015e5f602084830101529392505050565b5f82601f830112612417575f5ffd5b611ef1838351602085016123d2565b5f82601f830112612435575f5ffd5b815167ffffffffffffffff81111561244f5761244f6121a5565b8060051b61245f602082016121e3565b9182526020818501810192908101908684111561247a575f5ffd5b6020860192505b838310156111a257825167ffffffffffffffff81111561249f575f5ffd5b6124ae886020838a0101612408565b83525060209283019290910190612481565b80518015158114611f1d575f5ffd5b5f5f5f5f5f5f60c087890312156124e4575f5ffd5b865167ffffffffffffffff8111156124fa575f5ffd5b61250689828a01612426565b965050602087015161251781611ef8565b6040880151909550935061252d606088016124c0565b9250608087015161253d81611ebe565b60a088015190925067ffffffffffffffff811115612559575f5ffd5b8701601f81018913612569575f5ffd5b612578898251602084016123d2565b9150509295509295509295565b5f60208284031215612595575f5ffd5b8135611ef181611ef8565b5f602082840312156125b0575f5ffd5b5051919050565b634e487b7160e01b5f52601160045260245ffd5b81810381811115610397576103976125b7565b5f602082840312156125ee575f5ffd5b611ef1826124c0565b5f60208284031215612607575f5ffd5b815167ffffffffffffffff81111561261d575f5ffd5b8201610100818503121561262f575f5ffd5b6126376121b9565b815167ffffffffffffffff81111561264d575f5ffd5b61265986828501612408565b825250602082015167ffffffffffffffff811115612675575f5ffd5b61268186828501612408565b602083015250604082015167ffffffffffffffff8111156126a0575f5ffd5b6126ac86828501612408565b604083015250606082015167ffffffffffffffff8111156126cb575f5ffd5b6126d786828501612408565b606083015250608082015167ffffffffffffffff8111156126f6575f5ffd5b61270286828501612408565b60808301525060a082015167ffffffffffffffff811115612721575f5ffd5b61272d86828501612408565b60a08301525060c082015167ffffffffffffffff81111561274c575f5ffd5b61275886828501612408565b60c08301525060e082015167ffffffffffffffff811115612777575f5ffd5b61278386828501612408565b60e083015250949350505050565b80820180821115610397576103976125b7565b634e487b7160e01b5f52603260045260245ffd5b5f602082016020835280845180835260408501915060408160051b8601019250602086015f5b8281101561280f57603f198786030184526127fa858351611e3d565b945060209384019391909101906001016127de565b50929695505050505050565b61ffff84168152606060208201525f6128376060830185611e3d565b9050826040830152949350505050565b805160ff81168114611f1d575f5ffd5b5f60208284031215612867575f5ffd5b611ef182612847565b5f5f60408385031215612881575f5ffd5b61288a83612847565b9150611f4c60208401612847565b5f5f604083850312156128a9575f5ffd5b505080516020909101519092909150565b5f602082840312156128ca575f5ffd5b815167ffffffffffffffff8111156128e0575f5ffd5b61183184828501612426565b601f821115611b2e57805f5260205f20601f840160051c810160208510156129115750805b601f840160051c820191505b81811015612930575f815560010161291d565b5050505050565b815167ffffffffffffffff811115612951576129516121a5565b6129658161295f8454612346565b846128ec565b6020601f821160018114612997575f83156129805750848201515b5f19600385901b1c1916600184901b178455612930565b5f84815260208120601f198516915b828110156129c657878501518255602094850194600190920191016129a6565b50848210156129e357868401515f19600387901b60f8161c191681555b50505050600190811b01905550565b606081525f612a046060830186611e3d565b8281036020840152612a168186611e3d565b905082810360408401526111a28185611e3d565b634e487b7160e01b5f52601260045260245ffd5b5f82612a4c57612a4c612a2a565b500490565b8082028115828204841417610397576103976125b7565b5f82612a7657612a76612a2a565b500690565b60ff8281168282160390811115610397576103976125b756fea2646970667358221220eff3ed963af032ec7aeda07b8382b36e611f2473faa4c13d30c5e16991b6ec3764736f6c634300081e0033","linkReferences":{}},"methodIdentifiers":{"executeMandate(address,uint16,bytes,uint256)":"4d516f0e","getConfig(address,uint16)":"c0d27aad","getInputParams(address,uint16)":"d8a941f4","getNameDescription(address,uint16)":"0d157721","handleRequest(address,address,uint16,bytes,uint256)":"552cb372","initializeMandate(uint16,string,bytes,bytes)":"b1f50f89","mandates(bytes32)":"01e07972","supportsInterface(bytes4)":"01ffc9a7","version()":"54fd4d50"},"id":198}