{"abi":[{"type":"constructor","inputs":[{"name":"tokenAddress","type":"address","internalType":"address"}],"stateMutability":"nonpayable"},{"type":"function","name":"config","inputs":[],"outputs":[{"name":"token","type":"address","internalType":"contract ERC20Votes"}],"stateMutability":"view"},{"type":"function","name":"getNomineeRanking","inputs":[],"outputs":[{"name":"nomineesArray","type":"address[]","internalType":"address[]"},{"name":"votes","type":"uint256[]","internalType":"uint256[]"}],"stateMutability":"view"},{"type":"function","name":"getNominees","inputs":[],"outputs":[{"name":"","type":"address[]","internalType":"address[]"}],"stateMutability":"view"},{"type":"function","name":"isNominee","inputs":[{"name":"account","type":"address","internalType":"address"}],"outputs":[{"name":"","type":"bool","internalType":"bool"}],"stateMutability":"view"},{"type":"function","name":"nominate","inputs":[{"name":"nominee","type":"address","internalType":"address"},{"name":"shouldNominate","type":"bool","internalType":"bool"}],"outputs":[],"stateMutability":"nonpayable"},{"type":"function","name":"nominations","inputs":[{"name":"nominee","type":"address","internalType":"address"}],"outputs":[{"name":"nominated","type":"bool","internalType":"bool"}],"stateMutability":"view"},{"type":"function","name":"nominees","inputs":[{"name":"","type":"uint256","internalType":"uint256"}],"outputs":[{"name":"","type":"address","internalType":"address"}],"stateMutability":"view"},{"type":"function","name":"nomineesCount","inputs":[],"outputs":[{"name":"","type":"uint256","internalType":"uint256"}],"stateMutability":"view"},{"type":"function","name":"owner","inputs":[],"outputs":[{"name":"","type":"address","internalType":"address"}],"stateMutability":"view"},{"type":"function","name":"renounceOwnership","inputs":[],"outputs":[],"stateMutability":"nonpayable"},{"type":"function","name":"revokeNomination","inputs":[{"name":"nominee","type":"address","internalType":"address"}],"outputs":[],"stateMutability":"nonpayable"},{"type":"function","name":"transferOwnership","inputs":[{"name":"newOwner","type":"address","internalType":"address"}],"outputs":[],"stateMutability":"nonpayable"},{"type":"event","name":"NominationReceived","inputs":[{"name":"nominee","type":"address","indexed":true,"internalType":"address"}],"anonymous":false},{"type":"event","name":"NominationRevoked","inputs":[{"name":"nominee","type":"address","indexed":true,"internalType":"address"}],"anonymous":false},{"type":"event","name":"OwnershipTransferred","inputs":[{"name":"previousOwner","type":"address","indexed":true,"internalType":"address"},{"name":"newOwner","type":"address","indexed":true,"internalType":"address"}],"anonymous":false},{"type":"error","name":"OwnableInvalidOwner","inputs":[{"name":"owner","type":"address","internalType":"address"}]},{"type":"error","name":"OwnableUnauthorizedAccount","inputs":[{"name":"account","type":"address","internalType":"address"}]}],"bytecode":{"object":"0x608060405234801561000f575f5ffd5b50604051610d2e380380610d2e83398101604081905261002e91610126565b338061005457604051631e4fbdf760e01b81525f60048201526024015b60405180910390fd5b61005d816100d7565b506001600160a01b0381166100a55760405162461bcd60e51b815260206004820152600e60248201526d1d1bdad95b881c995c5d5a5c995960921b604482015260640161004b565b60408051602081019091526001600160a01b0390911690819052600480546001600160a01b0319169091179055610153565b5f80546001600160a01b038381166001600160a01b0319831681178455604051919092169283917f8be0079c531659141344cd1fd0a4f28419497f9722a3daafe3b4186f6b6457e09190a35050565b5f60208284031215610136575f5ffd5b81516001600160a01b038116811461014c575f5ffd5b9392505050565b610bce806101605f395ff3fe608060405234801561000f575f5ffd5b50600436106100cf575f3560e01c8063a2064f451161007d578063eec6b91e11610058578063eec6b91e146101c6578063f2fde38b146101d9578063f95baf26146101ec575f5ffd5b8063a2064f451461015c578063affd8db01461019d578063ddcca4e1146101b0575f5ffd5b80638ec67e40116100ad5780638ec67e401461011d5780639636f67c14610130578063980c407914610145575f5ffd5b8063715018a6146100d357806379502c55146100dd5780638da5cb5b1461010d575b5f5ffd5b6100db61020e565b005b6004546100f0906001600160a01b031681565b6040516001600160a01b0390911681526020015b60405180910390f35b5f546001600160a01b03166100f0565b6100db61012b3660046109e8565b610221565b610138610236565b6040516101049190610a4b565b61014e60035481565b604051908152602001610104565b61018d61016a3660046109e8565b6001600160a01b03165f9081526001602081905260409091205460ff1615151490565b6040519015158152602001610104565b6100db6101ab366004610a5d565b610296565b6101b861056c565b604051610104929190610a96565b6100f06101d4366004610aee565b6108f0565b6100db6101e73660046109e8565b610918565b61018d6101fa3660046109e8565b60016020525f908152604090205460ff1681565b610216610952565b61021f5f61097e565b565b610229610952565b610233815f610296565b50565b6060600280548060200260200160405190810160405280929190818152602001828054801561028c57602002820191905f5260205f20905b81546001600160a01b0316815260019091019060200180831161026e575b5050505050905090565b61029e610952565b80156103ac576001600160a01b0382165f9081526001602081905260409091205460ff16151590036103175760405162461bcd60e51b815260206004820152601160248201527f616c7265616479206e6f6d696e6174656400000000000000000000000000000060448201526064015b60405180910390fd5b6001600160a01b0382165f818152600160208190526040808320805460ff1916831790556002805480840182559084527f405787fa12a823e0f2b7631cc41b3ba8828b3321ca811111fa75cd3aa3bb5ace0180546001600160a01b0319168517905560038054909201909155517f0c20edab5f0aae928e069b742fcb70692c69c06d5cb6bfff526bba9cf3fbe33f9190a25050565b6001600160a01b0382165f9081526001602052604081205460ff16151590036104175760405162461bcd60e51b815260206004820152600d60248201527f6e6f74206e6f6d696e6174656400000000000000000000000000000000000000604482015260640161030e565b6001600160a01b0382165f908152600160205260408120805460ff19169055600254905b8181101561052a57836001600160a01b03166002828154811061046057610460610b05565b5f918252602090912001546001600160a01b031603610522576002610486600184610b2d565b8154811061049657610496610b05565b5f91825260209091200154600280546001600160a01b0390921691839081106104c1576104c1610b05565b905f5260205f20015f6101000a8154816001600160a01b0302191690836001600160a01b0316021790555060028054806104fd576104fd610b46565b5f8281526020902081015f1990810180546001600160a01b031916905501905561052a565b60010161043b565b50600380545f190190556040516001600160a01b038416907f8f409e6d2a5a71ccff16036ebcb0b30a2afe9bd0dcfb4fe255c646fa86b6107a905f90a2505050565b6060805181905f819003610597575050604080515f8082526020820190815281830190925292909150565b5f8167ffffffffffffffff8111156105b1576105b1610b5a565b6040519080825280602002602001820160405280156105da578160200160208202803683370190505b5090505f8267ffffffffffffffff8111156105f7576105f7610b5a565b604051908082528060200260200182016040528015610620578160200160208202803683370190505b5090505f5b838110156107265785818151811061063f5761063f610b05565b602002602001015183828151811061065957610659610b05565b6001600160a01b0392831660209182029290920101526004548751911690639ab24eb09088908490811061068f5761068f610b05565b60200260200101516040518263ffffffff1660e01b81526004016106c291906001600160a01b0391909116815260200190565b602060405180830381865afa1580156106dd573d5f5f3e3d5ffd5b505050506040513d601f19601f820116820180604052508101906107019190610b6e565b82828151811061071357610713610b05565b6020908102919091010152600101610625565b505f5b610734600185610b2d565b8110156108e5575f5b60016107498387610b2d565b6107539190610b2d565b8110156108dc5782610766826001610b85565b8151811061077657610776610b05565b602002602001015183828151811061079057610790610b05565b602002602001015110156108d4575f8382815181106107b1576107b1610b05565b60200260200101519050838260016107c99190610b85565b815181106107d9576107d9610b05565b60200260200101518483815181106107f3576107f3610b05565b6020908102919091010152808461080b846001610b85565b8151811061081b5761081b610b05565b6020026020010181815250505f85838151811061083a5761083a610b05565b60200260200101519050858360016108529190610b85565b8151811061086257610862610b05565b602002602001015186848151811061087c5761087c610b05565b6001600160a01b039092166020928302919091019091015280866108a1856001610b85565b815181106108b1576108b1610b05565b60200260200101906001600160a01b031690816001600160a01b03168152505050505b60010161073d565b50600101610729565b509094909350915050565b600281815481106108ff575f80fd5b5f918252602090912001546001600160a01b0316905081565b610920610952565b6001600160a01b03811661094957604051631e4fbdf760e01b81525f600482015260240161030e565b6102338161097e565b5f546001600160a01b0316331461021f5760405163118cdaa760e01b815233600482015260240161030e565b5f80546001600160a01b038381166001600160a01b0319831681178455604051919092169283917f8be0079c531659141344cd1fd0a4f28419497f9722a3daafe3b4186f6b6457e09190a35050565b80356001600160a01b03811681146109e3575f5ffd5b919050565b5f602082840312156109f8575f5ffd5b610a01826109cd565b9392505050565b5f8151808452602084019350602083015f5b82811015610a415781516001600160a01b0316865260209586019590910190600101610a1a565b5093949350505050565b602081525f610a016020830184610a08565b5f5f60408385031215610a6e575f5ffd5b610a77836109cd565b915060208301358015158114610a8b575f5ffd5b809150509250929050565b604081525f610aa86040830185610a08565b82810360208401528084518083526020830191506020860192505f5b81811015610ae2578351835260209384019390920191600101610ac4565b50909695505050505050565b5f60208284031215610afe575f5ffd5b5035919050565b634e487b7160e01b5f52603260045260245ffd5b634e487b7160e01b5f52601160045260245ffd5b81810381811115610b4057610b40610b19565b92915050565b634e487b7160e01b5f52603160045260245ffd5b634e487b7160e01b5f52604160045260245ffd5b5f60208284031215610b7e575f5ffd5b5051919050565b80820180821115610b4057610b40610b1956fea2646970667358221220554423a2f14f70f2bdf0f4b6d0d1db67f39783d46089cf3987f2f1ed3fb8b0aa64736f6c634300081e0033","linkReferences":{}},"methodIdentifiers":{"config()":"79502c55","getNomineeRanking()":"ddcca4e1","getNominees()":"9636f67c","isNominee(address)":"a2064f45","nominate(address,bool)":"affd8db0","nominations(address)":"f95baf26","nominees(uint256)":"eec6b91e","nomineesCount()":"980c4079","owner()":"8da5cb5b","renounceOwnership()":"715018a6","revokeNomination(address)":"8ec67e40","transferOwnership(address)":"f2fde38b"},"id":221}