{"abi":[{"type":"constructor","inputs":[],"stateMutability":"nonpayable"},{"type":"function","name":"getNominees","inputs":[],"outputs":[{"name":"","type":"address[]","internalType":"address[]"}],"stateMutability":"view"},{"type":"function","name":"isNominee","inputs":[{"name":"account","type":"address","internalType":"address"}],"outputs":[{"name":"","type":"bool","internalType":"bool"}],"stateMutability":"view"},{"type":"function","name":"nominate","inputs":[{"name":"nominee","type":"address","internalType":"address"},{"name":"shouldNominate","type":"bool","internalType":"bool"}],"outputs":[],"stateMutability":"nonpayable"},{"type":"function","name":"nominations","inputs":[{"name":"nominee","type":"address","internalType":"address"}],"outputs":[{"name":"nominated","type":"bool","internalType":"bool"}],"stateMutability":"view"},{"type":"function","name":"nominees","inputs":[{"name":"","type":"uint256","internalType":"uint256"}],"outputs":[{"name":"","type":"address","internalType":"address"}],"stateMutability":"view"},{"type":"function","name":"nomineesCount","inputs":[],"outputs":[{"name":"","type":"uint256","internalType":"uint256"}],"stateMutability":"view"},{"type":"function","name":"owner","inputs":[],"outputs":[{"name":"","type":"address","internalType":"address"}],"stateMutability":"view"},{"type":"function","name":"renounceOwnership","inputs":[],"outputs":[],"stateMutability":"nonpayable"},{"type":"function","name":"revokeNomination","inputs":[{"name":"nominee","type":"address","internalType":"address"}],"outputs":[],"stateMutability":"nonpayable"},{"type":"function","name":"transferOwnership","inputs":[{"name":"newOwner","type":"address","internalType":"address"}],"outputs":[],"stateMutability":"nonpayable"},{"type":"event","name":"NominationReceived","inputs":[{"name":"nominee","type":"address","indexed":true,"internalType":"address"}],"anonymous":false},{"type":"event","name":"NominationRevoked","inputs":[{"name":"nominee","type":"address","indexed":true,"internalType":"address"}],"anonymous":false},{"type":"event","name":"OwnershipTransferred","inputs":[{"name":"previousOwner","type":"address","indexed":true,"internalType":"address"},{"name":"newOwner","type":"address","indexed":true,"internalType":"address"}],"anonymous":false},{"type":"error","name":"OwnableInvalidOwner","inputs":[{"name":"owner","type":"address","internalType":"address"}]},{"type":"error","name":"OwnableUnauthorizedAccount","inputs":[{"name":"account","type":"address","internalType":"address"}]}],"bytecode":{"object":"0x6080604052348015600e575f5ffd5b503380603357604051631e4fbdf760e01b81525f600482015260240160405180910390fd5b603a81603f565b50608e565b5f80546001600160a01b038381166001600160a01b0319831681178455604051919092169283917f8be0079c531659141344cd1fd0a4f28419497f9722a3daafe3b4186f6b6457e09190a35050565b61075f8061009b5f395ff3fe608060405234801561000f575f5ffd5b50600436106100b9575f3560e01c8063a2064f4511610072578063eec6b91e11610058578063eec6b91e14610183578063f2fde38b14610196578063f95baf26146101a9575f5ffd5b8063a2064f451461012f578063affd8db014610170575f5ffd5b80638ec67e40116100a25780638ec67e40146100f05780639636f67c14610103578063980c407914610118575f5ffd5b8063715018a6146100bd5780638da5cb5b146100c7575b5f5ffd5b6100c56101cb565b005b5f546001600160a01b03165b6040516001600160a01b0390911681526020015b60405180910390f35b6100c56100fe366004610621565b6101de565b61010b6101f3565b6040516100e79190610641565b61012160035481565b6040519081526020016100e7565b61016061013d366004610621565b6001600160a01b03165f9081526001602081905260409091205460ff1615151490565b60405190151581526020016100e7565b6100c561017e36600461068c565b610253565b6100d36101913660046106c5565b610529565b6100c56101a4366004610621565b610551565b6101606101b7366004610621565b60016020525f908152604090205460ff1681565b6101d361058b565b6101dc5f6105b7565b565b6101e661058b565b6101f0815f610253565b50565b6060600280548060200260200160405190810160405280929190818152602001828054801561024957602002820191905f5260205f20905b81546001600160a01b0316815260019091019060200180831161022b575b5050505050905090565b61025b61058b565b8015610369576001600160a01b0382165f9081526001602081905260409091205460ff16151590036102d45760405162461bcd60e51b815260206004820152601160248201527f616c7265616479206e6f6d696e6174656400000000000000000000000000000060448201526064015b60405180910390fd5b6001600160a01b0382165f818152600160208190526040808320805460ff1916831790556002805480840182559084527f405787fa12a823e0f2b7631cc41b3ba8828b3321ca811111fa75cd3aa3bb5ace0180546001600160a01b0319168517905560038054909201909155517f0c20edab5f0aae928e069b742fcb70692c69c06d5cb6bfff526bba9cf3fbe33f9190a25050565b6001600160a01b0382165f9081526001602052604081205460ff16151590036103d45760405162461bcd60e51b815260206004820152600d60248201527f6e6f74206e6f6d696e617465640000000000000000000000000000000000000060448201526064016102cb565b6001600160a01b0382165f908152600160205260408120805460ff19169055600254905b818110156104e757836001600160a01b03166002828154811061041d5761041d6106dc565b5f918252602090912001546001600160a01b0316036104df5760026104436001846106f0565b81548110610453576104536106dc565b5f91825260209091200154600280546001600160a01b03909216918390811061047e5761047e6106dc565b905f5260205f20015f6101000a8154816001600160a01b0302191690836001600160a01b0316021790555060028054806104ba576104ba610715565b5f8281526020902081015f1990810180546001600160a01b03191690550190556104e7565b6001016103f8565b50600380545f190190556040516001600160a01b038416907f8f409e6d2a5a71ccff16036ebcb0b30a2afe9bd0dcfb4fe255c646fa86b6107a905f90a2505050565b60028181548110610538575f80fd5b5f918252602090912001546001600160a01b0316905081565b61055961058b565b6001600160a01b03811661058257604051631e4fbdf760e01b81525f60048201526024016102cb565b6101f0816105b7565b5f546001600160a01b031633146101dc5760405163118cdaa760e01b81523360048201526024016102cb565b5f80546001600160a01b038381166001600160a01b0319831681178455604051919092169283917f8be0079c531659141344cd1fd0a4f28419497f9722a3daafe3b4186f6b6457e09190a35050565b80356001600160a01b038116811461061c575f5ffd5b919050565b5f60208284031215610631575f5ffd5b61063a82610606565b9392505050565b602080825282518282018190525f918401906040840190835b818110156106815783516001600160a01b031683526020938401939092019160010161065a565b509095945050505050565b5f5f6040838503121561069d575f5ffd5b6106a683610606565b9150602083013580151581146106ba575f5ffd5b809150509250929050565b5f602082840312156106d5575f5ffd5b5035919050565b634e487b7160e01b5f52603260045260245ffd5b8181038181111561070f57634e487b7160e01b5f52601160045260245ffd5b92915050565b634e487b7160e01b5f52603160045260245ffdfea2646970667358221220b4ab0519451d2fa16d0241e4cb268ac270a2002e7c14d9483fc68322851ff2f264736f6c634300081e0033","linkReferences":{}},"methodIdentifiers":{"getNominees()":"9636f67c","isNominee(address)":"a2064f45","nominate(address,bool)":"affd8db0","nominations(address)":"f95baf26","nominees(uint256)":"eec6b91e","nomineesCount()":"980c4079","owner()":"8da5cb5b","renounceOwnership()":"715018a6","revokeNomination(address)":"8ec67e40","transferOwnership(address)":"f2fde38b"},"id":131}