{"abi":[{"type":"constructor","inputs":[],"stateMutability":"nonpayable"},{"type":"function","name":"closeElection","inputs":[],"outputs":[],"stateMutability":"nonpayable"},{"type":"function","name":"currentElection","inputs":[],"outputs":[{"name":"isOpen","type":"bool","internalType":"bool"},{"name":"startBlock","type":"uint256","internalType":"uint256"},{"name":"durationBlocks","type":"uint256","internalType":"uint256"},{"name":"endBlock","type":"uint256","internalType":"uint256"}],"stateMutability":"view"},{"type":"function","name":"currentElectionId","inputs":[],"outputs":[{"name":"","type":"uint256","internalType":"uint256"}],"stateMutability":"view"},{"type":"function","name":"getElectionInfo","inputs":[],"outputs":[{"name":"","type":"tuple","internalType":"struct OpenElection.Data","components":[{"name":"isOpen","type":"bool","internalType":"bool"},{"name":"startBlock","type":"uint256","internalType":"uint256"},{"name":"durationBlocks","type":"uint256","internalType":"uint256"},{"name":"endBlock","type":"uint256","internalType":"uint256"}]}],"stateMutability":"view"},{"type":"function","name":"getNomineeRanking","inputs":[],"outputs":[{"name":"nominees","type":"address[]","internalType":"address[]"},{"name":"votes","type":"uint256[]","internalType":"uint256[]"}],"stateMutability":"view"},{"type":"function","name":"getNominees","inputs":[],"outputs":[{"name":"","type":"address[]","internalType":"address[]"}],"stateMutability":"view"},{"type":"function","name":"getNomineesForElection","inputs":[{"name":"electionId","type":"uint256","internalType":"uint256"}],"outputs":[{"name":"","type":"address[]","internalType":"address[]"}],"stateMutability":"view"},{"type":"function","name":"getRankingAnyTime","inputs":[{"name":"electionId","type":"uint256","internalType":"uint256"}],"outputs":[{"name":"nominees","type":"address[]","internalType":"address[]"},{"name":"votes","type":"uint256[]","internalType":"uint256[]"}],"stateMutability":"view"},{"type":"function","name":"getVoteCount","inputs":[{"name":"nominee","type":"address","internalType":"address"},{"name":"electionId","type":"uint256","internalType":"uint256"}],"outputs":[{"name":"","type":"uint256","internalType":"uint256"}],"stateMutability":"view"},{"type":"function","name":"hasUserVoted","inputs":[{"name":"voter","type":"address","internalType":"address"},{"name":"electionId","type":"uint256","internalType":"uint256"}],"outputs":[{"name":"","type":"bool","internalType":"bool"}],"stateMutability":"view"},{"type":"function","name":"hasVoted","inputs":[{"name":"electionId","type":"uint256","internalType":"uint256"},{"name":"voter","type":"address","internalType":"address"}],"outputs":[{"name":"hasVoted","type":"bool","internalType":"bool"}],"stateMutability":"view"},{"type":"function","name":"isElectionOpen","inputs":[],"outputs":[{"name":"","type":"bool","internalType":"bool"}],"stateMutability":"view"},{"type":"function","name":"isNominee","inputs":[{"name":"account","type":"address","internalType":"address"}],"outputs":[{"name":"","type":"bool","internalType":"bool"}],"stateMutability":"view"},{"type":"function","name":"nominate","inputs":[{"name":"nominee","type":"address","internalType":"address"},{"name":"shouldNominate","type":"bool","internalType":"bool"}],"outputs":[],"stateMutability":"nonpayable"},{"type":"function","name":"nominations","inputs":[{"name":"nominee","type":"address","internalType":"address"}],"outputs":[{"name":"nominated","type":"bool","internalType":"bool"}],"stateMutability":"view"},{"type":"function","name":"nomineesByElection","inputs":[{"name":"electionId","type":"uint256","internalType":"uint256"},{"name":"","type":"uint256","internalType":"uint256"}],"outputs":[{"name":"","type":"address","internalType":"address"}],"stateMutability":"view"},{"type":"function","name":"nomineesCount","inputs":[],"outputs":[{"name":"","type":"uint256","internalType":"uint256"}],"stateMutability":"view"},{"type":"function","name":"nomineesSorted","inputs":[{"name":"","type":"uint256","internalType":"uint256"}],"outputs":[{"name":"","type":"address","internalType":"address"}],"stateMutability":"view"},{"type":"function","name":"openElection","inputs":[{"name":"durationBlocks","type":"uint256","internalType":"uint256"},{"name":"electionId","type":"uint16","internalType":"uint16"}],"outputs":[],"stateMutability":"nonpayable"},{"type":"function","name":"owner","inputs":[],"outputs":[{"name":"","type":"address","internalType":"address"}],"stateMutability":"view"},{"type":"function","name":"renounceOwnership","inputs":[],"outputs":[],"stateMutability":"nonpayable"},{"type":"function","name":"transferOwnership","inputs":[{"name":"newOwner","type":"address","internalType":"address"}],"outputs":[],"stateMutability":"nonpayable"},{"type":"function","name":"vote","inputs":[{"name":"caller","type":"address","internalType":"address"},{"name":"votes","type":"bool[]","internalType":"bool[]"}],"outputs":[],"stateMutability":"nonpayable"},{"type":"function","name":"voteCounts","inputs":[{"name":"electionId","type":"uint256","internalType":"uint256"},{"name":"nominee","type":"address","internalType":"address"}],"outputs":[{"name":"voteCount","type":"uint256","internalType":"uint256"}],"stateMutability":"view"},{"type":"event","name":"ElectionClosed","inputs":[{"name":"electionId","type":"uint256","indexed":true,"internalType":"uint256"}],"anonymous":false},{"type":"event","name":"ElectionOpened","inputs":[{"name":"electionId","type":"uint256","indexed":true,"internalType":"uint256"},{"name":"startBlock","type":"uint256","indexed":false,"internalType":"uint256"},{"name":"endBlock","type":"uint256","indexed":false,"internalType":"uint256"}],"anonymous":false},{"type":"event","name":"ElectionTallied","inputs":[{"name":"rankedNominees","type":"address[]","indexed":false,"internalType":"address[]"},{"name":"votes","type":"uint256[]","indexed":false,"internalType":"uint256[]"}],"anonymous":false},{"type":"event","name":"NominationReceived","inputs":[{"name":"nominee","type":"address","indexed":true,"internalType":"address"}],"anonymous":false},{"type":"event","name":"NominationRevoked","inputs":[{"name":"nominee","type":"address","indexed":true,"internalType":"address"}],"anonymous":false},{"type":"event","name":"OwnershipTransferred","inputs":[{"name":"previousOwner","type":"address","indexed":true,"internalType":"address"},{"name":"newOwner","type":"address","indexed":true,"internalType":"address"}],"anonymous":false},{"type":"event","name":"VoteCast","inputs":[{"name":"voter","type":"address","indexed":true,"internalType":"address"},{"name":"nominee","type":"address","indexed":true,"internalType":"address"},{"name":"electionId","type":"uint256","indexed":false,"internalType":"uint256"}],"anonymous":false},{"type":"error","name":"OwnableInvalidOwner","inputs":[{"name":"owner","type":"address","internalType":"address"}]},{"type":"error","name":"OwnableUnauthorizedAccount","inputs":[{"name":"account","type":"address","internalType":"address"}]}],"bytecode":{"object":"0x6080604052348015600e575f80fd5b503380603357604051631e4fbdf760e01b81525f600482015260240160405180910390fd5b603a81603f565b50608e565b5f80546001600160a01b038381166001600160a01b0319831681178455604051919092169283917f8be0079c531659141344cd1fd0a4f28419497f9722a3daafe3b4186f6b6457e09190a35050565b6117f08061009b5f395ff3fe608060405234801561000f575f80fd5b506004361061018e575f3560e01c8063968bf0ae116100dd578063affd8db011610088578063f2fde38b11610063578063f2fde38b146103c8578063f95baf26146103db578063fcae83a7146103fd575f80fd5b8063affd8db014610376578063d46f96ed14610389578063ddcca4e1146103c0575f80fd5b806398ecf2a0116100b857806398ecf2a01461031b5780639ec6526314610324578063a2064f4514610345575f80fd5b8063968bf0ae146102ec57806397f48449146102ff578063980c407914610312575f80fd5b80636c6c32d01161013d57806386852dca1161011857806386852dca1461028a5780638da5cb5b146102c75780639636f67c146102d7575f80fd5b80636c6c32d0146102725780636f2cd40d1461027a578063715018a614610282575f80fd5b806325b6bec71161016d57806325b6bec7146101ea578063438596321461020b57806361ea202714610248575f80fd5b8062bc8736146101925780630e5a3b29146101c257806310253227146101d7575b5f80fd5b6101a56101a03660046114ce565b610438565b6040516001600160a01b0390911681526020015b60405180910390f35b6101d56101d0366004611509565b61046c565b005b6101a56101e536600461158a565b61076c565b6101fd6101f83660046115a1565b610794565b6040519081526020016101b9565b6102386102193660046115c9565b600860209081525f928352604080842090915290825290205460ff1681565b60405190151581526020016101b9565b6101fd6102563660046115c9565b600960209081525f928352604080842090915290825290205481565b6101d56107bd565b610238610893565b6101d56108ae565b6102926108c1565b6040516101b9919081511515815260208083015190820152604080830151908201526060918201519181019190915260800190565b5f546001600160a01b03166101a5565b6102df61091c565b6040516101b99190611636565b6102df6102fa36600461158a565b61097c565b6101d561030d36600461164f565b6109e5565b6101fd60035481565b6101fd600b5481565b61033761033236600461158a565b610c2a565b6040516101b9929190611683565b6102386103533660046116db565b6001600160a01b03165f9081526001602081905260409091205460ff1615151490565b6101d5610384366004611703565b610fdc565b6102386103973660046115a1565b5f9081526008602090815260408083206001600160a01b03949094168352929052205460ff1690565b610337611054565b6101d56103d63660046116db565b6110ce565b6102386103e93660046116db565b60016020525f908152604090205460ff1681565b6004546005546006546007546104169360ff1692919084565b60408051941515855260208501939093529183015260608201526080016101b9565b600a602052815f5260405f208181548110610451575f80fd5b5f918252602090912001546001600160a01b03169150829050565b61047461110b565b60045460ff166104bf5760405162461bcd60e51b815260206004820152601160248201527032b632b1ba34b7b7103737ba1037b832b760791b60448201526064015b60405180910390fd5b6007544311156105115760405162461bcd60e51b815260206004820152600f60248201527f656c656374696f6e20636c6f736564000000000000000000000000000000000060448201526064016104b6565b600b545f9081526008602090815260408083206001600160a01b038716845290915290205460ff16156105865760405162461bcd60e51b815260206004820152600d60248201527f616c726561647920766f7465640000000000000000000000000000000000000060448201526064016104b6565b600b545f908152600a60209081526040808320805482518185028101850190935280835291929091908301828280156105e657602002820191905f5260205f20905b81546001600160a01b031681526001909101906020018083116105c8575b50505050509050805183839050146106405760405162461bcd60e51b815260206004820152601b60248201527f766f746573206172726179206c656e677468206d69736d61746368000000000060448201526064016104b6565b600b545f9081526008602090815260408083206001600160a01b03881684529091528120805460ff191660011790555b828110156107655783838281811061068a5761068a61172b565b905060200201602081019061069f919061173f565b1561075d575f8282815181106106b7576106b761172b565b60200260200101519050600160095f600b5481526020019081526020015f205f836001600160a01b03166001600160a01b031681526020019081526020015f205f828254610705919061176c565b92505081905550806001600160a01b0316866001600160a01b03167f484413c33463e7d976e3ded2a85b0c31610d0906977df2cd9cbd6d12a6872a84600b5460405161075391815260200190565b60405180910390a3505b600101610670565b5050505050565b6002818154811061077b575f80fd5b5f918252602090912001546001600160a01b0316905081565b5f8181526009602090815260408083206001600160a01b03861684529091529020545b92915050565b6107c561110b565b60045460ff1661080b5760405162461bcd60e51b815260206004820152601160248201527032b632b1ba34b7b7103737ba1037b832b760791b60448201526064016104b6565b600754431161085c5760405162461bcd60e51b815260206004820152601560248201527f656c656374696f6e207374696c6c20616374697665000000000000000000000060448201526064016104b6565b6004805460ff19169055600b546040517f393c4b8e62f1195313cf17dcf00793c668ddfc35881cd8015559c074f6d61e83905f90a2565b6004545f9060ff1680156108a957506007544311155b905090565b6108b661110b565b6108bf5f611137565b565b6108ea60405180608001604052805f151581526020015f81526020015f81526020015f81525090565b506040805160808101825260045460ff1615158152600554602082015260065491810191909152600754606082015290565b6060600280548060200260200160405190810160405280929190818152602001828054801561097257602002820191905f5260205f20905b81546001600160a01b03168152600190910190602001808311610954575b5050505050905090565b5f818152600a60209081526040918290208054835181840281018401909452808452606093928301828280156109d957602002820191905f5260205f20905b81546001600160a01b031681526001909101906020018083116109bb575b50505050509050919050565b6109ed61110b565b60045460ff1615610a405760405162461bcd60e51b815260206004820152601560248201527f656c656374696f6e20616c7265616479206f70656e000000000000000000000060448201526064016104b6565b815f03610a8f5760405162461bcd60e51b815260206004820152601460248201527f6475726174696f6e206d757374206265203e203000000000000000000000000060448201526064016104b6565b61ffff8116600b5560025467ffffffffffffffff811115610ab257610ab261177f565b604051908082528060200260200182016040528015610adb578160200160208202803683370190505b50600a5f600b5481526020019081526020015f209080519060200190610b02929190611457565b505f5b600254811015610b8c5760028181548110610b2257610b2261172b565b5f918252602080832090910154600b548352600a909152604090912080546001600160a01b039092169183908110610b5c57610b5c61172b565b5f91825260209091200180546001600160a01b0319166001600160a01b0392909216919091179055600101610b05565b5060405180608001604052806001151581526020014381526020018381526020018343610bb9919061176c565b905280516004805460ff191691151591909117905560208082015160058190556040808401516006556060909301516007819055600b5484519283529282015290917f42ab381b5d38e36a258e4f6143e25be23cbabe46426fb0cfb2c8e98c9f00ecf5910160405180910390a25050565b6060805f600a5f8581526020019081526020015f20805480602002602001604051908101604052809291908181526020018280548015610c9157602002820191905f5260205f20905b81546001600160a01b03168152600190910190602001808311610c73575b505050505090505f81519050805f03610cc4575050604080515f8082526020820190815281830190925294909350915050565b8067ffffffffffffffff811115610cdd57610cdd61177f565b604051908082528060200260200182016040528015610d06578160200160208202803683370190505b5093508067ffffffffffffffff811115610d2257610d2261177f565b604051908082528060200260200182016040528015610d4b578160200160208202803683370190505b5092505f5b81811015610e1557828181518110610d6a57610d6a61172b565b6020026020010151858281518110610d8457610d8461172b565b60200260200101906001600160a01b031690816001600160a01b03168152505060095f8781526020019081526020015f205f848381518110610dc857610dc861172b565b60200260200101516001600160a01b03166001600160a01b031681526020019081526020015f2054848281518110610e0257610e0261172b565b6020908102919091010152600101610d50565b505f5b610e23600183611793565b811015610fd4575f5b6001610e388385611793565b610e429190611793565b811015610fcb5784610e5582600161176c565b81518110610e6557610e6561172b565b6020026020010151858281518110610e7f57610e7f61172b565b60200260200101511015610fc3575f858281518110610ea057610ea061172b565b6020026020010151905085826001610eb8919061176c565b81518110610ec857610ec861172b565b6020026020010151868381518110610ee257610ee261172b565b60209081029190910101528086610efa84600161176c565b81518110610f0a57610f0a61172b565b6020026020010181815250505f878381518110610f2957610f2961172b565b6020026020010151905087836001610f41919061176c565b81518110610f5157610f5161172b565b6020026020010151888481518110610f6b57610f6b61172b565b6001600160a01b03909216602092830291909101909101528088610f9085600161176c565b81518110610fa057610fa061172b565b60200260200101906001600160a01b031690816001600160a01b03168152505050505b600101610e2c565b50600101610e18565b505050915091565b610fe461110b565b60045460ff16156110465760405162461bcd60e51b815260206004820152602660248201527f63616e6e6f74206e6f6d696e61746520647572696e672061637469766520656c60448201526532b1ba34b7b760d11b60648201526084016104b6565b6110508282611186565b5050565b600454606090819060ff16801561106d57506007544311155b156110ba5760405162461bcd60e51b815260206004820152601560248201527f656c656374696f6e207374696c6c20616374697665000000000000000000000060448201526064016104b6565b6110c5600b54610c2a565b90939092509050565b6110d661110b565b6001600160a01b0381166110ff57604051631e4fbdf760e01b81525f60048201526024016104b6565b61110881611137565b50565b5f546001600160a01b031633146108bf5760405163118cdaa760e01b81523360048201526024016104b6565b5f80546001600160a01b038381166001600160a01b0319831681178455604051919092169283917f8be0079c531659141344cd1fd0a4f28419497f9722a3daafe3b4186f6b6457e09190a35050565b61118e61110b565b8015611297576001600160a01b0382165f9081526001602081905260409091205460ff16151590036112025760405162461bcd60e51b815260206004820152601160248201527f616c7265616479206e6f6d696e6174656400000000000000000000000000000060448201526064016104b6565b6001600160a01b0382165f818152600160208190526040808320805460ff1916831790556002805480840182559084527f405787fa12a823e0f2b7631cc41b3ba8828b3321ca811111fa75cd3aa3bb5ace0180546001600160a01b0319168517905560038054909201909155517f0c20edab5f0aae928e069b742fcb70692c69c06d5cb6bfff526bba9cf3fbe33f9190a25050565b6001600160a01b0382165f9081526001602052604081205460ff16151590036113025760405162461bcd60e51b815260206004820152600d60248201527f6e6f74206e6f6d696e617465640000000000000000000000000000000000000060448201526064016104b6565b6001600160a01b0382165f908152600160205260408120805460ff19169055600254905b8181101561141557836001600160a01b03166002828154811061134b5761134b61172b565b5f918252602090912001546001600160a01b03160361140d576002611371600184611793565b815481106113815761138161172b565b5f91825260209091200154600280546001600160a01b0390921691839081106113ac576113ac61172b565b905f5260205f20015f6101000a8154816001600160a01b0302191690836001600160a01b0316021790555060028054806113e8576113e86117a6565b5f8281526020902081015f1990810180546001600160a01b0319169055019055611415565b600101611326565b50600380545f190190556040516001600160a01b038416907f8f409e6d2a5a71ccff16036ebcb0b30a2afe9bd0dcfb4fe255c646fa86b6107a905f90a2505050565b828054828255905f5260205f209081019282156114aa579160200282015b828111156114aa57825182546001600160a01b0319166001600160a01b03909116178255602090920191600190910190611475565b506114b69291506114ba565b5090565b5b808211156114b6575f81556001016114bb565b5f80604083850312156114df575f80fd5b50508035926020909101359150565b80356001600160a01b0381168114611504575f80fd5b919050565b5f805f6040848603121561151b575f80fd5b611524846114ee565b9250602084013567ffffffffffffffff81111561153f575f80fd5b8401601f8101861361154f575f80fd5b803567ffffffffffffffff811115611565575f80fd5b8660208260051b8401011115611579575f80fd5b939660209190910195509293505050565b5f6020828403121561159a575f80fd5b5035919050565b5f80604083850312156115b2575f80fd5b6115bb836114ee565b946020939093013593505050565b5f80604083850312156115da575f80fd5b823591506115ea602084016114ee565b90509250929050565b5f8151808452602084019350602083015f5b8281101561162c5781516001600160a01b0316865260209586019590910190600101611605565b5093949350505050565b602081525f61164860208301846115f3565b9392505050565b5f8060408385031215611660575f80fd5b82359150602083013561ffff81168114611678575f80fd5b809150509250929050565b604081525f61169560408301856115f3565b82810360208401528084518083526020830191506020860192505f5b818110156116cf5783518352602093840193909201916001016116b1565b50909695505050505050565b5f602082840312156116eb575f80fd5b611648826114ee565b80358015158114611504575f80fd5b5f8060408385031215611714575f80fd5b61171d836114ee565b91506115ea602084016116f4565b634e487b7160e01b5f52603260045260245ffd5b5f6020828403121561174f575f80fd5b611648826116f4565b634e487b7160e01b5f52601160045260245ffd5b808201808211156107b7576107b7611758565b634e487b7160e01b5f52604160045260245ffd5b818103818111156107b7576107b7611758565b634e487b7160e01b5f52603160045260245ffdfea2646970667358221220f5f75460be719521de2293eac8f2098e6787fa83ad1b82eb6262bcee5a3f5fda64736f6c634300081a0033","linkReferences":{}},"methodIdentifiers":{"closeElection()":"6c6c32d0","currentElection()":"fcae83a7","currentElectionId()":"98ecf2a0","getElectionInfo()":"86852dca","getNomineeRanking()":"ddcca4e1","getNominees()":"9636f67c","getNomineesForElection(uint256)":"968bf0ae","getRankingAnyTime(uint256)":"9ec65263","getVoteCount(address,uint256)":"25b6bec7","hasUserVoted(address,uint256)":"d46f96ed","hasVoted(uint256,address)":"43859632","isElectionOpen()":"6f2cd40d","isNominee(address)":"a2064f45","nominate(address,bool)":"affd8db0","nominations(address)":"f95baf26","nomineesByElection(uint256,uint256)":"00bc8736","nomineesCount()":"980c4079","nomineesSorted(uint256)":"10253227","openElection(uint256,uint16)":"97f48449","owner()":"8da5cb5b","renounceOwnership()":"715018a6","transferOwnership(address)":"f2fde38b","vote(address,bool[])":"0e5a3b29","voteCounts(uint256,address)":"61ea2027"},"id":129}