{"abi":[{"type":"constructor","inputs":[{"name":"name_","type":"string","internalType":"string"},{"name":"uri_","type":"string","internalType":"string"},{"name":"maxCallDataLength_","type":"uint256","internalType":"uint256"},{"name":"maxReturnDataLength_","type":"uint256","internalType":"uint256"},{"name":"maxExecutionsLength_","type":"uint256","internalType":"uint256"}],"stateMutability":"payable"},{"type":"receive","stateMutability":"payable"},{"type":"function","name":"ADMIN_ROLE","inputs":[],"outputs":[{"name":"","type":"uint256","internalType":"uint256"}],"stateMutability":"view"},{"type":"function","name":"DENOMINATOR","inputs":[],"outputs":[{"name":"","type":"uint256","internalType":"uint256"}],"stateMutability":"view"},{"type":"function","name":"FOUNDED_AT","inputs":[],"outputs":[{"name":"","type":"uint256","internalType":"uint256"}],"stateMutability":"view"},{"type":"function","name":"MAX_CALLDATA_LENGTH","inputs":[],"outputs":[{"name":"","type":"uint256","internalType":"uint256"}],"stateMutability":"view"},{"type":"function","name":"MAX_EXECUTIONS_LENGTH","inputs":[],"outputs":[{"name":"","type":"uint256","internalType":"uint256"}],"stateMutability":"view"},{"type":"function","name":"MAX_RETURN_DATA_LENGTH","inputs":[],"outputs":[{"name":"","type":"uint256","internalType":"uint256"}],"stateMutability":"view"},{"type":"function","name":"PUBLIC_ROLE","inputs":[],"outputs":[{"name":"","type":"uint256","internalType":"uint256"}],"stateMutability":"view"},{"type":"function","name":"addFlow","inputs":[{"name":"flow","type":"tuple","internalType":"struct PowersTypes.Flow","components":[{"name":"mandateIds","type":"uint16[]","internalType":"uint16[]"},{"name":"nameDescription","type":"string","internalType":"string"}]}],"outputs":[],"stateMutability":"nonpayable"},{"type":"function","name":"adoptMandate","inputs":[{"name":"mandateInitData","type":"tuple","internalType":"struct PowersTypes.MandateInitData","components":[{"name":"nameDescription","type":"string","internalType":"string"},{"name":"targetMandate","type":"address","internalType":"address"},{"name":"config","type":"bytes","internalType":"bytes"},{"name":"conditions","type":"tuple","internalType":"struct PowersTypes.Conditions","components":[{"name":"allowedRole","type":"uint256","internalType":"uint256"},{"name":"votingPeriod","type":"uint32","internalType":"uint32"},{"name":"timelock","type":"uint32","internalType":"uint32"},{"name":"throttleExecution","type":"uint32","internalType":"uint32"},{"name":"needFulfilled","type":"uint16","internalType":"uint16"},{"name":"needNotFulfilled","type":"uint16","internalType":"uint16"},{"name":"quorum","type":"uint8","internalType":"uint8"},{"name":"succeedAt","type":"uint8","internalType":"uint8"}]}]}],"outputs":[{"name":"mandateId","type":"uint16","internalType":"uint16"}],"stateMutability":"nonpayable"},{"type":"function","name":"assignRole","inputs":[{"name":"roleId","type":"uint256","internalType":"uint256"},{"name":"account","type":"address","internalType":"address"}],"outputs":[],"stateMutability":"nonpayable"},{"type":"function","name":"blacklistAddress","inputs":[{"name":"account","type":"address","internalType":"address"},{"name":"blacklisted","type":"bool","internalType":"bool"}],"outputs":[],"stateMutability":"nonpayable"},{"type":"function","name":"canCallMandate","inputs":[{"name":"caller","type":"address","internalType":"address"},{"name":"mandateId","type":"uint16","internalType":"uint16"}],"outputs":[{"name":"","type":"bool","internalType":"bool"}],"stateMutability":"view"},{"type":"function","name":"cancel","inputs":[{"name":"mandateId","type":"uint16","internalType":"uint16"},{"name":"mandateCalldata","type":"bytes","internalType":"bytes"},{"name":"nonce","type":"uint256","internalType":"uint256"}],"outputs":[{"name":"","type":"uint256","internalType":"uint256"}],"stateMutability":"nonpayable"},{"type":"function","name":"castVote","inputs":[{"name":"actionId","type":"uint256","internalType":"uint256"},{"name":"support","type":"uint8","internalType":"uint8"}],"outputs":[],"stateMutability":"nonpayable"},{"type":"function","name":"castVoteWithReason","inputs":[{"name":"actionId","type":"uint256","internalType":"uint256"},{"name":"support","type":"uint8","internalType":"uint8"},{"name":"reason","type":"string","internalType":"string"}],"outputs":[],"stateMutability":"nonpayable"},{"type":"function","name":"closeConstitute","inputs":[],"outputs":[],"stateMutability":"nonpayable"},{"type":"function","name":"closeConstitute","inputs":[{"name":"newAdmin","type":"address","internalType":"address"}],"outputs":[],"stateMutability":"nonpayable"},{"type":"function","name":"closeConstitute","inputs":[{"name":"newAdmin","type":"address","internalType":"address"},{"name":"_flows","type":"tuple[]","internalType":"struct PowersTypes.Flow[]","components":[{"name":"mandateIds","type":"uint16[]","internalType":"uint16[]"},{"name":"nameDescription","type":"string","internalType":"string"}]}],"outputs":[],"stateMutability":"nonpayable"},{"type":"function","name":"constitute","inputs":[{"name":"constituentMandates","type":"tuple[]","internalType":"struct PowersTypes.MandateInitData[]","components":[{"name":"nameDescription","type":"string","internalType":"string"},{"name":"targetMandate","type":"address","internalType":"address"},{"name":"config","type":"bytes","internalType":"bytes"},{"name":"conditions","type":"tuple","internalType":"struct PowersTypes.Conditions","components":[{"name":"allowedRole","type":"uint256","internalType":"uint256"},{"name":"votingPeriod","type":"uint32","internalType":"uint32"},{"name":"timelock","type":"uint32","internalType":"uint32"},{"name":"throttleExecution","type":"uint32","internalType":"uint32"},{"name":"needFulfilled","type":"uint16","internalType":"uint16"},{"name":"needNotFulfilled","type":"uint16","internalType":"uint16"},{"name":"quorum","type":"uint8","internalType":"uint8"},{"name":"succeedAt","type":"uint8","internalType":"uint8"}]}]}],"outputs":[],"stateMutability":"nonpayable"},{"type":"function","name":"editFlowByIndex","inputs":[{"name":"index1","type":"uint8","internalType":"uint8"},{"name":"index2","type":"uint8","internalType":"uint8"},{"name":"mandateId","type":"uint16","internalType":"uint16"}],"outputs":[],"stateMutability":"nonpayable"},{"type":"function","name":"eip712Domain","inputs":[],"outputs":[{"name":"fields","type":"bytes1","internalType":"bytes1"},{"name":"name","type":"string","internalType":"string"},{"name":"version","type":"string","internalType":"string"},{"name":"chainId","type":"uint256","internalType":"uint256"},{"name":"verifyingContract","type":"address","internalType":"address"},{"name":"salt","type":"bytes32","internalType":"bytes32"},{"name":"extensions","type":"uint256[]","internalType":"uint256[]"}],"stateMutability":"view"},{"type":"function","name":"flows","inputs":[{"name":"","type":"uint256","internalType":"uint256"}],"outputs":[{"name":"nameDescription","type":"string","internalType":"string"}],"stateMutability":"view"},{"type":"function","name":"fulfill","inputs":[{"name":"mandateId","type":"uint16","internalType":"uint16"},{"name":"actionId","type":"uint256","internalType":"uint256"},{"name":"targets","type":"address[]","internalType":"address[]"},{"name":"values","type":"uint256[]","internalType":"uint256[]"},{"name":"calldatas","type":"bytes[]","internalType":"bytes[]"}],"outputs":[],"stateMutability":"nonpayable"},{"type":"function","name":"getActionCalldata","inputs":[{"name":"actionId","type":"uint256","internalType":"uint256"}],"outputs":[{"name":"callData","type":"bytes","internalType":"bytes"}],"stateMutability":"view"},{"type":"function","name":"getActionData","inputs":[{"name":"actionId","type":"uint256","internalType":"uint256"}],"outputs":[{"name":"mandateId","type":"uint16","internalType":"uint16"},{"name":"proposedAt","type":"uint48","internalType":"uint48"},{"name":"requestedAt","type":"uint48","internalType":"uint48"},{"name":"fulfilledAt","type":"uint48","internalType":"uint48"},{"name":"cancelledAt","type":"uint48","internalType":"uint48"},{"name":"caller","type":"address","internalType":"address"},{"name":"nonce","type":"uint256","internalType":"uint256"}],"stateMutability":"view"},{"type":"function","name":"getActionReturnData","inputs":[{"name":"actionId","type":"uint256","internalType":"uint256"},{"name":"index","type":"uint256","internalType":"uint256"}],"outputs":[{"name":"returnData","type":"bytes","internalType":"bytes"}],"stateMutability":"view"},{"type":"function","name":"getActionState","inputs":[{"name":"actionId","type":"uint256","internalType":"uint256"}],"outputs":[{"name":"","type":"uint8","internalType":"enum PowersTypes.ActionState"}],"stateMutability":"view"},{"type":"function","name":"getActionUri","inputs":[{"name":"actionId","type":"uint256","internalType":"uint256"}],"outputs":[{"name":"_uri","type":"string","internalType":"string"}],"stateMutability":"view"},{"type":"function","name":"getActionVoteData","inputs":[{"name":"actionId","type":"uint256","internalType":"uint256"}],"outputs":[{"name":"voteStart","type":"uint48","internalType":"uint48"},{"name":"voteDuration","type":"uint32","internalType":"uint32"},{"name":"voteEnd","type":"uint256","internalType":"uint256"},{"name":"againstVotes","type":"uint32","internalType":"uint32"},{"name":"forVotes","type":"uint32","internalType":"uint32"},{"name":"abstainVotes","type":"uint32","internalType":"uint32"}],"stateMutability":"view"},{"type":"function","name":"getAdoptedMandate","inputs":[{"name":"mandateId","type":"uint16","internalType":"uint16"}],"outputs":[{"name":"mandate","type":"address","internalType":"address"},{"name":"mandateHash","type":"bytes32","internalType":"bytes32"},{"name":"active","type":"bool","internalType":"bool"}],"stateMutability":"view"},{"type":"function","name":"getAmountFlows","inputs":[],"outputs":[{"name":"","type":"uint256","internalType":"uint256"}],"stateMutability":"view"},{"type":"function","name":"getAmountRoleHolders","inputs":[{"name":"roleId","type":"uint256","internalType":"uint256"}],"outputs":[{"name":"amountMembers","type":"uint256","internalType":"uint256"}],"stateMutability":"view"},{"type":"function","name":"getConditions","inputs":[{"name":"mandateId","type":"uint16","internalType":"uint16"}],"outputs":[{"name":"conditions","type":"tuple","internalType":"struct PowersTypes.Conditions","components":[{"name":"allowedRole","type":"uint256","internalType":"uint256"},{"name":"votingPeriod","type":"uint32","internalType":"uint32"},{"name":"timelock","type":"uint32","internalType":"uint32"},{"name":"throttleExecution","type":"uint32","internalType":"uint32"},{"name":"needFulfilled","type":"uint16","internalType":"uint16"},{"name":"needNotFulfilled","type":"uint16","internalType":"uint16"},{"name":"quorum","type":"uint8","internalType":"uint8"},{"name":"succeedAt","type":"uint8","internalType":"uint8"}]}],"stateMutability":"view"},{"type":"function","name":"getFlowDescriptionAtIndex","inputs":[{"name":"index","type":"uint8","internalType":"uint8"}],"outputs":[{"name":"","type":"string","internalType":"string"}],"stateMutability":"view"},{"type":"function","name":"getFlowMandatesAtIndex","inputs":[{"name":"index","type":"uint8","internalType":"uint8"}],"outputs":[{"name":"","type":"uint16[]","internalType":"uint16[]"}],"stateMutability":"view"},{"type":"function","name":"getLatestFulfillment","inputs":[{"name":"mandateId","type":"uint16","internalType":"uint16"}],"outputs":[{"name":"latestFulfillment","type":"uint48","internalType":"uint48"}],"stateMutability":"view"},{"type":"function","name":"getMandateActionAtIndex","inputs":[{"name":"mandateId","type":"uint16","internalType":"uint16"},{"name":"index","type":"uint256","internalType":"uint256"}],"outputs":[{"name":"actionId","type":"uint256","internalType":"uint256"}],"stateMutability":"view"},{"type":"function","name":"getMandateCounter","inputs":[],"outputs":[{"name":"","type":"uint16","internalType":"uint16"}],"stateMutability":"view"},{"type":"function","name":"getQuantityMandateActions","inputs":[{"name":"mandateId","type":"uint16","internalType":"uint16"}],"outputs":[{"name":"quantityMandateActions","type":"uint256","internalType":"uint256"}],"stateMutability":"view"},{"type":"function","name":"getRoleHolderAtIndex","inputs":[{"name":"roleId","type":"uint256","internalType":"uint256"},{"name":"index","type":"uint256","internalType":"uint256"}],"outputs":[{"name":"account","type":"address","internalType":"address"}],"stateMutability":"view"},{"type":"function","name":"getRoleLabel","inputs":[{"name":"roleId","type":"uint256","internalType":"uint256"}],"outputs":[{"name":"label","type":"string","internalType":"string"}],"stateMutability":"view"},{"type":"function","name":"getRoleMetadata","inputs":[{"name":"roleId","type":"uint256","internalType":"uint256"}],"outputs":[{"name":"metadata","type":"string","internalType":"string"}],"stateMutability":"view"},{"type":"function","name":"getTreasury","inputs":[],"outputs":[{"name":"","type":"address","internalType":"address payable"}],"stateMutability":"view"},{"type":"function","name":"hasRoleSince","inputs":[{"name":"account","type":"address","internalType":"address"},{"name":"roleId","type":"uint256","internalType":"uint256"}],"outputs":[{"name":"since","type":"uint48","internalType":"uint48"}],"stateMutability":"view"},{"type":"function","name":"hasVoted","inputs":[{"name":"actionId","type":"uint256","internalType":"uint256"},{"name":"account","type":"address","internalType":"address"}],"outputs":[{"name":"","type":"bool","internalType":"bool"}],"stateMutability":"view"},{"type":"function","name":"isBlacklisted","inputs":[{"name":"account","type":"address","internalType":"address"}],"outputs":[{"name":"","type":"bool","internalType":"bool"}],"stateMutability":"view"},{"type":"function","name":"labelRole","inputs":[{"name":"roleId","type":"uint256","internalType":"uint256"},{"name":"label","type":"string","internalType":"string"},{"name":"metadata","type":"string","internalType":"string"}],"outputs":[],"stateMutability":"nonpayable"},{"type":"function","name":"mandateCounter","inputs":[],"outputs":[{"name":"","type":"uint16","internalType":"uint16"}],"stateMutability":"view"},{"type":"function","name":"name","inputs":[],"outputs":[{"name":"","type":"string","internalType":"string"}],"stateMutability":"view"},{"type":"function","name":"propose","inputs":[{"name":"mandateId","type":"uint16","internalType":"uint16"},{"name":"mandateCalldata","type":"bytes","internalType":"bytes"},{"name":"nonce","type":"uint256","internalType":"uint256"},{"name":"uriAction","type":"string","internalType":"string"}],"outputs":[{"name":"actionId","type":"uint256","internalType":"uint256"}],"stateMutability":"nonpayable"},{"type":"function","name":"removeFlow","inputs":[{"name":"index","type":"uint8","internalType":"uint8"}],"outputs":[],"stateMutability":"nonpayable"},{"type":"function","name":"request","inputs":[{"name":"mandateId","type":"uint16","internalType":"uint16"},{"name":"mandateCalldata","type":"bytes","internalType":"bytes"},{"name":"nonce","type":"uint256","internalType":"uint256"},{"name":"uriAction","type":"string","internalType":"string"}],"outputs":[{"name":"actionId","type":"uint256","internalType":"uint256"}],"stateMutability":"nonpayable"},{"type":"function","name":"revokeMandate","inputs":[{"name":"mandateId","type":"uint16","internalType":"uint16"}],"outputs":[],"stateMutability":"nonpayable"},{"type":"function","name":"revokeRole","inputs":[{"name":"roleId","type":"uint256","internalType":"uint256"},{"name":"account","type":"address","internalType":"address"}],"outputs":[],"stateMutability":"nonpayable"},{"type":"function","name":"setTreasury","inputs":[{"name":"newTreasury","type":"address","internalType":"address payable"}],"outputs":[],"stateMutability":"nonpayable"},{"type":"function","name":"setUri","inputs":[{"name":"newUri","type":"string","internalType":"string"}],"outputs":[],"stateMutability":"nonpayable"},{"type":"function","name":"uri","inputs":[],"outputs":[{"name":"","type":"string","internalType":"string"}],"stateMutability":"view"},{"type":"function","name":"version","inputs":[],"outputs":[{"name":"","type":"string","internalType":"string"}],"stateMutability":"pure"},{"type":"event","name":"ActionFulfilled","inputs":[{"name":"mandateId","type":"uint16","indexed":true,"internalType":"uint16"},{"name":"actionId","type":"uint256","indexed":true,"internalType":"uint256"},{"name":"targets","type":"address[]","indexed":false,"internalType":"address[]"},{"name":"values","type":"uint256[]","indexed":false,"internalType":"uint256[]"},{"name":"calldatas","type":"bytes[]","indexed":false,"internalType":"bytes[]"}],"anonymous":false},{"type":"event","name":"ActionRequested","inputs":[{"name":"caller","type":"address","indexed":true,"internalType":"address"},{"name":"mandateId","type":"uint16","indexed":true,"internalType":"uint16"},{"name":"mandateCalldata","type":"bytes","indexed":false,"internalType":"bytes"},{"name":"nonce","type":"uint256","indexed":false,"internalType":"uint256"},{"name":"description","type":"string","indexed":false,"internalType":"string"}],"anonymous":false},{"type":"event","name":"BlacklistSet","inputs":[{"name":"account","type":"address","indexed":true,"internalType":"address"},{"name":"blacklisted","type":"bool","indexed":true,"internalType":"bool"}],"anonymous":false},{"type":"event","name":"EIP712DomainChanged","inputs":[],"anonymous":false},{"type":"event","name":"FlowAdapted","inputs":[{"name":"index1","type":"uint8","indexed":false,"internalType":"uint8"},{"name":"index2","type":"uint8","indexed":false,"internalType":"uint8"},{"name":"mandateId","type":"uint16","indexed":false,"internalType":"uint16"}],"anonymous":false},{"type":"event","name":"FlowAdded","inputs":[{"name":"mandateIds","type":"uint16[]","indexed":false,"internalType":"uint16[]"},{"name":"nameDescription","type":"string","indexed":false,"internalType":"string"}],"anonymous":false},{"type":"event","name":"FlowDeleted","inputs":[{"name":"index","type":"uint8","indexed":true,"internalType":"uint8"}],"anonymous":false},{"type":"event","name":"FundsReceived","inputs":[{"name":"sender","type":"address","indexed":false,"internalType":"address"},{"name":"value","type":"uint256","indexed":false,"internalType":"uint256"}],"anonymous":false},{"type":"event","name":"MandateAdopted","inputs":[{"name":"mandateId","type":"uint16","indexed":true,"internalType":"uint16"}],"anonymous":false},{"type":"event","name":"MandateRevoked","inputs":[{"name":"mandateId","type":"uint16","indexed":true,"internalType":"uint16"}],"anonymous":false},{"type":"event","name":"Powers__Initialized","inputs":[{"name":"contractAddress","type":"address","indexed":false,"internalType":"address"},{"name":"name","type":"string","indexed":false,"internalType":"string"},{"name":"uri","type":"string","indexed":false,"internalType":"string"}],"anonymous":false},{"type":"event","name":"ProposedActionCancelled","inputs":[{"name":"actionId","type":"uint256","indexed":true,"internalType":"uint256"}],"anonymous":false},{"type":"event","name":"ProposedActionCreated","inputs":[{"name":"actionId","type":"uint256","indexed":true,"internalType":"uint256"},{"name":"caller","type":"address","indexed":true,"internalType":"address"},{"name":"mandateId","type":"uint16","indexed":true,"internalType":"uint16"},{"name":"signature","type":"string","indexed":false,"internalType":"string"},{"name":"executeCalldata","type":"bytes","indexed":false,"internalType":"bytes"},{"name":"voteStart","type":"uint256","indexed":false,"internalType":"uint256"},{"name":"voteEnd","type":"uint256","indexed":false,"internalType":"uint256"},{"name":"nonce","type":"uint256","indexed":false,"internalType":"uint256"},{"name":"description","type":"string","indexed":false,"internalType":"string"}],"anonymous":false},{"type":"event","name":"RoleLabel","inputs":[{"name":"roleId","type":"uint256","indexed":true,"internalType":"uint256"},{"name":"label","type":"string","indexed":false,"internalType":"string"}],"anonymous":false},{"type":"event","name":"RoleSet","inputs":[{"name":"roleId","type":"uint256","indexed":true,"internalType":"uint256"},{"name":"account","type":"address","indexed":true,"internalType":"address"},{"name":"access","type":"bool","indexed":true,"internalType":"bool"}],"anonymous":false},{"type":"event","name":"VoteCast","inputs":[{"name":"account","type":"address","indexed":true,"internalType":"address"},{"name":"actionId","type":"uint256","indexed":true,"internalType":"uint256"},{"name":"support","type":"uint8","indexed":true,"internalType":"uint8"},{"name":"reason","type":"string","indexed":false,"internalType":"string"}],"anonymous":false},{"type":"error","name":"InvalidShortString","inputs":[]},{"type":"error","name":"Powers__ActionAlreadyFulfilled","inputs":[]},{"type":"error","name":"Powers__ActionAlreadyInitiated","inputs":[]},{"type":"error","name":"Powers__ActionCancelled","inputs":[]},{"type":"error","name":"Powers__ActionNotProposed","inputs":[]},{"type":"error","name":"Powers__ActionNotRequested","inputs":[]},{"type":"error","name":"Powers__AddressBlacklisted","inputs":[]},{"type":"error","name":"Powers__AlreadyCastVote","inputs":[]},{"type":"error","name":"Powers__CalldataTooLong","inputs":[]},{"type":"error","name":"Powers__CallerNotTargetMandate","inputs":[]},{"type":"error","name":"Powers__CannotAddPowersAddressAsMember","inputs":[]},{"type":"error","name":"Powers__CannotAddZeroAddress","inputs":[]},{"type":"error","name":"Powers__CannotCallMandate","inputs":[]},{"type":"error","name":"Powers__CannotSetPublicRole","inputs":[]},{"type":"error","name":"Powers__CannotSetZeroAddress","inputs":[]},{"type":"error","name":"Powers__ConstituteClosed","inputs":[]},{"type":"error","name":"Powers__ConstituteOpen","inputs":[]},{"type":"error","name":"Powers__ConstitutionAlreadyExecuted","inputs":[]},{"type":"error","name":"Powers__ExecutionArrayTooLong","inputs":[]},{"type":"error","name":"Powers__ExternalContractBlacklisted","inputs":[]},{"type":"error","name":"Powers__IncorrectInterface","inputs":[{"name":"targetMandate","type":"address","internalType":"address"}]},{"type":"error","name":"Powers__InvalidAddress","inputs":[]},{"type":"error","name":"Powers__InvalidCallData","inputs":[]},{"type":"error","name":"Powers__InvalidFlowIndex","inputs":[]},{"type":"error","name":"Powers__InvalidIndex","inputs":[]},{"type":"error","name":"Powers__InvalidLabel","inputs":[]},{"type":"error","name":"Powers__InvalidMandateId","inputs":[]},{"type":"error","name":"Powers__InvalidMandateIndex","inputs":[]},{"type":"error","name":"Powers__InvalidMaxCallDataLength","inputs":[]},{"type":"error","name":"Powers__InvalidMaxExecutionsLength","inputs":[]},{"type":"error","name":"Powers__InvalidName","inputs":[]},{"type":"error","name":"Powers__InvalidReturnCallDataLength","inputs":[]},{"type":"error","name":"Powers__InvalidVoteType","inputs":[]},{"type":"error","name":"Powers__LabelTooLong","inputs":[]},{"type":"error","name":"Powers__LockedRole","inputs":[]},{"type":"error","name":"Powers__MandateFulfillCallFailed","inputs":[]},{"type":"error","name":"Powers__MandateNotActive","inputs":[]},{"type":"error","name":"Powers__MandateRequestFailed","inputs":[]},{"type":"error","name":"Powers__NoMembersInRole","inputs":[]},{"type":"error","name":"Powers__NoVoteNeeded","inputs":[]},{"type":"error","name":"Powers__NotAContract","inputs":[]},{"type":"error","name":"Powers__NotProposerAction","inputs":[]},{"type":"error","name":"Powers__OnlyAdmin","inputs":[]},{"type":"error","name":"Powers__OnlyPowers","inputs":[]},{"type":"error","name":"Powers__PayableNotEnabled","inputs":[]},{"type":"error","name":"Powers__ProposedActionNotActive","inputs":[]},{"type":"error","name":"Powers__UnexpectedActionState","inputs":[]},{"type":"error","name":"Powers__UriTooLong","inputs":[]},{"type":"error","name":"Powers__VoteWithPublicRoleDisallowed","inputs":[]},{"type":"error","name":"StringTooLong","inputs":[{"name":"str","type":"string","internalType":"string"}]}],"bytecode":{"object":"0x6101e060408190526008805461ffff60a01b1916600160a01b17905561547838819003908190833981016040819052610037916105bd565b8461005b604080518082019091526006815265076302e362e360d41b602082015290565b610065825f61020f565b6101205261007481600161020f565b61014052815160208084019190912060e052815190820120610100524660a05261010060e05161010051604080517f8b73c3c69bb8fe3d512ecc4cf759cc79239f7b179b0ffacaa9a75d522b39400f60208201529081019290925260608201524660808201523060a08201525f9060c00160405160208183030381529060405280519060200120905090565b60805250503060c05284515f0361012a57604051634acb0e6d60e01b815260040160405180910390fd5b825f0361014a57604051631c58c0e160e01b815260040160405180910390fd5b815f0361016a5760405163a19bdd3b60e01b815260040160405180910390fd5b805f0361018a57604051638a2b742f60e01b815260040160405180910390fd5b6101965f336001610241565b60066101a286826106bf565b5060076101af85826106bf565b506101608390526101808290526101a0819052436101c0526040517f8e09415123fab1f9e22246686c8d24ad9f84c70288cd5fa338213bccd3c5fb76906101fd9030906006906007906107f8565b60405180910390a150505050506108d6565b5f60208351101561022a57610223836104da565b905061023b565b8161023584826106bf565b5060ff90505b92915050565b5f1983036102625760405163a1dd2b9360e01b815260040160405180910390fd5b6001600160a01b038216610289576040516329f62b5d60e11b815260040160405180910390fd5b306001600160a01b038316036102b25760405163ca208ab960e01b815260040160405180910390fd5b5f8381526004602090815260408083206001600160a01b038616845291829052909120548015158380156102e4575080155b15610365576040805180820182526001600160a01b0380881680835265ffffffffffff43811660208086019182526001808b01805491820181555f81815283812098519890920180549451909516600160a01b026001600160d01b031990941697909616969096179190911790915591549083529086905291902055610498565b831580156103705750805b15610498576001838101545f9161038691610837565b90505f84600101828154811061039e5761039e610856565b5f918252602091829020604080518082019091529101546001600160a01b0381168252600160a01b900465ffffffffffff16918101919091529050806001868101906103ea9087610837565b815481106103fa576103fa610856565b5f918252602091829020835191018054939092015165ffffffffffff16600160a01b026001600160d01b03199093166001600160a01b03909116179190911790556001850180548061044e5761044e61086a565b5f828152602080822083015f1990810180546001600160d01b031916905590920190925591516001600160a01b039081168252918690526040808220869055918816815290812055505b831515856001600160a01b0316877f294507a8f5830b538faef39fbdd28f1164f27c8338a32fc7b47ddf82e4c8d9e460405160405180910390a4505050505050565b5f5f829050601f8151111561050d578260405163305a27a960e01b8152600401610504919061087e565b60405180910390fd5b8051610518826108b3565b179392505050565b634e487b7160e01b5f52604160045260245ffd5b5f82601f830112610543575f5ffd5b81516001600160401b0381111561055c5761055c610520565b604051601f8201601f19908116603f011681016001600160401b038111828210171561058a5761058a610520565b6040528181528382016020018510156105a1575f5ffd5b8160208501602083015e5f918101602001919091529392505050565b5f5f5f5f5f60a086880312156105d1575f5ffd5b85516001600160401b038111156105e6575f5ffd5b6105f288828901610534565b602088015190965090506001600160401b0381111561060f575f5ffd5b61061b88828901610534565b60408801516060890151608090990151979a919950979695509350505050565b600181811c9082168061064f57607f821691505b60208210810361066d57634e487b7160e01b5f52602260045260245ffd5b50919050565b601f8211156106ba57805f5260205f20601f840160051c810160208510156106985750805b601f840160051c820191505b818110156106b7575f81556001016106a4565b50505b505050565b81516001600160401b038111156106d8576106d8610520565b6106ec816106e6845461063b565b84610673565b6020601f82116001811461071e575f83156107075750848201515b5f19600385901b1c1916600184901b1784556106b7565b5f84815260208120601f198516915b8281101561074d578785015182556020948501946001909201910161072d565b508482101561076a57868401515f19600387901b60f8161c191681555b50505050600190811b01905550565b5f81546107858161063b565b80855260018216801561079f57600181146107bb576107ef565b60ff1983166020870152602082151560051b87010193506107ef565b845f5260205f205f5b838110156107e65781546020828a0101526001820191506020810190506107c4565b87016020019450505b50505092915050565b6001600160a01b03841681526060602082018190525f9061081b90830185610779565b828103604084015261082d8185610779565b9695505050505050565b8181038181111561023b57634e487b7160e01b5f52601160045260245ffd5b634e487b7160e01b5f52603260045260245ffd5b634e487b7160e01b5f52603160045260245ffd5b602081525f82518060208401528060208501604085015e5f604082850101526040601f19601f83011684010191505092915050565b8051602080830151919081101561066d575f1960209190910360031b1b16919050565b60805160a05160c05160e05161010051610120516101405161016051610180516101a0516101c051614b156109635f395f6108c101525f8181610cf0015261100101525f81816109ce015261124801525f8181610c4c01528181611075015281816116d0015261268f01525f61318c01525f61315b01525f50505f50505f50505f50505f5050614b155ff3fe608060405260043610610374575f3560e01c806375b238fc116101c8578063b367cac0116100fd578063ebef6d971161009d578063f2a0bb751161006d578063f2a0bb7514610cc0578063f6226e7c14610cdf578063fc2d96d014610d12578063fe575a8714610d31575f5ffd5b8063ebef6d9714610c1c578063edf2a59614610c3b578063edfd2e8714610c6e578063f0f4426014610ca1575f5ffd5b8063cc5812cf116100d8578063cc5812cf14610ba9578063d902bf3a14610bc8578063e88efe3514610be7578063eac989f814610c08575f5ffd5b8063b367cac014610b3d578063b4324dd314610b5c578063b449711514610b8a575f5ffd5b80638973be041161016857806393d7dae51161014357806393d7dae514610ab45780639a0435d414610ad35780639b642de114610aff578063a375109814610b1e575f5ffd5b80638973be0414610a625780638a4359e014610a81578063918f867414610aa0575f5ffd5b80637c1b5539116101a35780637c1b5539146109bd5780638180d29e146109f0578063831af37914610a0f57806384b0196e14610a3b575f5ffd5b806375b238fc1461096c57806376ff75771461097f5780637b3c71d31461099e575f5ffd5b806336126216116102a95780634583476b11610249578063567813881161021957806356781388146108e3578063666ca2d614610902578063685b824a1461092e5780637258883f1461094d575f5ffd5b80634583476b14610793578063519fcfb01461086357806354fd4d50146108825780635532f99b146108b0575f5ffd5b80633fc42d2e116102845780633fc42d2e146106de57806341bd157d146106fd578063438596321461071c578063455a439614610774575f5ffd5b8063361262161461068e5780633b19e84a146106ad5780633ca7c02a146106ca575f5ffd5b806312561b1a116103145780632179e04e116102ef5780632179e04e146105dd57806323b1971b1461063c5780632d90fe5f146106505780632e2d82531461066f575f5ffd5b806312561b1a1461055a578063199093bb146105875780631d0b19e7146105be575f5ffd5b806306fdde031161034f57806306fdde03146104795780630d7abeaa1461048d5780630de6a601146104a35780631031bdb0146104c2575f5ffd5b80630398f05f146103c1578063040b8c24146103f6578063055dbe101461044b575f5ffd5b366103bd577f8e47b87b0ef542cdfa1659c551d88bad38aa7f452d2bbb349ab7530dfec8be8f33604080516001600160a01b0390921682523460208301520160405180910390a1005b5f5ffd5b3480156103cc575f5ffd5b506103e06103db3660046138ad565b610d68565b6040516103ed91906138f2565b60405180910390f35b348015610401575f5ffd5b50610434610410366004613915565b61ffff165f90815260036020526040902054600160a01b900465ffffffffffff1690565b60405165ffffffffffff90911681526020016103ed565b348015610456575f5ffd5b50600854600160a01b900461ffff165b60405161ffff90911681526020016103ed565b348015610484575f5ffd5b506103e0610e0a565b348015610498575f5ffd5b506104a1610e96565b005b3480156104ae575f5ffd5b506104a16104bd366004613976565b610ee6565b3480156104cd575f5ffd5b506105336104dc366004613915565b61ffff165f81815260036020908152604091829020548251308184015280840194909452825180850384018152606090940190925282519201919091206001600160a01b038216929091600160d01b900460ff1690565b604080516001600160a01b03909416845260208401929092521515908201526060016103ed565b348015610565575f5ffd5b50610579610574366004613a6c565b611323565b6040519081526020016103ed565b348015610592575f5ffd5b506105a66105a1366004613ac2565b611504565b6040516001600160a01b0390911681526020016103ed565b3480156105c9575f5ffd5b506104a16105d8366004613af6565b611568565b3480156105e8575f5ffd5b506105fc6105f73660046138ad565b61157f565b6040805165ffffffffffff909716875263ffffffff95861660208801528601939093529083166060850152821660808401521660a082015260c0016103ed565b348015610647575f5ffd5b50600954610579565b34801561065b575f5ffd5b506103e061066a3660046138ad565b611600565b34801561067a575f5ffd5b50610579610689366004613c50565b61161f565b348015610699575f5ffd5b506103e06106a8366004613ce3565b611917565b3480156106b8575f5ffd5b506008546001600160a01b03166105a6565b3480156106d5575f5ffd5b506105795f1981565b3480156106e9575f5ffd5b506104a16106f8366004613cfc565b61196f565b348015610708575f5ffd5b506103e0610717366004613ac2565b611abd565b348015610727575f5ffd5b50610764610736366004613af6565b5f8281526002602090815260408083206001600160a01b038516845260070190915290205460ff1692915050565b60405190151581526020016103ed565b34801561077f575f5ffd5b506104a161078e366004613d49565b611b7a565b34801561079e575f5ffd5b506108106107ad3660046138ad565b5f9081526002602081905260409091206001810154815492820154600390920154600160301b9182900461ffff169465ffffffffffff80861695938404811694600160601b8504821694600160901b9004909116926001600160a01b0390911691565b6040805161ffff909816885265ffffffffffff96871660208901529486169487019490945291841660608601529290921660808401526001600160a01b0390911660a083015260c082015260e0016103ed565b34801561086e575f5ffd5b506104a161087d366004613ce3565b611bd5565b34801561088d575f5ffd5b50604080518082019091526006815265076302e362e360d41b60208201526103e0565b3480156108bb575f5ffd5b506105797f000000000000000000000000000000000000000000000000000000000000000081565b3480156108ee575f5ffd5b506104a16108fd366004613d75565b611cfb565b34801561090d575f5ffd5b5061092161091c3660046138ad565b611d15565b6040516103ed9190613d9f565b348015610939575f5ffd5b506104a1610948366004613af6565b611e79565b348015610958575f5ffd5b506104a1610967366004613dc5565b611ec6565b348015610977575f5ffd5b506105795f81565b34801561098a575f5ffd5b506104a1610999366004613de0565b611eec565b3480156109a9575f5ffd5b506104a16109b8366004613e4d565b611fce565b3480156109c8575f5ffd5b506105797f000000000000000000000000000000000000000000000000000000000000000081565b3480156109fb575f5ffd5b506103e0610a0a3660046138ad565b612015565b348015610a1a575f5ffd5b50610a2e610a29366004613915565b6120c5565b6040516103ed9190613ea3565b348015610a46575f5ffd5b50610a4f6121a0565b6040516103ed9796959493929190613f3b565b348015610a6d575f5ffd5b506104a1610a7c3660046140c7565b6121e2565b348015610a8c575f5ffd5b50610579610a9b36600461418d565b6121f4565b348015610aab575f5ffd5b50610579606481565b348015610abf575f5ffd5b50610764610ace3660046141b5565b612252565b348015610ade575f5ffd5b50610af2610aed366004613ce3565b612294565b6040516103ed919061421d565b348015610b0a575f5ffd5b506104a1610b1936600461422f565b612354565b348015610b29575f5ffd5b506104a1610b38366004614269565b612368565b348015610b48575f5ffd5b506104a1610b57366004613915565b612414565b348015610b67575f5ffd5b50610579610b763660046138ad565b5f9081526004602052604090206001015490565b348015610b95575f5ffd5b50610466610ba43660046143f3565b6124bb565b348015610bb4575f5ffd5b50610434610bc3366004614425565b612509565b348015610bd3575f5ffd5b506103e0610be23660046138ad565b612581565b348015610bf2575f5ffd5b5060085461046690600160a01b900461ffff1681565b348015610c13575f5ffd5b506103e06125a0565b348015610c27575f5ffd5b50610579610c36366004613c50565b6125ad565b348015610c46575f5ffd5b506105797f000000000000000000000000000000000000000000000000000000000000000081565b348015610c79575f5ffd5b50610579610c88366004613915565b61ffff165f908152600360208190526040909120015490565b348015610cac575f5ffd5b506104a1610cbb366004613dc5565b6129c1565b348015610ccb575f5ffd5b506103e0610cda3660046138ad565b612a12565b348015610cea575f5ffd5b506105797f000000000000000000000000000000000000000000000000000000000000000081565b348015610d1d575f5ffd5b506104a1610d2c366004614441565b612a31565b348015610d3c575f5ffd5b50610764610d4b366004613dc5565b6001600160a01b03165f9081526005602052604090205460ff1690565b5f818152600460205260409020600201805460609190610d87906144f2565b80601f0160208091040260200160405190810160405280929190818152602001828054610db3906144f2565b8015610dfe5780601f10610dd557610100808354040283529160200191610dfe565b820191905f5260205f20905b815481529060010190602001808311610de157829003601f168201915b50505050509050919050565b60068054610e17906144f2565b80601f0160208091040260200160405190810160405280929190818152602001828054610e43906144f2565b8015610e8e5780601f10610e6557610100808354040283529160200191610e8e565b820191905f5260205f20905b815481529060010190602001808311610e7157829003601f168201915b505050505081565b610e9e612b02565b610ee433604080515f8082526020820190925290610ede565b6040805180820190915260608082526020820152815260200190600190039081610eb75790505b50612b3d565b565b61ffff88165f9081526003602052604090208054600160d01b900460ff16610f2157604051632e53afcd60e01b815260040160405180910390fd5b80546001600160a01b03163314610f4b57604051635574892960e11b815260040160405180910390fd5b5f8881526002602052604090208054600160301b900465ffffffffffff161580610f8457508054600160901b900465ffffffffffff1615155b15610fa2576040516301dd1d1560e71b815260040160405180910390fd5b8054600160601b900465ffffffffffff1615610fd15760405163a517239560e01b815260040160405180910390fd5b868581141580610fe15750808414155b15610fff5760405163dbf15fa560e01b815260040160405180910390fd5b7f00000000000000000000000000000000000000000000000000000000000000008111156110405760405163d0b6a17960e01b815260040160405180910390fd5b815471ffffffffffff0000000000000000000000001916600160601b4365ffffffffffff16021782555f5b818110156112df577f00000000000000000000000000000000000000000000000000000000000000008686838181106110a6576110a661452a565b90506020028101906110b8919061453e565b905011156110d957604051631c3bc5e360e31b815260040160405180910390fd5b6111038a8a838181106110ee576110ee61452a565b9050602002016020810190610d4b9190613dc5565b15611121576040516334d52f6b60e01b815260040160405180910390fd5b5f5f8b8b848181106111355761113561452a565b905060200201602081019061114a9190613dc5565b6001600160a01b03168a8a858181106111655761116561452a565b9050602002013589898681811061117e5761117e61452a565b9050602002810190611190919061453e565b60405161119e929190614581565b5f6040518083038185875af1925050503d805f81146111d8576040519150601f19603f3d011682016040523d82523d5f602084013e6111dd565b606091505b5091509150816112465784547fffff000000000000ffffffffffffffffffffffffffffffffffffffffffffffff16600160c01b4365ffffffffffff160217855580511561122d5780518082602001fd5b604051631d8fb90d60e21b815260040160405180910390fd5b7f0000000000000000000000000000000000000000000000000000000000000000815111611294576005850180546001810182555f91825260209091200161128e82826145dc565b506112d5565b604080515f602082015260058701910160408051601f1981840301815291905281546001810183555f9283526020909220909101906112d390826145dc565b505b505060010161106b565b505081547fffffffffffff000000000000ffffffffffffffffffffffffffffffffffffffff16600160a01b4365ffffffffffff160217909155505050505050505050565b61ffff84165f9081526003602052604081208054600160d01b900460ff1661135e57604051632e53afcd60e01b815260040160405180910390fd5b604051630b704dbd60e11b81525f90731954682863c296c328af1d71dbc384767fbc2f0c906316e09b7a9061139d908a908a908a908a906004016146c2565b602060405180830381865af41580156113b8573d5f5f3e3d5ffd5b505050506040513d601f19601f820116820180604052508101906113dc91906146f0565b5f81815260026020819052604090912090810154919250906001600160a01b0316336001600160a01b03161461142557604051637365858560e01b815260040160405180910390fd5b805465ffffffffffff165f0361144e5760405163f661f4bf60e01b815260040160405180910390fd5b8054600160601b900465ffffffffffff1615158061147b57508054600160901b900465ffffffffffff1615155b156114995760405163b831530960e01b815260040160405180910390fd5b80547fffffffffffffffff000000000000ffffffffffffffffffffffffffffffffffff16600160901b4365ffffffffffff160217815560405182907f8eb4cfeba12ece86fc1590773502e55423b37db556543430337376b30d27c42b905f90a2509695505050505050565b5f828152600460205260408120600181015483106115355760405163472e61bd60e01b815260040160405180910390fd5b80600101838154811061154a5761154a61452a565b5f918252602090912001546001600160a01b03169150505b92915050565b611570612bf5565b61157b82825f612c15565b5050565b5f8181526002602052604081206001810154829182918291829182919065ffffffffffff811690600160401b900463ffffffff166115bd818361471b565b60019390930154919a90995065ffffffffffff909216975063ffffffff600160601b820481169750600160801b820481169650600160a01b909104169350915050565b5f818152600460205260409020600301805460609190610d87906144f2565b600a545f9060ff1661164457604051630889b5b960e31b815260040160405180910390fd5b61ffff86165f9081526003602052604090208054600160d01b900460ff1661167f57604051632e53afcd60e01b815260040160405180910390fd5b61168a335b88612252565b6116a757604051637079d1b960e11b815260040160405180910390fd5b6116b033610d4b565b156116ce576040516334d52f6b60e01b815260040160405180910390fd5b7f000000000000000000000000000000000000000000000000000000000000000085111561170f57604051631c3bc5e360e31b815260040160405180910390fd5b6002810154604051630b704dbd60e11b815263ffffffff821691600160801b900460ff1690731954682863c296c328af1d71dbc384767fbc2f0c906316e09b7a90611764908c908c908c908c906004016146c2565b602060405180830381865af415801561177f573d5f5f3e3d5ffd5b505050506040513d601f19601f820116820180604052508101906117a391906146f0565b5f818152600260205260409020600181015491955090600160301b900461ffff16156117e25760405163fc0e49ff60e01b815260040160405180910390fd5b6003840180546001810182555f9182526020909120018590556004810161180a898b83614739565b50805465ffffffffffff19164365ffffffffffff1617815560018101805467ffff0000000000001916600160301b61ffff8d160217905560ff821661184f575f611851565b435b60018201805465ffffffffffff929092166bffffffff0000ffffffffffff1990921691909117600160401b63ffffffff861602179055600281018054336001600160a01b0319909116179055600681016118ab87826145dc565b506003810187905561ffff8a1633867fb5856a9700a7e851456d3a16348b4ae0fbb11b06ac0af8dbe8e8652c57cc4cbd8c8c436118ee63ffffffff8b16826147f3565b8e8e60405161190296959493929190614806565b60405180910390a45050505095945050505050565b60095460609060ff83161061193f5760405163472e61bd60e01b815260040160405180910390fd5b60098260ff16815481106119555761195561452a565b905f5260205f2090600202016001018054610d87906144f2565b611977612bf5565b60085461ffff600160a01b9091048116908216106119a857604051633a8de3a560e11b815260040160405180910390fd5b60095460ff8416106119cd5760405163e2190a4d60e01b815260040160405180910390fd5b5f60098460ff16815481106119e4576119e461452a565b5f9182526020909120600290910201805490915060ff841610611a1a5760405163321decd960e21b815260040160405180910390fd5b81815f018460ff1681548110611a3257611a3261452a565b905f5260205f2090601091828204019190066002026101000a81548161ffff021916908361ffff1602179055507fbab75fb33733fb786b1bd731a4e31deb8b360f52fdc6e437843f5803cd84141d848484604051611aaf9392919060ff938416815291909216602082015261ffff91909116604082015260600190565b60405180910390a150505050565b5f82815260026020526040902060050180546060919083908110611ae357611ae361452a565b905f5260205f20018054611af6906144f2565b80601f0160208091040260200160405190810160405280929190818152602001828054611b22906144f2565b8015611b6d5780601f10611b4457610100808354040283529160200191611b6d565b820191905f5260205f20905b815481529060010190602001808311611b5057829003601f168201915b5050505050905092915050565b611b82612bf5565b6001600160a01b0382165f81815260056020526040808220805460ff191685151590811790915590519092917f921341769c2075d1ae425396063d5ab65ff5006c4bc0bd0821e50ce51fb6012391a35050565b611bdd612bf5565b60095460ff821610611c025760405163e2190a4d60e01b815260040160405180910390fd5b6009545f90611c1390600190614857565b9050808260ff1614611c8a5760098181548110611c3257611c3261452a565b905f5260205f20906002020160098360ff1681548110611c5457611c5461452a565b5f9182526020909120825460029092020190611c739082908490613749565b50600181810190611c869084018261486a565b5050505b6009805480611c9b57611c9b614937565b5f828152602081205f1990920191600283020190611cb982826137a3565b611cc6600183015f6137c5565b5050905560405160ff8316907fdb9bcd47830726db0b83034aa4bc1b92414a20b1790a2f63434fe60bd243d9e0905f90a25050565b61157b82338360405180602001604052805f815250612eae565b5f818152600260205260408120805465ffffffffffff16158015611d4757508054600160301b900465ffffffffffff16155b8015611d6157508054600160601b900465ffffffffffff16155b8015611d7b57508054600160901b900465ffffffffffff16155b15611d8857505f92915050565b8054600160c01b900465ffffffffffff1615611da75750600892915050565b8054600160601b900465ffffffffffff1615611dc65750600792915050565b8054600160901b900465ffffffffffff1615611de55750600292915050565b8054600160301b900465ffffffffffff1615611e045750600692915050565b60018101545f90611e2a9063ffffffff600160401b8204169065ffffffffffff1661471b565b65ffffffffffff169050438110611e45575060039392505050565b611e4e84613033565b1580611e605750611e5e846130d6565b155b15611e6f575060049392505050565b5060059392505050565b611e81612bf5565b6001600160a01b0381165f9081526005602052604090205460ff1615611eba576040516334d52f6b60e01b815260040160405180910390fd5b61157b82826001612c15565b611ece612b02565b604080515f80825260208201909252611ee991839190610ede565b50565b611ef4612bf5565b81515f03611f15576040516333a0807f60e21b815260040160405180910390fd5b60ff82511115611f38576040516350cc0e8d60e01b815260040160405180910390fd5b60ff81511115611f5b5760405163d315c6bd60e01b815260040160405180910390fd5b5f838152600460205260409020600201611f7583826145dc565b505f838152600460205260409020600301611f9082826145dc565b50827f4c6d3d4a776b1458bbd518e75903a3f27a0c6f4597b10882784aa64769d56c7183604051611fc191906138f2565b60405180910390a2505050565b61200f84338585858080601f0160208091040260200160405190810160405280939291908181526020018383808284375f92019190915250612eae92505050565b50505050565b60098181548110612024575f80fd5b905f5260205f2090600202015f91509050806001018054612044906144f2565b80601f0160208091040260200160405190810160405280929190818152602001828054612070906144f2565b80156120bb5780601f10612092576101008083540402835291602001916120bb565b820191905f5260205f20905b81548152906001019060200180831161209e57829003601f168201915b5050505050905081565b60408051610100810182525f80825260208201819052918101829052606081018290526080810182905260a0810182905260c0810182905260e08101919091525061ffff9081165f908152600360209081526040918290208251610100810184526001820154815260029091015463ffffffff808216938301939093526401000000008104831693820193909352600160401b83049091166060820152600160601b820483166080820152600160701b820490921660a083015260ff600160801b8204811660c0840152600160881b9091041660e082015290565b5f6060805f5f5f60606121b1613154565b6121b9613185565b604080515f80825260208201909252600f60f81b9b939a50919850469750309650945092509050565b6121ea612b02565b61157b8282612b3d565b61ffff82165f908152600360208190526040822090810154831061222b5760405163472e61bd60e01b815260040160405180910390fd5b8060030183815481106122405761224061452a565b905f5260205f20015491505092915050565b61ffff81165f90815260036020526040812060010154816122738583612509565b905065ffffffffffff811615158061228b57505f1982145b95945050505050565b60095460609060ff8316106122bc5760405163472e61bd60e01b815260040160405180910390fd5b60098260ff16815481106122d2576122d261452a565b5f9182526020918290206002909102018054604080518285028101850190915281815292830182828015610dfe57602002820191905f5260205f20905f905b82829054906101000a900461ffff1661ffff1681526020019060020190602082600101049283019260010382029150808411612311575094979650505050505050565b61235c612bf5565b600761157b82826145dc565b612370612bf5565b600980546001810182555f919091528151805183926002027f6e1540171b6c0c960b71a7020d9f60077f6af931a8bbf590da0223dacf75c7af01916123ba918391602001906137fc565b50602082015160018201906123cf90826145dc565b5050815160208301516040517fb56a1edd5f36655e5ec0dfaaee335db8dce67084b7e03de2f6771824f68d3565935061240992919061494b565b60405180910390a150565b61241c612bf5565b61ffff81165f90815260036020526040812054600160d01b900460ff161515900361245a57604051632e53afcd60e01b815260040160405180910390fd5b61ffff81165f8181526003602052604080822080547fffffffffff00ffffffffffffffffffffffffffffffffffffffffffffffffffff169055517ffb1d94dcf467f70febf412166aaa551737afd946ba6a4b4eac970aaf28a7e74f9190a250565b5f6124c4612bf5565b50600854600160a01b900461ffff166124dd81836131b2565b60088054600161ffff600160a01b808404821692909201160261ffff60a01b199091161790555b919050565b5f8181526004602090815260408083206001600160a01b03861684529182905282205480830361253d575f92505050611562565b8160010160018261254e9190614857565b8154811061255e5761255e61452a565b5f91825260209091200154600160a01b900465ffffffffffff1695945050505050565b5f818152600260205260409020600401805460609190610d87906144f2565b60078054610e17906144f2565b600a545f9060ff166125d257604051630889b5b960e31b815260040160405180910390fd5b604051630b704dbd60e11b8152731954682863c296c328af1d71dbc384767fbc2f0c906316e09b7a9061260f9089908990899089906004016146c2565b602060405180830381865af415801561262a573d5f5f3e3d5ffd5b505050506040513d601f19601f8201168201806040525081019061264e91906146f0565b61ffff87165f908152600360205260409020805491925090600160d01b900460ff1661268d57604051632e53afcd60e01b815260040160405180910390fd5b7f00000000000000000000000000000000000000000000000000000000000000008511156126ce57604051631c3bc5e360e31b815260040160405180910390fd5b6126d733610d4b565b156126f5576040516334d52f6b60e01b815260040160405180910390fd5b6126fe33611684565b61271b57604051637079d1b960e11b815260040160405180910390fd5b5f8281526002602052604090208054600160301b900465ffffffffffff1615158061275557508054600160601b900465ffffffffffff1615155b156127735760405163fc0e49ff60e01b815260040160405180910390fd5b8054600160901b900465ffffffffffff16156127a257604051632ec3fe1560e11b815260040160405180910390fd5b8154604051633881b32960e01b8152731954682863c296c328af1d71dbc384767fbc2f0c91633881b329916127f4918c918c918c9130918d91600160a01b90910465ffffffffffff169060040161496f565b5f6040518083038186803b15801561280a575f5ffd5b505af415801561281c573d5f5f3e3d5ffd5b505050506001810154600160301b900461ffff165f03612850576003820180546001810182555f9182526020909120018390555b600281018054336001600160a01b031990911617905580546bffffffffffff0000000000001916600160301b4365ffffffffffff16810291909117825560018201805467ffff000000000000191661ffff8b16909202919091179055600481016128bb878983614739565b50600681016128ca85826145dc565b506003810185905581546040516326a8b78760e11b81525f916001600160a01b031690634d516f0e906129099033908d908d908d908d906004016149bb565b6020604051808303815f875af1158015612925573d5f5f3e3d5ffd5b505050506040513d601f19601f8201168201806040525081019061294991906149f9565b9050806129695760405163382654b960e21b815260040160405180910390fd5b61ffff8916336001600160a01b03167f98e1e52af9c2155b4c2b4844cdccf64c85cb13dd804231d177ef6fea4325d4058a8a8a8a6040516129ad9493929190614a14565b60405180910390a350505095945050505050565b6129c9612bf5565b6001600160a01b0381166129f057604051636e7e8feb60e11b815260040160405180910390fd5b600880546001600160a01b0319166001600160a01b0392909216919091179055565b5f818152600260205260409020600601805460609190610d87906144f2565b612a39612b02565b600a5460ff1615612a5d576040516315ea064b60e31b815260040160405180910390fd5b600854600160a01b900461ffff165f5b8251811015612ade575f6001600160a01b0316838281518110612a9257612a9261452a565b6020026020010151602001516001600160a01b031614612ad657612acf82848381518110612ac257612ac261452a565b60200260200101516131b2565b8160010191505b600101612a6d565b506008805461ffff909216600160a01b0261ffff60a01b1990921691909117905550565b612b0c5f5f611504565b6001600160a01b0316336001600160a01b031614610ee457604051630eaa87a560e21b815260040160405180910390fd5b336001600160a01b03831614612b6457612b585f335f612c15565b612b645f836001612c15565b805115612be4575f5b8151811015612be2576009828281518110612b8a57612b8a61452a565b60209081029190910181015182546001810184555f9384529282902081518051929460020290910192612bc2928492909101906137fc565b5060208201516001820190612bd790826145dc565b505050600101612b6d565b505b5050600a805460ff19166001179055565b333014610ee45760405163e890ccbf60e01b815260040160405180910390fd5b5f198303612c365760405163a1dd2b9360e01b815260040160405180910390fd5b6001600160a01b038216612c5d576040516329f62b5d60e11b815260040160405180910390fd5b306001600160a01b03831603612c865760405163ca208ab960e01b815260040160405180910390fd5b5f8381526004602090815260408083206001600160a01b03861684529182905290912054801515838015612cb8575080155b15612d39576040805180820182526001600160a01b0380881680835265ffffffffffff43811660208086019182526001808b01805491820181555f81815283812098519890920180549451909516600160a01b026001600160d01b031990941697909616969096179190911790915591549083529086905291902055612e6c565b83158015612d445750805b15612e6c576001838101545f91612d5a91614857565b90505f846001018281548110612d7257612d7261452a565b5f918252602091829020604080518082019091529101546001600160a01b0381168252600160a01b900465ffffffffffff1691810191909152905080600186810190612dbe9087614857565b81548110612dce57612dce61452a565b5f918252602091829020835191018054939092015165ffffffffffff16600160a01b026001600160d01b03199093166001600160a01b039091161791909117905560018501805480612e2257612e22614937565b5f828152602080822083015f1990810180546001600160d01b031916905590920190925591516001600160a01b039081168252918690526040808220869055918816815290812055505b831515856001600160a01b0316877f294507a8f5830b538faef39fbdd28f1164f27c8338a32fc7b47ddf82e4c8d9e460405160405180910390a4505050505050565b5f848152600260205260409020805465ffffffffffff161580612ee057508054600160601b900465ffffffffffff1615155b80612efa57508054600160901b900465ffffffffffff1615155b80612f1457508054600160301b900465ffffffffffff1615155b80612f4a575060018101544390612f409063ffffffff600160401b8204169065ffffffffffff1661471b565b65ffffffffffff16105b15612f68576040516322024acd60e21b815260040160405180910390fd5b6001810154600160301b900461ffff16612f828582612252565b612f9f57604051637079d1b960e11b815260040160405180910390fd5b6001600160a01b0385165f90815260078301602052604090205460ff1615612fda5760405163c9e3c8d960e01b815260040160405180910390fd5b612fe5868686613463565b8360ff1686866001600160a01b03167f5be2678cab71c7d94235767eb1df3c57673f19e805cdc0edbd2e74854ae9f0f98660405161302391906138f2565b60405180910390a4505050505050565b5f8181526002602052604081206001810154829061305b90600160301b900461ffff166120c5565b80515f9081526004602052604090206001015460c08201519192509060ff16158061228b575060018301546064906130a99063ffffffff600160a01b8204811691600160801b900416614a3f565b63ffffffff166130b99190614a5b565b60c08301516130cb9060ff1683614a5b565b111595945050505050565b5f818152600260205260408120600181015482906130fe90600160301b900461ffff166120c5565b80515f9081526004602052604090206001015460c08201519192509060ff16158061228b5750600183015461314290606490600160801b900463ffffffff16614a5b565b60e08301516130cb9060ff1683614a5b565b60606131807f00000000000000000000000000000000000000000000000000000000000000005f61354d565b905090565b60606131807f0000000000000000000000000000000000000000000000000000000000000000600161354d565b6131c7816020015163a988d3f560e01b6135f6565b6131f9576020810151604051631f09f19160e21b81526001600160a01b03909116600482015260240160405180910390fd5b61321e81602001516001600160a01b03165f9081526005602052604090205460ff1690565b1561323c576040516334d52f6b60e01b815260040160405180910390fd5b6060810151515f1914801561325b57505f816060015160c0015160ff16115b1561327957604051632e562fc560e01b815260040160405180910390fd5b61ffff8083165f908152600360209081526040918290208054858301516001600160a01b03167fffffffffff00ffffffffffff00000000000000000000000000000000000000009091168117600160d01b17825560608087015180516001850155938401516002840180548688015193870151608088015160a089015160c08a015160e0909a015160ff908116600160881b0271ff0000000000000000000000000000000000199b909116600160801b0270ff0000000000000000000000000000000019928e16600160701b029290921670ffffff00000000000000000000000000001993909d16600160601b026dffff0000000000000000000000001963ffffffff958616600160401b02166dffffffffffff0000000000000000199986166401000000000267ffffffffffffffff199097169590981694909417949094179690961694909417179290921697909717919091179390931692909217909355835184830151925163b1f50f8960e01b8152919263b1f50f89926134039288929091600401614a72565b5f604051808303815f87803b15801561341a575f5ffd5b505af115801561342c573d5f5f3e3d5ffd5b505060405161ffff861692507f284812f41d73696d76ff026c35ebc1a8e8bf24544551c55dd0877334dca88a5691505f90a2505050565b5f8381526002602090815260408083206001600160a01b038616845260078101909252909120805460ff1916600117905560ff82166134df57600181018054600160601b900463ffffffff1690600c6134bb83614abb565b91906101000a81548163ffffffff021916908363ffffffff1602179055505061200f565b5f1960ff83160161350957600181018054600160801b900463ffffffff169060106134bb83614abb565b60011960ff83160161353457600181018054600160a01b900463ffffffff169060146134bb83614abb565b6040516333397b4360e11b815260040160405180910390fd5b606060ff83146135675761356083613618565b9050611562565b818054613573906144f2565b80601f016020809104026020016040519081016040528092919081815260200182805461359f906144f2565b80156135ea5780601f106135c1576101008083540402835291602001916135ea565b820191905f5260205f20905b8154815290600101906020018083116135cd57829003601f168201915b50505050509050611562565b5f61360083613655565b801561361157506136118383613687565b9392505050565b60605f61362483613722565b6040805160208082528183019092529192505f91906020820181803683375050509182525060208101929092525090565b5f613667826301ffc9a760e01b613687565b80156115625750613680826001600160e01b0319613687565b1592915050565b6040516001600160e01b0319821660248201525f90819060440160408051601f19818403018152919052602080820180517bffffffffffffffffffffffffffffffffffffffffffffffffffffffff166301ffc9a760e01b17815282519293505f9283928392909183918a617530fa92503d91505f51905082801561370c575060208210155b801561371757505f81115b979650505050505050565b5f60ff8216601f81111561156257604051632cd44ac360e21b815260040160405180910390fd5b828054828255905f5260205f2090600f01601090048101928215613793575f5260205f2091600f016010900482015b82811115613793578254825591600101919060010190613778565b5061379f929150613899565b5090565b5080545f8255600f0160109004905f5260205f2090810190611ee99190613899565b5080546137d1906144f2565b5f825580601f106137e0575050565b601f0160209004905f5260205f2090810190611ee99190613899565b828054828255905f5260205f2090600f01601090048101928215613793579160200282015f5b8382111561386257835183826101000a81548161ffff021916908361ffff1602179055509260200192600201602081600101049283019260010302613822565b80156138905782816101000a81549061ffff0219169055600201602081600101049283019260010302613862565b505061379f9291505b5b8082111561379f575f815560010161389a565b5f602082840312156138bd575f5ffd5b5035919050565b5f81518084528060208401602086015e5f602082860101526020601f19601f83011685010191505092915050565b602081525f61361160208301846138c4565b803561ffff81168114612504575f5ffd5b5f60208284031215613925575f5ffd5b61361182613904565b5f5f83601f84011261393e575f5ffd5b50813567ffffffffffffffff811115613955575f5ffd5b6020830191508360208260051b850101111561396f575f5ffd5b9250929050565b5f5f5f5f5f5f5f5f60a0898b03121561398d575f5ffd5b61399689613904565b975060208901359650604089013567ffffffffffffffff8111156139b8575f5ffd5b6139c48b828c0161392e565b909750955050606089013567ffffffffffffffff8111156139e3575f5ffd5b6139ef8b828c0161392e565b909550935050608089013567ffffffffffffffff811115613a0e575f5ffd5b613a1a8b828c0161392e565b999c989b5096995094979396929594505050565b5f5f83601f840112613a3e575f5ffd5b50813567ffffffffffffffff811115613a55575f5ffd5b60208301915083602082850101111561396f575f5ffd5b5f5f5f5f60608587031215613a7f575f5ffd5b613a8885613904565b9350602085013567ffffffffffffffff811115613aa3575f5ffd5b613aaf87828801613a2e565b9598909750949560400135949350505050565b5f5f60408385031215613ad3575f5ffd5b50508035926020909101359150565b6001600160a01b0381168114611ee9575f5ffd5b5f5f60408385031215613b07575f5ffd5b823591506020830135613b1981613ae2565b809150509250929050565b634e487b7160e01b5f52604160045260245ffd5b6040805190810167ffffffffffffffff81118282101715613b5b57613b5b613b24565b60405290565b604051610100810167ffffffffffffffff81118282101715613b5b57613b5b613b24565b6040516080810167ffffffffffffffff81118282101715613b5b57613b5b613b24565b604051601f8201601f1916810167ffffffffffffffff81118282101715613bd157613bd1613b24565b604052919050565b5f5f67ffffffffffffffff841115613bf357613bf3613b24565b50601f8301601f1916602001613c0881613ba8565b915050828152838383011115613c1c575f5ffd5b828260208301375f602084830101529392505050565b5f82601f830112613c41575f5ffd5b61361183833560208501613bd9565b5f5f5f5f5f60808688031215613c64575f5ffd5b613c6d86613904565b9450602086013567ffffffffffffffff811115613c88575f5ffd5b613c9488828901613a2e565b90955093505060408601359150606086013567ffffffffffffffff811115613cba575f5ffd5b613cc688828901613c32565b9150509295509295909350565b803560ff81168114612504575f5ffd5b5f60208284031215613cf3575f5ffd5b61361182613cd3565b5f5f5f60608486031215613d0e575f5ffd5b613d1784613cd3565b9250613d2560208501613cd3565b9150613d3360408501613904565b90509250925092565b8015158114611ee9575f5ffd5b5f5f60408385031215613d5a575f5ffd5b8235613d6581613ae2565b91506020830135613b1981613d3c565b5f5f60408385031215613d86575f5ffd5b82359150613d9660208401613cd3565b90509250929050565b6020810160098310613dbf57634e487b7160e01b5f52602160045260245ffd5b91905290565b5f60208284031215613dd5575f5ffd5b813561361181613ae2565b5f5f5f60608486031215613df2575f5ffd5b83359250602084013567ffffffffffffffff811115613e0f575f5ffd5b613e1b86828701613c32565b925050604084013567ffffffffffffffff811115613e37575f5ffd5b613e4386828701613c32565b9150509250925092565b5f5f5f5f60608587031215613e60575f5ffd5b84359350613e7060208601613cd3565b9250604085013567ffffffffffffffff811115613e8b575f5ffd5b613e9787828801613a2e565b95989497509550505050565b5f610100820190508251825263ffffffff602084015116602083015263ffffffff604084015116604083015263ffffffff60608401511660608301526080830151613ef4608084018261ffff169052565b5060a0830151613f0a60a084018261ffff169052565b5060c0830151613f1f60c084018260ff169052565b5060e0830151613f3460e084018260ff169052565b5092915050565b60ff60f81b8816815260e060208201525f613f5960e08301896138c4565b8281036040840152613f6b81896138c4565b606084018890526001600160a01b038716608085015260a0840186905283810360c0850152845180825260208087019350909101905f5b81811015613fc0578351835260209384019390920191600101613fa2565b50909b9a5050505050505050505050565b5f67ffffffffffffffff821115613fea57613fea613b24565b5060051b60200190565b5f60408284031215614004575f5ffd5b61400c613b38565b9050813567ffffffffffffffff811115614024575f5ffd5b8201601f81018413614034575f5ffd5b803561404761404282613fd1565b613ba8565b8082825260208201915060208360051b850101925086831115614068575f5ffd5b6020840193505b828410156140915761408084613904565b82526020938401939091019061406f565b8452505050602082013567ffffffffffffffff8111156140af575f5ffd5b6140bb84828501613c32565b60208301525092915050565b5f5f604083850312156140d8575f5ffd5b82356140e381613ae2565b9150602083013567ffffffffffffffff8111156140fe575f5ffd5b8301601f8101851361410e575f5ffd5b803561411c61404282613fd1565b8082825260208201915060208360051b85010192508783111561413d575f5ffd5b602084015b8381101561417e57803567ffffffffffffffff811115614160575f5ffd5b61416f8a602083890101613ff4565b84525060209283019201614142565b50809450505050509250929050565b5f5f6040838503121561419e575f5ffd5b6141a783613904565b946020939093013593505050565b5f5f604083850312156141c6575f5ffd5b82356141d181613ae2565b9150613d9660208401613904565b5f8151808452602084019350602083015f5b8281101561421357815161ffff168652602095860195909101906001016141f1565b5093949350505050565b602081525f61361160208301846141df565b5f6020828403121561423f575f5ffd5b813567ffffffffffffffff811115614255575f5ffd5b61426184828501613c32565b949350505050565b5f60208284031215614279575f5ffd5b813567ffffffffffffffff81111561428f575f5ffd5b61426184828501613ff4565b803563ffffffff81168114612504575f5ffd5b5f61010082840312156142bf575f5ffd5b6142c7613b61565b8235815290506142d96020830161429b565b60208201526142ea6040830161429b565b60408201526142fb6060830161429b565b606082015261430c60808301613904565b608082015261431d60a08301613904565b60a082015261432e60c08301613cd3565b60c082015261433f60e08301613cd3565b60e082015292915050565b5f610160828403121561435b575f5ffd5b614363613b85565b9050813567ffffffffffffffff81111561437b575f5ffd5b61438784828501613c32565b825250602082013561439881613ae2565b6020820152604082013567ffffffffffffffff8111156143b6575f5ffd5b8201601f810184136143c6575f5ffd5b6143d584823560208401613bd9565b6040830152506143e883606084016142ae565b606082015292915050565b5f60208284031215614403575f5ffd5b813567ffffffffffffffff811115614419575f5ffd5b6142618482850161434a565b5f5f60408385031215614436575f5ffd5b82356141a781613ae2565b5f60208284031215614451575f5ffd5b813567ffffffffffffffff811115614467575f5ffd5b8201601f81018413614477575f5ffd5b803561448561404282613fd1565b8082825260208201915060208360051b8501019250868311156144a6575f5ffd5b602084015b838110156144e757803567ffffffffffffffff8111156144c9575f5ffd5b6144d88960208389010161434a565b845250602092830192016144ab565b509695505050505050565b600181811c9082168061450657607f821691505b60208210810361452457634e487b7160e01b5f52602260045260245ffd5b50919050565b634e487b7160e01b5f52603260045260245ffd5b5f5f8335601e19843603018112614553575f5ffd5b83018035915067ffffffffffffffff82111561456d575f5ffd5b60200191503681900382131561396f575f5ffd5b818382375f9101908152919050565b601f8211156145d757805f5260205f20601f840160051c810160208510156145b55750805b601f840160051c820191505b818110156145d4575f81556001016145c1565b50505b505050565b815167ffffffffffffffff8111156145f6576145f6613b24565b61460a8161460484546144f2565b84614590565b6020601f82116001811461463f575f83156146255750848201515b600184901b5f19600386901b1c198216175b8555506145d4565b5f84815260208120601f198516915b8281101561466e578785015182556020948501946001909201910161464e565b508482101561468b57868401515f19600387901b60f8161c191681555b50505050600190811b01905550565b81835281816020850137505f828201602090810191909152601f909101601f19169091010190565b61ffff85168152606060208201525f6146df60608301858761469a565b905082604083015295945050505050565b5f60208284031215614700575f5ffd5b5051919050565b634e487b7160e01b5f52601160045260245ffd5b65ffffffffffff818116838216019081111561156257611562614707565b67ffffffffffffffff83111561475157614751613b24565b6147658361475f83546144f2565b83614590565b5f601f841160018114614796575f851561477f5750838201355b5f19600387901b1c1916600186901b1783556145d4565b5f83815260208120601f198716915b828110156147c557868501358255602094850194600190920191016147a5565b50868210156147e1575f1960f88860031b161c19848701351681555b505060018560011b0183555050505050565b8082018082111561156257611562614707565b60c081525f60c082015260e060208201525f61482660e08301888a61469a565b86604084015285606084015284608084015282810360a084015261484a81856138c4565b9998505050505050505050565b8181038181111561156257611562614707565b818103614875575050565b61487f82546144f2565b67ffffffffffffffff81111561489757614897613b24565b6148a58161460484546144f2565b5f601f8211600181146148d4575f8315614625575081850154600184901b5f19600386901b1c19821617614637565b5f8581526020808220868352908220601f198616925b8381101561490a57828601548255600195860195909101906020016148ea565b508583101561492757818501545f19600388901b60f8161c191681555b5050505050600190811b01905550565b634e487b7160e01b5f52603160045260245ffd5b604081525f61495d60408301856141df565b828103602084015261228b81856138c4565b61ffff8716815260a060208201525f61498c60a08301878961469a565b6001600160a01b0395909516604083015250606081019290925265ffffffffffff166080909101529392505050565b6001600160a01b038616815261ffff85166020820152608060408201525f6149e760808301858761469a565b90508260608301529695505050505050565b5f60208284031215614a09575f5ffd5b815161361181613d3c565b606081525f614a2760608301868861469a565b846020840152828103604084015261371781856138c4565b63ffffffff818116838216019081111561156257611562614707565b808202811582820484141761156257611562614707565b61ffff84168152608060208201525f614a8e60808301856138c4565b8281038060408501525f825260208101606085015250614ab160208201856138c4565b9695505050505050565b5f63ffffffff821663ffffffff8103614ad657614ad6614707565b6001019291505056fea26469706673582212201deef8e02407b98c1d321fcaf52eaa3da9276dd513611e26e8a5a4935742d6bf64736f6c634300081e0033","linkReferences":{}},"methodIdentifiers":{"ADMIN_ROLE()":"75b238fc","DENOMINATOR()":"918f8674","FOUNDED_AT()":"5532f99b","MAX_CALLDATA_LENGTH()":"edf2a596","MAX_EXECUTIONS_LENGTH()":"f6226e7c","MAX_RETURN_DATA_LENGTH()":"7c1b5539","PUBLIC_ROLE()":"3ca7c02a","addFlow((uint16[],string))":"a3751098","adoptMandate((string,address,bytes,(uint256,uint32,uint32,uint32,uint16,uint16,uint8,uint8)))":"b4497115","assignRole(uint256,address)":"685b824a","blacklistAddress(address,bool)":"455a4396","canCallMandate(address,uint16)":"93d7dae5","cancel(uint16,bytes,uint256)":"12561b1a","castVote(uint256,uint8)":"56781388","castVoteWithReason(uint256,uint8,string)":"7b3c71d3","closeConstitute()":"0d7abeaa","closeConstitute(address)":"7258883f","closeConstitute(address,(uint16[],string)[])":"8973be04","constitute((string,address,bytes,(uint256,uint32,uint32,uint32,uint16,uint16,uint8,uint8))[])":"fc2d96d0","editFlowByIndex(uint8,uint8,uint16)":"3fc42d2e","eip712Domain()":"84b0196e","flows(uint256)":"8180d29e","fulfill(uint16,uint256,address[],uint256[],bytes[])":"0de6a601","getActionCalldata(uint256)":"d902bf3a","getActionData(uint256)":"4583476b","getActionReturnData(uint256,uint256)":"41bd157d","getActionState(uint256)":"666ca2d6","getActionUri(uint256)":"f2a0bb75","getActionVoteData(uint256)":"2179e04e","getAdoptedMandate(uint16)":"1031bdb0","getAmountFlows()":"23b1971b","getAmountRoleHolders(uint256)":"b4324dd3","getConditions(uint16)":"831af379","getFlowDescriptionAtIndex(uint8)":"36126216","getFlowMandatesAtIndex(uint8)":"9a0435d4","getLatestFulfillment(uint16)":"040b8c24","getMandateActionAtIndex(uint16,uint256)":"8a4359e0","getMandateCounter()":"055dbe10","getQuantityMandateActions(uint16)":"edfd2e87","getRoleHolderAtIndex(uint256,uint256)":"199093bb","getRoleLabel(uint256)":"0398f05f","getRoleMetadata(uint256)":"2d90fe5f","getTreasury()":"3b19e84a","hasRoleSince(address,uint256)":"cc5812cf","hasVoted(uint256,address)":"43859632","isBlacklisted(address)":"fe575a87","labelRole(uint256,string,string)":"76ff7577","mandateCounter()":"e88efe35","name()":"06fdde03","propose(uint16,bytes,uint256,string)":"2e2d8253","removeFlow(uint8)":"519fcfb0","request(uint16,bytes,uint256,string)":"ebef6d97","revokeMandate(uint16)":"b367cac0","revokeRole(uint256,address)":"1d0b19e7","setTreasury(address)":"f0f44260","setUri(string)":"9b642de1","uri()":"eac989f8","version()":"54fd4d50"},"id":123}