{"abi":[{"type":"constructor","inputs":[],"stateMutability":"nonpayable"},{"type":"function","name":"CLOCK_MODE","inputs":[],"outputs":[{"name":"","type":"string","internalType":"string"}],"stateMutability":"view"},{"type":"function","name":"allowance","inputs":[{"name":"owner","type":"address","internalType":"address"},{"name":"spender","type":"address","internalType":"address"}],"outputs":[{"name":"","type":"uint256","internalType":"uint256"}],"stateMutability":"view"},{"type":"function","name":"approve","inputs":[{"name":"spender","type":"address","internalType":"address"},{"name":"value","type":"uint256","internalType":"uint256"}],"outputs":[{"name":"","type":"bool","internalType":"bool"}],"stateMutability":"nonpayable"},{"type":"function","name":"balanceOf","inputs":[{"name":"account","type":"address","internalType":"address"}],"outputs":[{"name":"","type":"uint256","internalType":"uint256"}],"stateMutability":"view"},{"type":"function","name":"checkpoints","inputs":[{"name":"account","type":"address","internalType":"address"},{"name":"pos","type":"uint32","internalType":"uint32"}],"outputs":[{"name":"","type":"tuple","internalType":"struct Checkpoints.Checkpoint208","components":[{"name":"_key","type":"uint48","internalType":"uint48"},{"name":"_value","type":"uint208","internalType":"uint208"}]}],"stateMutability":"view"},{"type":"function","name":"clock","inputs":[],"outputs":[{"name":"","type":"uint48","internalType":"uint48"}],"stateMutability":"view"},{"type":"function","name":"decimals","inputs":[],"outputs":[{"name":"","type":"uint8","internalType":"uint8"}],"stateMutability":"view"},{"type":"function","name":"delegate","inputs":[{"name":"delegatee","type":"address","internalType":"address"}],"outputs":[],"stateMutability":"nonpayable"},{"type":"function","name":"delegateBySig","inputs":[{"name":"delegatee","type":"address","internalType":"address"},{"name":"nonce","type":"uint256","internalType":"uint256"},{"name":"expiry","type":"uint256","internalType":"uint256"},{"name":"v","type":"uint8","internalType":"uint8"},{"name":"r","type":"bytes32","internalType":"bytes32"},{"name":"s","type":"bytes32","internalType":"bytes32"}],"outputs":[],"stateMutability":"nonpayable"},{"type":"function","name":"delegates","inputs":[{"name":"account","type":"address","internalType":"address"}],"outputs":[{"name":"","type":"address","internalType":"address"}],"stateMutability":"view"},{"type":"function","name":"eip712Domain","inputs":[],"outputs":[{"name":"fields","type":"bytes1","internalType":"bytes1"},{"name":"name","type":"string","internalType":"string"},{"name":"version","type":"string","internalType":"string"},{"name":"chainId","type":"uint256","internalType":"uint256"},{"name":"verifyingContract","type":"address","internalType":"address"},{"name":"salt","type":"bytes32","internalType":"bytes32"},{"name":"extensions","type":"uint256[]","internalType":"uint256[]"}],"stateMutability":"view"},{"type":"function","name":"getPastTotalSupply","inputs":[{"name":"timepoint","type":"uint256","internalType":"uint256"}],"outputs":[{"name":"","type":"uint256","internalType":"uint256"}],"stateMutability":"view"},{"type":"function","name":"getPastVotes","inputs":[{"name":"account","type":"address","internalType":"address"},{"name":"timepoint","type":"uint256","internalType":"uint256"}],"outputs":[{"name":"","type":"uint256","internalType":"uint256"}],"stateMutability":"view"},{"type":"function","name":"getVotes","inputs":[{"name":"account","type":"address","internalType":"address"}],"outputs":[{"name":"","type":"uint256","internalType":"uint256"}],"stateMutability":"view"},{"type":"function","name":"mint","inputs":[{"name":"to","type":"address","internalType":"address"},{"name":"amount","type":"uint256","internalType":"uint256"}],"outputs":[],"stateMutability":"nonpayable"},{"type":"function","name":"mint","inputs":[{"name":"amount","type":"uint256","internalType":"uint256"}],"outputs":[],"stateMutability":"nonpayable"},{"type":"function","name":"name","inputs":[],"outputs":[{"name":"","type":"string","internalType":"string"}],"stateMutability":"view"},{"type":"function","name":"nonces","inputs":[{"name":"owner","type":"address","internalType":"address"}],"outputs":[{"name":"","type":"uint256","internalType":"uint256"}],"stateMutability":"view"},{"type":"function","name":"numCheckpoints","inputs":[{"name":"account","type":"address","internalType":"address"}],"outputs":[{"name":"","type":"uint32","internalType":"uint32"}],"stateMutability":"view"},{"type":"function","name":"symbol","inputs":[],"outputs":[{"name":"","type":"string","internalType":"string"}],"stateMutability":"view"},{"type":"function","name":"totalSupply","inputs":[],"outputs":[{"name":"","type":"uint256","internalType":"uint256"}],"stateMutability":"view"},{"type":"function","name":"transfer","inputs":[{"name":"to","type":"address","internalType":"address"},{"name":"value","type":"uint256","internalType":"uint256"}],"outputs":[{"name":"","type":"bool","internalType":"bool"}],"stateMutability":"nonpayable"},{"type":"function","name":"transferFrom","inputs":[{"name":"from","type":"address","internalType":"address"},{"name":"to","type":"address","internalType":"address"},{"name":"value","type":"uint256","internalType":"uint256"}],"outputs":[{"name":"","type":"bool","internalType":"bool"}],"stateMutability":"nonpayable"},{"type":"event","name":"Approval","inputs":[{"name":"owner","type":"address","indexed":true,"internalType":"address"},{"name":"spender","type":"address","indexed":true,"internalType":"address"},{"name":"value","type":"uint256","indexed":false,"internalType":"uint256"}],"anonymous":false},{"type":"event","name":"DelegateChanged","inputs":[{"name":"delegator","type":"address","indexed":true,"internalType":"address"},{"name":"fromDelegate","type":"address","indexed":true,"internalType":"address"},{"name":"toDelegate","type":"address","indexed":true,"internalType":"address"}],"anonymous":false},{"type":"event","name":"DelegateVotesChanged","inputs":[{"name":"delegate","type":"address","indexed":true,"internalType":"address"},{"name":"previousVotes","type":"uint256","indexed":false,"internalType":"uint256"},{"name":"newVotes","type":"uint256","indexed":false,"internalType":"uint256"}],"anonymous":false},{"type":"event","name":"EIP712DomainChanged","inputs":[],"anonymous":false},{"type":"event","name":"Transfer","inputs":[{"name":"from","type":"address","indexed":true,"internalType":"address"},{"name":"to","type":"address","indexed":true,"internalType":"address"},{"name":"value","type":"uint256","indexed":false,"internalType":"uint256"}],"anonymous":false},{"type":"error","name":"CheckpointUnorderedInsertion","inputs":[]},{"type":"error","name":"ECDSAInvalidSignature","inputs":[]},{"type":"error","name":"ECDSAInvalidSignatureLength","inputs":[{"name":"length","type":"uint256","internalType":"uint256"}]},{"type":"error","name":"ECDSAInvalidSignatureS","inputs":[{"name":"s","type":"bytes32","internalType":"bytes32"}]},{"type":"error","name":"ERC20ExceededSafeSupply","inputs":[{"name":"increasedSupply","type":"uint256","internalType":"uint256"},{"name":"cap","type":"uint256","internalType":"uint256"}]},{"type":"error","name":"ERC20InsufficientAllowance","inputs":[{"name":"spender","type":"address","internalType":"address"},{"name":"allowance","type":"uint256","internalType":"uint256"},{"name":"needed","type":"uint256","internalType":"uint256"}]},{"type":"error","name":"ERC20InsufficientBalance","inputs":[{"name":"sender","type":"address","internalType":"address"},{"name":"balance","type":"uint256","internalType":"uint256"},{"name":"needed","type":"uint256","internalType":"uint256"}]},{"type":"error","name":"ERC20InvalidApprover","inputs":[{"name":"approver","type":"address","internalType":"address"}]},{"type":"error","name":"ERC20InvalidReceiver","inputs":[{"name":"receiver","type":"address","internalType":"address"}]},{"type":"error","name":"ERC20InvalidSender","inputs":[{"name":"sender","type":"address","internalType":"address"}]},{"type":"error","name":"ERC20InvalidSpender","inputs":[{"name":"spender","type":"address","internalType":"address"}]},{"type":"error","name":"ERC5805FutureLookup","inputs":[{"name":"timepoint","type":"uint256","internalType":"uint256"},{"name":"clock","type":"uint48","internalType":"uint48"}]},{"type":"error","name":"ERC6372InconsistentClock","inputs":[]},{"type":"error","name":"Erc20Votes__AmountExceedsMax","inputs":[{"name":"amount","type":"uint256","internalType":"uint256"},{"name":"maxAmount","type":"uint256","internalType":"uint256"}]},{"type":"error","name":"Erc20Votes__NoZeroAddress","inputs":[]},{"type":"error","name":"Erc20Votes__NoZeroAmount","inputs":[]},{"type":"error","name":"InvalidAccountNonce","inputs":[{"name":"account","type":"address","internalType":"address"},{"name":"currentNonce","type":"uint256","internalType":"uint256"}]},{"type":"error","name":"InvalidShortString","inputs":[]},{"type":"error","name":"SafeCastOverflowedUintDowncast","inputs":[{"name":"bits","type":"uint8","internalType":"uint8"},{"name":"value","type":"uint256","internalType":"uint256"}]},{"type":"error","name":"StringTooLong","inputs":[{"name":"str","type":"string","internalType":"string"}]},{"type":"error","name":"VotesExpiredSignature","inputs":[{"name":"expiry","type":"uint256","internalType":"uint256"}]}],"bytecode":{"object":"0x610160604052348015610010575f5ffd5b5060405180604001604052806005815260200164566f74657360d81b8152506040518060400160405280600381526020016218171960e91b81525060405180604001604052806005815260200164566f74657360d81b8152506040518060400160405280600381526020016256545360e81b8152508160039081610094919061026a565b5060046100a1828261026a565b506100b19150839050600561015a565b610120526100c081600661015a565b61014052815160208084019190912060e052815190820120610100524660a05261014c60e05161010051604080517f8b73c3c69bb8fe3d512ecc4cf759cc79239f7b179b0ffacaa9a75d522b39400f60208201529081019290925260608201524660808201523060a08201525f9060c00160405160208183030381529060405280519060200120905090565b60805250503060c05261037c565b5f6020835110156101755761016e8361018c565b9050610186565b81610180848261026a565b5060ff90505b92915050565b5f5f829050601f815111156101bf578260405163305a27a960e01b81526004016101b69190610324565b60405180910390fd5b80516101ca82610359565b179392505050565b634e487b7160e01b5f52604160045260245ffd5b600181811c908216806101fa57607f821691505b60208210810361021857634e487b7160e01b5f52602260045260245ffd5b50919050565b601f82111561026557805f5260205f20601f840160051c810160208510156102435750805b601f840160051c820191505b81811015610262575f815560010161024f565b50505b505050565b81516001600160401b03811115610283576102836101d2565b6102978161029184546101e6565b8461021e565b6020601f8211600181146102c9575f83156102b25750848201515b5f19600385901b1c1916600184901b178455610262565b5f84815260208120601f198516915b828110156102f857878501518255602094850194600190920191016102d8565b508482101561031557868401515f19600387901b60f8161c191681555b50505050600190811b01905550565b602081525f82518060208401528060208501604085015e5f604082850101526040601f19601f83011684010191505092915050565b80516020808301519190811015610218575f1960209190910360031b1b16919050565b60805160a05160c05160e051610100516101205161014051611d2c6103cd5f395f610baf01525f610b8201525f61129d01525f61127501525f6111d001525f6111fa01525f6112240152611d2c5ff3fe608060405234801561000f575f5ffd5b5060043610610184575f3560e01c806370a08231116100dd5780639ab24eb011610088578063c3cda52011610063578063c3cda52014610389578063dd62ed3e1461039c578063f1127ed8146103d4575f5ffd5b80639ab24eb014610350578063a0712d6814610363578063a9059cbb14610376575f5ffd5b80638e539e8c116100b85780638e539e8c1461031657806391ddadf41461032957806395d89b4114610348575f5ffd5b806370a08231146102ab5780637ecebe00146102d357806384b0196e146102fb575f5ffd5b80633a46b1a81161013d578063587cde1e11610118578063587cde1e1461022d5780635c19a95c146102705780636fcfff4514610283575f5ffd5b80633a46b1a8146101fd57806340c10f19146102105780634bf5d7e914610225575f5ffd5b806318160ddd1161016d57806318160ddd146101c957806323b872dd146101db578063313ce567146101ee575f5ffd5b806306fdde0314610188578063095ea7b3146101a6575b5f5ffd5b610190610413565b60405161019d91906119cd565b60405180910390f35b6101b96101b43660046119fa565b6104a3565b604051901515815260200161019d565b6002545b60405190815260200161019d565b6101b96101e9366004611a22565b6104bc565b6040516012815260200161019d565b6101cd61020b3660046119fa565b6104df565b61022361021e3660046119fa565b610563565b005b6101906105f4565b61025861023b366004611a5c565b6001600160a01b039081165f908152600860205260409020541690565b6040516001600160a01b03909116815260200161019d565b61022361027e366004611a5c565b61066c565b610296610291366004611a5c565b610677565b60405163ffffffff909116815260200161019d565b6101cd6102b9366004611a5c565b6001600160a01b03165f9081526020819052604090205490565b6101cd6102e1366004611a5c565b6001600160a01b03165f9081526007602052604090205490565b610303610681565b60405161019d9796959493929190611a75565b6101cd610324366004611b0b565b6106c3565b61033161072c565b60405165ffffffffffff909116815260200161019d565b61019061073a565b6101cd61035e366004611a5c565b610749565b610223610371366004611b0b565b610778565b6101b96103843660046119fa565b6107e1565b610223610397366004611b22565b6107ee565b6101cd6103aa366004611b7d565b6001600160a01b039182165f90815260016020908152604080832093909416825291909152205490565b6103e76103e2366004611bae565b6108aa565b60408051825165ffffffffffff1681526020928301516001600160d01b0316928101929092520161019d565b60606003805461042290611beb565b80601f016020809104026020016040519081016040528092919081815260200182805461044e90611beb565b80156104995780601f1061047057610100808354040283529160200191610499565b820191905f5260205f20905b81548152906001019060200180831161047c57829003601f168201915b5050505050905090565b5f336104b08185856108ce565b60019150505b92915050565b5f336104c98582856108e0565b6104d485858561095b565b506001949350505050565b5f5f6104e961072c565b90508065ffffffffffff16831061052957604051637669fc0f60e11b81526004810184905265ffffffffffff821660248201526044015b60405180910390fd5b610552610535846109b8565b6001600160a01b0386165f908152600960205260409020906109ee565b6001600160d01b0316949350505050565b6001600160a01b03821661058a5760405163176d8d5560e11b815260040160405180910390fd5b805f036105aa57604051635bcf558960e01b815260040160405180910390fd5b68056bc75e2d631000008111156105e6576040516369003ff160e01b81526004810182905268056bc75e2d631000006024820152604401610520565b6105f08282610a9e565b5050565b60606105fe610ad2565b65ffffffffffff1661060e61072c565b65ffffffffffff1614610634576040516301bfc1c560e61b815260040160405180910390fd5b5060408051808201909152601d81527f6d6f64653d626c6f636b6e756d6265722666726f6d3d64656661756c74000000602082015290565b336105f08183610adc565b5f6104b682610b5a565b5f6060805f5f5f6060610692610b7b565b61069a610ba8565b604080515f80825260208201909252600f60f81b9b939a50919850469750309650945092509050565b5f5f6106cd61072c565b90508065ffffffffffff16831061070857604051637669fc0f60e11b81526004810184905265ffffffffffff82166024820152604401610520565b61071c610714846109b8565b600a906109ee565b6001600160d01b03169392505050565b5f610735610ad2565b905090565b60606004805461042290611beb565b6001600160a01b0381165f90815260096020526040812061076990610bd5565b6001600160d01b031692915050565b805f0361079857604051635bcf558960e01b815260040160405180910390fd5b68056bc75e2d631000008111156107d4576040516369003ff160e01b81526004810182905268056bc75e2d631000006024820152604401610520565b6107de3382610a9e565b50565b5f336104b081858561095b565b8342111561081257604051632341d78760e11b815260048101859052602401610520565b604080517fe48329057bfd03d55e49b547132e39cffd9c1820ad7b9d4c5307691425d15adf60208201526001600160a01b0388169181019190915260608101869052608081018590525f9061088b906108839060a00160405160208183030381529060405280519060200120610c0c565b858585610c38565b90506108978187610c64565b6108a18188610adc565b50505050505050565b604080518082019091525f80825260208201526108c78383610cb6565b9392505050565b6108db8383836001610cea565b505050565b6001600160a01b038381165f908152600160209081526040808320938616835292905220545f198114610955578181101561094757604051637dc7a0d960e11b81526001600160a01b03841660048201526024810182905260448101839052606401610520565b61095584848484035f610cea565b50505050565b6001600160a01b03831661098457604051634b637e8f60e11b81525f6004820152602401610520565b6001600160a01b0382166109ad5760405163ec442f0560e01b81525f6004820152602401610520565b6108db838383610dbc565b5f65ffffffffffff8211156109ea576040516306dfcc6560e41b81526030600482015260248101839052604401610520565b5090565b81545f9081816005811115610a4a575f610a0784610e22565b610a119085611c37565b5f8881526020902090915081015465ffffffffffff9081169087161015610a3a57809150610a48565b610a45816001611c4a565b92505b505b5f610a5787878585610f06565b90508015610a9157610a7b87610a6e600184611c37565b5f91825260209091200190565b54600160301b90046001600160d01b0316610a93565b5f5b979650505050505050565b6001600160a01b038216610ac75760405163ec442f0560e01b81525f6004820152602401610520565b6105f05f8383610dbc565b5f610735436109b8565b6001600160a01b038281165f81815260086020526040808220805486861673ffffffffffffffffffffffffffffffffffffffff19821681179092559151919094169392849290917f3134e8a2e6d97e929a7e54011ea5485d7d196dd5f0ba4d4ef95803e8e3fc257f9190a46108db8183610b5586610f65565b610f82565b6001600160a01b0381165f908152600960205260408120546104b6906110eb565b60606107357f0000000000000000000000000000000000000000000000000000000000000000600561111b565b60606107357f0000000000000000000000000000000000000000000000000000000000000000600661111b565b80545f908015610c0457610bee83610a6e600184611c37565b54600160301b90046001600160d01b03166108c7565b5f9392505050565b5f6104b6610c186111c4565b8360405161190160f01b8152600281019290925260228201526042902090565b5f5f5f5f610c48888888886112ed565b925092509250610c5882826113b5565b50909695505050505050565b6001600160a01b0382165f9081526007602052604090208054600181019091558181146108db576040516301d4b62360e61b81526001600160a01b038416600482015260248101829052604401610520565b604080518082019091525f80825260208201526001600160a01b0383165f9081526009602052604090206108c7908361146d565b6001600160a01b038416610d135760405163e602df0560e01b81525f6004820152602401610520565b6001600160a01b038316610d3c57604051634a1406b160e11b81525f6004820152602401610520565b6001600160a01b038085165f908152600160209081526040808320938716835292905220829055801561095557826001600160a01b0316846001600160a01b03167f8c5be1e5ebec7d5bd14f71427d1e84f3dd0314c0f7b2291e5b200ac8c7c3b92584604051610dae91815260200190565b60405180910390a350505050565b610dc78383836114da565b6001600160a01b038316610e17575f610ddf60025490565b90506001600160d01b0380821115610e1457604051630e58ae9360e11b81526004810183905260248101829052604401610520565b50505b6108db838383611600565b5f815f03610e3157505f919050565b5f6001610e3d84611675565b901c6001901b90506001818481610e5657610e56611c5d565b048201901c90506001818481610e6e57610e6e611c5d565b048201901c90506001818481610e8657610e86611c5d565b048201901c90506001818481610e9e57610e9e611c5d565b048201901c90506001818481610eb657610eb6611c5d565b048201901c90506001818481610ece57610ece611c5d565b048201901c90506001818481610ee657610ee6611c5d565b048201901c90506108c781828581610f0057610f00611c5d565b04611708565b5f5b81831015610f5d575f610f1b848461171d565b5f8781526020902090915065ffffffffffff86169082015465ffffffffffff161115610f4957809250610f57565b610f54816001611c4a565b93505b50610f08565b509392505050565b6001600160a01b0381165f908152602081905260408120546104b6565b816001600160a01b0316836001600160a01b031614158015610fa357505f81115b156108db576001600160a01b0383161561104a576001600160a01b0383165f9081526009602052604081208190610fe590611737610fe086611742565b611775565b6001600160d01b031691506001600160d01b03169150846001600160a01b03167fdec2bacdd2f05b59de34da9b523dff8be42e5e38e818c82fdb0bae774387a724838360405161103f929190918252602082015260400190565b60405180910390a250505b6001600160a01b038216156108db576001600160a01b0382165f9081526009602052604081208190611082906117ad610fe086611742565b6001600160d01b031691506001600160d01b03169150836001600160a01b03167fdec2bacdd2f05b59de34da9b523dff8be42e5e38e818c82fdb0bae774387a72483836040516110dc929190918252602082015260400190565b60405180910390a25050505050565b5f63ffffffff8211156109ea576040516306dfcc6560e41b81526020600482015260248101839052604401610520565b606060ff83146111355761112e836117b8565b90506104b6565b81805461114190611beb565b80601f016020809104026020016040519081016040528092919081815260200182805461116d90611beb565b80156111b85780601f1061118f576101008083540402835291602001916111b8565b820191905f5260205f20905b81548152906001019060200180831161119b57829003601f168201915b505050505090506104b6565b5f306001600160a01b037f00000000000000000000000000000000000000000000000000000000000000001614801561121c57507f000000000000000000000000000000000000000000000000000000000000000046145b1561124657507f000000000000000000000000000000000000000000000000000000000000000090565b610735604080517f8b73c3c69bb8fe3d512ecc4cf759cc79239f7b179b0ffacaa9a75d522b39400f60208201527f0000000000000000000000000000000000000000000000000000000000000000918101919091527f000000000000000000000000000000000000000000000000000000000000000060608201524660808201523060a08201525f9060c00160405160208183030381529060405280519060200120905090565b5f80807f7fffffffffffffffffffffffffffffff5d576e7357a4501ddfe92f46681b20a084111561132657505f915060039050826113ab565b604080515f808252602082018084528a905260ff891692820192909252606081018790526080810186905260019060a0016020604051602081039080840390855afa158015611377573d5f5f3e3d5ffd5b5050604051601f1901519150506001600160a01b0381166113a257505f9250600191508290506113ab565b92505f91508190505b9450945094915050565b5f8260038111156113c8576113c8611c71565b036113d1575050565b60018260038111156113e5576113e5611c71565b036114035760405163f645eedf60e01b815260040160405180910390fd5b600282600381111561141757611417611c71565b036114385760405163fce698f760e01b815260048101829052602401610520565b600382600381111561144c5761144c611c71565b036105f0576040516335e2f38360e21b815260048101829052602401610520565b604080518082019091525f8082526020820152825f018263ffffffff168154811061149a5761149a611c85565b5f9182526020918290206040805180820190915291015465ffffffffffff81168252600160301b90046001600160d01b0316918101919091529392505050565b6001600160a01b038316611504578060025f8282546114f99190611c4a565b909155506115749050565b6001600160a01b0383165f90815260208190526040902054818110156115565760405163391434e360e21b81526001600160a01b03851660048201526024810182905260448101839052606401610520565b6001600160a01b0384165f9081526020819052604090209082900390555b6001600160a01b038216611590576002805482900390556115ae565b6001600160a01b0382165f9081526020819052604090208054820190555b816001600160a01b0316836001600160a01b03167fddf252ad1be2c89b69c2b068fc378daa952ba7f163c4a11628f55a4df523b3ef836040516115f391815260200190565b60405180910390a3505050565b6001600160a01b0383166116225761161f600a6117ad610fe084611742565b50505b6001600160a01b03821661164457611641600a611737610fe084611742565b50505b6001600160a01b038381165f908152600860205260408082205485841683529120546108db92918216911683610f82565b5f80608083901c1561168957608092831c92015b604083901c1561169b57604092831c92015b602083901c156116ad57602092831c92015b601083901c156116bf57601092831c92015b600883901c156116d157600892831c92015b600483901c156116e357600492831c92015b600283901c156116f557600292831c92015b600183901c156104b65760010192915050565b5f81831061171657816108c7565b5090919050565b5f61172b6002848418611c99565b6108c790848416611c4a565b5f6108c78284611cb8565b5f6001600160d01b038211156109ea576040516306dfcc6560e41b815260d0600482015260248101839052604401610520565b5f5f6117a061178261072c565b61179861178e88610bd5565b868863ffffffff16565b8791906117f5565b915091505b935093915050565b5f6108c78284611cd7565b60605f6117c483611802565b6040805160208082528183019092529192505f91906020820181803683375050509182525060208101929092525090565b5f806117a0858585611829565b5f60ff8216601f8111156104b657604051632cd44ac360e21b815260040160405180910390fd5b82545f9081908015611945575f61184587610a6e600185611c37565b60408051808201909152905465ffffffffffff808216808452600160301b9092046001600160d01b03166020840152919250908716101561189957604051632520601d60e01b815260040160405180910390fd5b805165ffffffffffff8088169116036118e557846118bc88610a6e600186611c37565b80546001600160d01b0392909216600160301b0265ffffffffffff909216919091179055611935565b6040805180820190915265ffffffffffff80881682526001600160d01b0380881660208085019182528b54600181018d555f8d81529190912094519151909216600160301b029216919091179101555b6020015192508391506117a59050565b50506040805180820190915265ffffffffffff80851682526001600160d01b0380851660208085019182528854600181018a555f8a815291822095519251909316600160301b0291909316179201919091559050816117a5565b5f81518084528060208401602086015e5f602082860101526020601f19601f83011685010191505092915050565b602081525f6108c7602083018461199f565b80356001600160a01b03811681146119f5575f5ffd5b919050565b5f5f60408385031215611a0b575f5ffd5b611a14836119df565b946020939093013593505050565b5f5f5f60608486031215611a34575f5ffd5b611a3d846119df565b9250611a4b602085016119df565b929592945050506040919091013590565b5f60208284031215611a6c575f5ffd5b6108c7826119df565b60ff60f81b8816815260e060208201525f611a9360e083018961199f565b8281036040840152611aa5818961199f565b606084018890526001600160a01b038716608085015260a0840186905283810360c0850152845180825260208087019350909101905f5b81811015611afa578351835260209384019390920191600101611adc565b50909b9a5050505050505050505050565b5f60208284031215611b1b575f5ffd5b5035919050565b5f5f5f5f5f5f60c08789031215611b37575f5ffd5b611b40876119df565b95506020870135945060408701359350606087013560ff81168114611b63575f5ffd5b9598949750929560808101359460a0909101359350915050565b5f5f60408385031215611b8e575f5ffd5b611b97836119df565b9150611ba5602084016119df565b90509250929050565b5f5f60408385031215611bbf575f5ffd5b611bc8836119df565b9150602083013563ffffffff81168114611be0575f5ffd5b809150509250929050565b600181811c90821680611bff57607f821691505b602082108103611c1d57634e487b7160e01b5f52602260045260245ffd5b50919050565b634e487b7160e01b5f52601160045260245ffd5b818103818111156104b6576104b6611c23565b808201808211156104b6576104b6611c23565b634e487b7160e01b5f52601260045260245ffd5b634e487b7160e01b5f52602160045260245ffd5b634e487b7160e01b5f52603260045260245ffd5b5f82611cb357634e487b7160e01b5f52601260045260245ffd5b500490565b6001600160d01b0382811682821603908111156104b6576104b6611c23565b6001600160d01b0381811683821601908111156104b6576104b6611c2356fea2646970667358221220b002601af334eb038228b3d4696d5181966e58f0297014306a4893420c6e5cac64736f6c634300081e0033","linkReferences":{}},"methodIdentifiers":{"CLOCK_MODE()":"4bf5d7e9","allowance(address,address)":"dd62ed3e","approve(address,uint256)":"095ea7b3","balanceOf(address)":"70a08231","checkpoints(address,uint32)":"f1127ed8","clock()":"91ddadf4","decimals()":"313ce567","delegate(address)":"5c19a95c","delegateBySig(address,uint256,uint256,uint8,bytes32,bytes32)":"c3cda520","delegates(address)":"587cde1e","eip712Domain()":"84b0196e","getPastTotalSupply(uint256)":"8e539e8c","getPastVotes(address,uint256)":"3a46b1a8","getVotes(address)":"9ab24eb0","mint(address,uint256)":"40c10f19","mint(uint256)":"a0712d68","name()":"06fdde03","nonces(address)":"7ecebe00","numCheckpoints(address)":"6fcfff45","symbol()":"95d89b41","totalSupply()":"18160ddd","transfer(address,uint256)":"a9059cbb","transferFrom(address,address,uint256)":"23b872dd"},"id":229}