{"abi":[{"type":"constructor","inputs":[],"stateMutability":"nonpayable"},{"type":"function","name":"executeMandate","inputs":[{"name":"caller","type":"address","internalType":"address"},{"name":"mandateId","type":"uint16","internalType":"uint16"},{"name":"mandateCalldata","type":"bytes","internalType":"bytes"},{"name":"nonce","type":"uint256","internalType":"uint256"}],"outputs":[{"name":"success","type":"bool","internalType":"bool"}],"stateMutability":"nonpayable"},{"type":"function","name":"getConfig","inputs":[{"name":"powers","type":"address","internalType":"address"},{"name":"mandateId","type":"uint16","internalType":"uint16"}],"outputs":[{"name":"config","type":"bytes","internalType":"bytes"}],"stateMutability":"view"},{"type":"function","name":"getInputParams","inputs":[{"name":"powers","type":"address","internalType":"address"},{"name":"mandateId","type":"uint16","internalType":"uint16"}],"outputs":[{"name":"inputParams","type":"bytes","internalType":"bytes"}],"stateMutability":"view"},{"type":"function","name":"getNameDescription","inputs":[{"name":"powers","type":"address","internalType":"address"},{"name":"mandateId","type":"uint16","internalType":"uint16"}],"outputs":[{"name":"nameDescription","type":"string","internalType":"string"}],"stateMutability":"view"},{"type":"function","name":"handleRequest","inputs":[{"name":"","type":"address","internalType":"address"},{"name":"powers","type":"address","internalType":"address"},{"name":"mandateId","type":"uint16","internalType":"uint16"},{"name":"mandateCalldata","type":"bytes","internalType":"bytes"},{"name":"nonce","type":"uint256","internalType":"uint256"}],"outputs":[{"name":"actionId","type":"uint256","internalType":"uint256"},{"name":"targets","type":"address[]","internalType":"address[]"},{"name":"values","type":"uint256[]","internalType":"uint256[]"},{"name":"calldatas","type":"bytes[]","internalType":"bytes[]"}],"stateMutability":"view"},{"type":"function","name":"initializeMandate","inputs":[{"name":"index","type":"uint16","internalType":"uint16"},{"name":"nameDescription","type":"string","internalType":"string"},{"name":"inputParams","type":"bytes","internalType":"bytes"},{"name":"config","type":"bytes","internalType":"bytes"}],"outputs":[],"stateMutability":"nonpayable"},{"type":"function","name":"mandates","inputs":[{"name":"mandateHash","type":"bytes32","internalType":"bytes32"}],"outputs":[{"name":"nameDescription","type":"string","internalType":"string"},{"name":"inputParams","type":"bytes","internalType":"bytes"},{"name":"config","type":"bytes","internalType":"bytes"},{"name":"powers","type":"address","internalType":"address"}],"stateMutability":"view"},{"type":"function","name":"supportsInterface","inputs":[{"name":"interfaceId","type":"bytes4","internalType":"bytes4"}],"outputs":[{"name":"","type":"bool","internalType":"bool"}],"stateMutability":"view"},{"type":"function","name":"targetContract","inputs":[{"name":"mandateHash","type":"bytes32","internalType":"bytes32"}],"outputs":[{"name":"targetContract","type":"address","internalType":"address"}],"stateMutability":"view"},{"type":"event","name":"Mandate__Deployed","inputs":[{"name":"configParams","type":"bytes","indexed":false,"internalType":"bytes"}],"anonymous":false},{"type":"event","name":"Mandate__Initialized","inputs":[{"name":"powers","type":"address","indexed":true,"internalType":"address"},{"name":"index","type":"uint16","indexed":true,"internalType":"uint16"},{"name":"nameDescription","type":"string","indexed":false,"internalType":"string"},{"name":"inputParams","type":"bytes","indexed":false,"internalType":"bytes"},{"name":"config","type":"bytes","indexed":false,"internalType":"bytes"}],"anonymous":false}],"bytecode":{"object":"0x608060405234801561000f575f80fd5b505f6040516020016100789060408082526016908201527f6164647265737320546172676574436f6e7472616374000000000000000000006060820152608060208201819052600e908201526d1d5a5b9d0c8d4d88141bdbdb125960921b60a082015260c00190565b60405160208183030381529060405290507f71bb7b033e40374cfbc64859f679a737bcbfca31158d6a4783c01ee8d445cc5e816040516100b891906100c6565b60405180910390a1506100fb565b602081525f82518060208401528060208501604085015e5f604082850101526040601f19601f83011684010191505092915050565b611825806101085f395ff3fe608060405234801561000f575f80fd5b506004361061009f575f3560e01c8063552cb37211610072578063b1f50f8911610058578063b1f50f8914610188578063c0d27aad1461019d578063d8a941f4146101b0575f80fd5b8063552cb3721461012557806399130d8914610148575f80fd5b806301e07972146100a357806301ffc9a7146100cf5780630d157721146100f25780634d516f0e14610112575b5f80fd5b6100b66100b1366004610e0e565b6101c3565b6040516100c69493929190610e53565b60405180910390f35b6100e26100dd366004610ea6565b610385565b60405190151581526020016100c6565b610105610100366004610f01565b6103bb565b6040516100c69190610f34565b6100e2610120366004610f46565b6104e4565b61013861013336600461109e565b610640565b6040516100c694939291906111e1565b610170610156366004610e0e565b60016020525f90815260409020546001600160a01b031681565b6040516001600160a01b0390911681526020016100c6565b61019b61019636600461122a565b6108d5565b005b6101056101ab366004610f01565b610a82565b6101056101be366004610f01565b610b28565b5f602081905290815260409020805481906101dd906112dc565b80601f0160208091040260200160405190810160405280929190818152602001828054610209906112dc565b80156102545780601f1061022b57610100808354040283529160200191610254565b820191905f5260205f20905b81548152906001019060200180831161023757829003601f168201915b505050505090806001018054610269906112dc565b80601f0160208091040260200160405190810160405280929190818152602001828054610295906112dc565b80156102e05780601f106102b7576101008083540402835291602001916102e0565b820191905f5260205f20905b8154815290600101906020018083116102c357829003601f168201915b5050505050908060020180546102f5906112dc565b80601f0160208091040260200160405190810160405280929190818152602001828054610321906112dc565b801561036c5780601f106103435761010080835404028352916020019161036c565b820191905f5260205f20905b81548152906001019060200180831161034f57829003601f168201915b505050600390930154919250506001600160a01b031684565b5f6001600160e01b0319821663a988d3f560e01b14806103b557506301ffc9a760e01b6001600160e01b03198316145b92915050565b60405163ee7620b960e01b81526001600160a01b038316600482015261ffff821660248201526060905f90819073__$b344a487aac4b55987f24f901fcd77e415$__9063ee7620b990604401602060405180830381865af4158015610422573d5f803e3d5ffd5b505050506040513d601f19601f820116820180604052508101906104469190611314565b81526020019081526020015f205f018054610460906112dc565b80601f016020809104026020016040519081016040528092919081815260200182805461048c906112dc565b80156104d75780601f106104ae576101008083540402835291602001916104d7565b820191905f5260205f20905b8154815290600101906020018083116104ba57829003601f168201915b5050505050905092915050565b60405163ee7620b960e01b815233600482015261ffff851660248201525f90819073__$b344a487aac4b55987f24f901fcd77e415$__9063ee7620b990604401602060405180830381865af415801561053f573d5f803e3d5ffd5b505050506040513d601f19601f820116820180604052508101906105639190611314565b5f818152602081905260409020600301549091506001600160a01b031633146105d35760405162461bcd60e51b815260206004820152600b60248201527f4f6e6c7920506f7765727300000000000000000000000000000000000000000060448201526064015b60405180910390fd5b5f805f8061061a8b338c8c8c8080601f0160208091040260200160405190810160405280939291908181526020018383808284375f920191909152508e9250610640915050565b935093509350935061062f8a85858585610bd5565b5060019a9950505050505050505050565b5f606080606073__$b344a487aac4b55987f24f901fcd77e415$__630bcec8558888886040518463ffffffff1660e01b81526004016106819392919061132b565b602060405180830381865af415801561069c573d5f803e3d5ffd5b505050506040513d601f19601f820116820180604052508101906106c09190611314565b60405163ee7620b960e01b81526001600160a01b038a16600482015261ffff891660248201529094505f9073__$b344a487aac4b55987f24f901fcd77e415$__9063ee7620b990604401602060405180830381865af4158015610725573d5f803e3d5ffd5b505050506040513d601f19601f820116820180604052508101906107499190611314565b5f8181526002602090815260408220548a519394509261077091908b018101908b01611357565b505090508181146107c35760405162461bcd60e51b815260206004820152600f60248201527f494e56414c49445f504f4f4c5f4944000000000000000000000000000000000060448201526064016105ca565b60405163054591f760e11b81526001600482015273__$b344a487aac4b55987f24f901fcd77e415$__90630a8b23ee906024015f60405180830381865af4158015610810573d5f803e3d5ffd5b505050506040513d5f823e601f3d908101601f1916820160405261083791908101906114d6565b5f868152600160205260408120548451949a509298509096506001600160a01b039091169188919061086b5761086b6115c6565b6001600160a01b0390921660209283029190910182015260405161089a91632e16f8d960e21b918c91016115da565b604051602081830303815290604052845f815181106108bb576108bb6115c6565b602002602001018190525050505095509550955095915050565b5f80828060200190518101906108eb9190611605565b60405163ee7620b960e01b815233600482015261ffff8916602482015291935091505f9073__$b344a487aac4b55987f24f901fcd77e415$__9063ee7620b990604401602060405180830381865af4158015610949573d5f803e3d5ffd5b505050506040513d601f19601f8201168201806040525081019061096d9190611314565b5f818152600260209081526040808320869055600182529182902080546001600160a01b03881673ffffffffffffffffffffffffffffffffffffffff199091161790559051919250610a5c91016060808252600e9082018190527f75696e7432353620506f6f6c4964000000000000000000000000000000000000608083015260a0602083018190526011908301527f616464726573732070617961626c65546f00000000000000000000000000000060c083015260e0604083018190528201527f75696e7432353620416d6f756e740000000000000000000000000000000000006101008201526101200190565b6040516020818303038152906040529450610a7987878787610c3b565b50505050505050565b60405163ee7620b960e01b81526001600160a01b038316600482015261ffff821660248201526060905f90819073__$b344a487aac4b55987f24f901fcd77e415$__9063ee7620b990604401602060405180830381865af4158015610ae9573d5f803e3d5ffd5b505050506040513d601f19601f82011682018060405250810190610b0d9190611314565b81526020019081526020015f206002018054610460906112dc565b60405163ee7620b960e01b81526001600160a01b038316600482015261ffff821660248201526060905f90819073__$b344a487aac4b55987f24f901fcd77e415$__9063ee7620b990604401602060405180830381865af4158015610b8f573d5f803e3d5ffd5b505050506040513d601f19601f82011682018060405250810190610bb39190611314565b81526020019081526020015f206001018054610460906112dc565b5050505050565b825115610bce57604051630de6a60160e01b81523390630de6a60190610c079088908890889088908890600401611631565b5f604051808303815f87803b158015610c1e575f80fd5b505af1158015610c30573d5f803e3d5ffd5b505050505050505050565b60405163ee7620b960e01b815233600482015261ffff851660248201525f9073__$b344a487aac4b55987f24f901fcd77e415$__9063ee7620b990604401602060405180830381865af4158015610c94573d5f803e3d5ffd5b505050506040513d601f19601f82011682018060405250810190610cb89190611314565b60405163cb4a15c560e01b815290915073__$b344a487aac4b55987f24f901fcd77e415$__9063cb4a15c590610cf890879060019060ff90600401611685565b5f6040518083038186803b158015610d0e575f80fd5b505af4158015610d20573d5f803e3d5ffd5b50506040805160808101825287815260208082018890528183018790523360608301525f8681529081905291909120815191935091508190610d6290826116f2565b5060208201516001820190610d7790826116f2565b5060408201516002820190610d8c90826116f2565b50606091909101516003909101805473ffffffffffffffffffffffffffffffffffffffff19166001600160a01b0390921691909117905560405161ffff86169033907ff02558935ef4a7a4dd0455b94fd00eb1bcd7d048c0ab648841d3985a31a135c290610dff908890889088906117ad565b60405180910390a35050505050565b5f60208284031215610e1e575f80fd5b5035919050565b5f81518084528060208401602086015e5f602082860101526020601f19601f83011685010191505092915050565b608081525f610e656080830187610e25565b8281036020840152610e778187610e25565b90508281036040840152610e8b8186610e25565b9150506001600160a01b038316606083015295945050505050565b5f60208284031215610eb6575f80fd5b81356001600160e01b031981168114610ecd575f80fd5b9392505050565b6001600160a01b0381168114610ee8575f80fd5b50565b803561ffff81168114610efc575f80fd5b919050565b5f8060408385031215610f12575f80fd5b8235610f1d81610ed4565b9150610f2b60208401610eeb565b90509250929050565b602081525f610ecd6020830184610e25565b5f805f805f60808688031215610f5a575f80fd5b8535610f6581610ed4565b9450610f7360208701610eeb565b9350604086013567ffffffffffffffff811115610f8e575f80fd5b8601601f81018813610f9e575f80fd5b803567ffffffffffffffff811115610fb4575f80fd5b886020828401011115610fc5575f80fd5b959894975060200195606001359392505050565b634e487b7160e01b5f52604160045260245ffd5b604051601f8201601f1916810167ffffffffffffffff8111828210171561101657611016610fd9565b604052919050565b5f67ffffffffffffffff82111561103757611037610fd9565b50601f01601f191660200190565b5f6110576110528461101e565b610fed565b905082815283838301111561106a575f80fd5b828260208301375f602084830101529392505050565b5f82601f83011261108f575f80fd5b610ecd83833560208501611045565b5f805f805f60a086880312156110b2575f80fd5b85356110bd81610ed4565b945060208601356110cd81610ed4565b93506110db60408701610eeb565b9250606086013567ffffffffffffffff8111156110f6575f80fd5b61110288828901611080565b95989497509295608001359392505050565b5f8151808452602084019350602083015f5b8281101561114d5781516001600160a01b0316865260209586019590910190600101611126565b5093949350505050565b5f8151808452602084019350602083015f5b8281101561114d578151865260209586019590910190600101611169565b5f82825180855260208501945060208160051b830101602085015f5b838110156111d557601f198584030188526111bf838351610e25565b60209889019890935091909101906001016111a3565b50909695505050505050565b848152608060208201525f6111f96080830186611114565b828103604084015261120b8186611157565b9050828103606084015261121f8185611187565b979650505050505050565b5f805f806080858703121561123d575f80fd5b61124685610eeb565b9350602085013567ffffffffffffffff811115611261575f80fd5b8501601f81018713611271575f80fd5b61128087823560208401611045565b935050604085013567ffffffffffffffff81111561129c575f80fd5b6112a887828801611080565b925050606085013567ffffffffffffffff8111156112c4575f80fd5b6112d087828801611080565b91505092959194509250565b600181811c908216806112f057607f821691505b60208210810361130e57634e487b7160e01b5f52602260045260245ffd5b50919050565b5f60208284031215611324575f80fd5b5051919050565b61ffff84168152606060208201525f6113476060830185610e25565b9050826040830152949350505050565b5f805f60608486031215611369575f80fd5b8351602085015190935061137c81610ed4565b6040949094015192959394509192915050565b5f67ffffffffffffffff8211156113a8576113a8610fd9565b5060051b60200190565b5f82601f8301126113c1575f80fd5b81516113cf6110528261138f565b8082825260208201915060208360051b8601019250858311156113f0575f80fd5b602085015b8381101561140d5780518352602092830192016113f5565b5095945050505050565b5f82601f830112611426575f80fd5b81516114346110528261138f565b8082825260208201915060208360051b860101925085831115611455575f80fd5b602085015b8381101561140d57805167ffffffffffffffff811115611478575f80fd5b8601603f81018813611488575f80fd5b60208101516114996110528261101e565b8181526040838301018a10156114ad575f80fd5b8160408401602083015e5f6020838301015280865250505060208301925060208101905061145a565b5f805f606084860312156114e8575f80fd5b835167ffffffffffffffff8111156114fe575f80fd5b8401601f8101861361150e575f80fd5b805161151c6110528261138f565b8082825260208201915060208360051b85010192508883111561153d575f80fd5b6020840193505b8284101561156857835161155781610ed4565b825260209384019390910190611544565b80965050505050602084015167ffffffffffffffff811115611588575f80fd5b611594868287016113b2565b925050604084015167ffffffffffffffff8111156115b0575f80fd5b6115bc86828701611417565b9150509250925092565b634e487b7160e01b5f52603260045260245ffd5b6001600160e01b03198316815281515f908060208501600485015e5f92016004019182525092915050565b5f8060408385031215611616575f80fd5b825161162181610ed4565b6020939093015192949293505050565b61ffff8616815284602082015260a060408201525f61165360a0830186611114565b82810360608401526116658186611157565b905082810360808401526116798185611187565b98975050505050505050565b606081525f6116976060830186610e25565b60208301949094525060400152919050565b601f8211156116ed57805f5260205f20601f840160051c810160208510156116ce5750805b601f840160051c820191505b81811015610bce575f81556001016116da565b505050565b815167ffffffffffffffff81111561170c5761170c610fd9565b6117208161171a84546112dc565b846116a9565b6020601f821160018114611752575f831561173b5750848201515b5f19600385901b1c1916600184901b178455610bce565b5f84815260208120601f198516915b828110156117815787850151825560209485019460019092019101611761565b508482101561179e57868401515f19600387901b60f8161c191681555b50505050600190811b01905550565b606081525f6117bf6060830186610e25565b82810360208401526117d18186610e25565b905082810360408401526117e58185610e25565b969550505050505056fea26469706673582212202c02a411f7fc9eef4d04193d3384f36d295819a7c6f68ad2708fb41c8b3aebca64736f6c634300081a0033","linkReferences":{"src/libraries/MandateUtilities.sol":{"MandateUtilities":[{"start":1266,"length":20},{"start":1551,"length":20},{"start":1872,"length":20},{"start":2037,"length":20},{"start":2273,"length":20},{"start":2585,"length":20},{"start":3001,"length":20},{"start":3167,"length":20},{"start":3428,"length":20},{"start":3538,"length":20}]}}},"methodIdentifiers":{"executeMandate(address,uint16,bytes,uint256)":"4d516f0e","getConfig(address,uint16)":"c0d27aad","getInputParams(address,uint16)":"d8a941f4","getNameDescription(address,uint16)":"0d157721","handleRequest(address,address,uint16,bytes,uint256)":"552cb372","initializeMandate(uint16,string,bytes,bytes)":"b1f50f89","mandates(bytes32)":"01e07972","supportsInterface(bytes4)":"01ffc9a7","targetContract(bytes32)":"99130d89"},"id":178}