{"abi":[{"type":"constructor","inputs":[],"stateMutability":"nonpayable"},{"type":"function","name":"executeMandate","inputs":[{"name":"caller","type":"address","internalType":"address"},{"name":"mandateId","type":"uint16","internalType":"uint16"},{"name":"mandateCalldata","type":"bytes","internalType":"bytes"},{"name":"nonce","type":"uint256","internalType":"uint256"}],"outputs":[{"name":"success","type":"bool","internalType":"bool"}],"stateMutability":"nonpayable"},{"type":"function","name":"getConfig","inputs":[{"name":"powers","type":"address","internalType":"address"},{"name":"mandateId","type":"uint16","internalType":"uint16"}],"outputs":[{"name":"config","type":"bytes","internalType":"bytes"}],"stateMutability":"view"},{"type":"function","name":"getConfigData","inputs":[{"name":"powers","type":"address","internalType":"address"},{"name":"mandateId","type":"uint16","internalType":"uint16"}],"outputs":[{"name":"","type":"tuple","internalType":"struct TreasuryPoolGovernance.ConfigData","components":[{"name":"selectedPoolTransfer","type":"address","internalType":"address"},{"name":"treasuryPools","type":"address","internalType":"address"},{"name":"proposeMandateId","type":"uint16","internalType":"uint16"},{"name":"vetoMandateId","type":"uint16","internalType":"uint16"},{"name":"votingPeriod","type":"uint32","internalType":"uint32"},{"name":"succeedAt","type":"uint8","internalType":"uint8"},{"name":"quorum","type":"uint8","internalType":"uint8"}]}],"stateMutability":"view"},{"type":"function","name":"getInputParams","inputs":[{"name":"powers","type":"address","internalType":"address"},{"name":"mandateId","type":"uint16","internalType":"uint16"}],"outputs":[{"name":"inputParams","type":"bytes","internalType":"bytes"}],"stateMutability":"view"},{"type":"function","name":"getNameDescription","inputs":[{"name":"powers","type":"address","internalType":"address"},{"name":"mandateId","type":"uint16","internalType":"uint16"}],"outputs":[{"name":"nameDescription","type":"string","internalType":"string"}],"stateMutability":"view"},{"type":"function","name":"handleRequest","inputs":[{"name":"","type":"address","internalType":"address"},{"name":"powers","type":"address","internalType":"address"},{"name":"mandateId","type":"uint16","internalType":"uint16"},{"name":"mandateCalldata","type":"bytes","internalType":"bytes"},{"name":"nonce","type":"uint256","internalType":"uint256"}],"outputs":[{"name":"actionId","type":"uint256","internalType":"uint256"},{"name":"targets","type":"address[]","internalType":"address[]"},{"name":"values","type":"uint256[]","internalType":"uint256[]"},{"name":"calldatas","type":"bytes[]","internalType":"bytes[]"}],"stateMutability":"view"},{"type":"function","name":"initializeMandate","inputs":[{"name":"index","type":"uint16","internalType":"uint16"},{"name":"nameDescription","type":"string","internalType":"string"},{"name":"inputParams","type":"bytes","internalType":"bytes"},{"name":"config","type":"bytes","internalType":"bytes"}],"outputs":[],"stateMutability":"nonpayable"},{"type":"function","name":"mandateConfig","inputs":[{"name":"mandateHash","type":"bytes32","internalType":"bytes32"}],"outputs":[{"name":"selectedPoolTransfer","type":"address","internalType":"address"},{"name":"treasuryPools","type":"address","internalType":"address"},{"name":"proposeMandateId","type":"uint16","internalType":"uint16"},{"name":"vetoMandateId","type":"uint16","internalType":"uint16"},{"name":"votingPeriod","type":"uint32","internalType":"uint32"},{"name":"succeedAt","type":"uint8","internalType":"uint8"},{"name":"quorum","type":"uint8","internalType":"uint8"}],"stateMutability":"view"},{"type":"function","name":"mandates","inputs":[{"name":"mandateHash","type":"bytes32","internalType":"bytes32"}],"outputs":[{"name":"nameDescription","type":"string","internalType":"string"},{"name":"inputParams","type":"bytes","internalType":"bytes"},{"name":"config","type":"bytes","internalType":"bytes"},{"name":"powers","type":"address","internalType":"address"}],"stateMutability":"view"},{"type":"function","name":"supportsInterface","inputs":[{"name":"interfaceId","type":"bytes4","internalType":"bytes4"}],"outputs":[{"name":"","type":"bool","internalType":"bool"}],"stateMutability":"view"},{"type":"event","name":"Mandate__Deployed","inputs":[{"name":"configParams","type":"bytes","indexed":false,"internalType":"bytes"}],"anonymous":false},{"type":"event","name":"Mandate__Initialized","inputs":[{"name":"powers","type":"address","indexed":true,"internalType":"address"},{"name":"index","type":"uint16","indexed":true,"internalType":"uint16"},{"name":"nameDescription","type":"string","indexed":false,"internalType":"string"},{"name":"inputParams","type":"bytes","indexed":false,"internalType":"bytes"},{"name":"config","type":"bytes","indexed":false,"internalType":"bytes"}],"anonymous":false},{"type":"error","name":"CannotDecodePoolId","inputs":[]},{"type":"error","name":"CannotDecodeSourceInputs","inputs":[]},{"type":"error","name":"InvalidSourceAction","inputs":[]},{"type":"error","name":"MandateNotConfigured","inputs":[]}],"bytecode":{"object":"0x608060405234801561000f575f80fd5b505f6040516020016100209061006e565b60405160208183030381529060405290507f71bb7b033e40374cfbc64859f679a737bcbfca31158d6a4783c01ee8d445cc5e8160405161006091906101de565b60405180910390a150610213565b60e08152601c60e08201527f616464726573732073656c6563746564506f6f6c5472616e7366657200000000610100820152610120602082015260156101208201527f61646472657373205472656173757279506f6f6c73000000000000000000000061014082015261016060408201525f6101186101608301601881527f75696e7431362070726f706f73616c4d616e6461746549640000000000000000602082015260400190565b8281036060840152601481527f75696e743136207665746f4d616e6461746549640000000000000000000000006020820152604081018381036080850152601381527f75696e74333220766f74696e67506572696f6400000000000000000000000000602082015290506040810183810360a0850152600f81526e1d5a5b9d0e081cdd58d8d95959105d608a1b602082015290506040810183810360c0850152600c81526b75696e74382071756f72756d60a01b60208201529050604081019392505050565b602081525f82518060208401528060208501604085015e5f604082850101526040601f19601f83011684010191505092915050565b61273b806102205f395ff3fe608060405234801561000f575f80fd5b50600436106100b9575f3560e01c8063599af5cc11610072578063c0d27aad11610058578063c0d27aad14610239578063d8a941f41461024c578063e33459a31461025f575f80fd5b8063599af5cc14610162578063b1f50f8914610224575f80fd5b80630d157721116100a25780630d1577211461010c5780634d516f0e1461012c578063552cb3721461013f575f80fd5b806301e07972146100bd57806301ffc9a7146100e9575b5f80fd5b6100d06100cb366004611953565b61027f565b6040516100e09493929190611998565b60405180910390f35b6100fc6100f73660046119eb565b610441565b60405190151581526020016100e0565b61011f61011a366004611a3f565b610477565b6040516100e09190611a76565b6100fc61013a366004611a88565b6105a0565b61015261014d366004611c0c565b6106fc565b6040516100e09493929190611d51565b6101d1610170366004611953565b600160208190525f918252604090912080549101546001600160a01b039182169181169061ffff600160a01b8204811691600160b01b81049091169063ffffffff600160c01b8204169060ff600160e01b8204811691600160e81b90041687565b604080516001600160a01b03988916815297909616602088015261ffff9485169587019590955292909116606085015263ffffffff16608084015260ff90811660a08401521660c082015260e0016100e0565b610237610232366004611d9a565b610e7d565b005b61011f610247366004611a3f565b6111a7565b61011f61025a366004611a3f565b61124d565b61027261026d366004611a3f565b6112f3565b6040516100e09190611e4e565b5f6020819052908152604090208054819061029990611ed1565b80601f01602080910402602001604051908101604052809291908181526020018280546102c590611ed1565b80156103105780601f106102e757610100808354040283529160200191610310565b820191905f5260205f20905b8154815290600101906020018083116102f357829003601f168201915b50505050509080600101805461032590611ed1565b80601f016020809104026020016040519081016040528092919081815260200182805461035190611ed1565b801561039c5780601f106103735761010080835404028352916020019161039c565b820191905f5260205f20905b81548152906001019060200180831161037f57829003601f168201915b5050505050908060020180546103b190611ed1565b80601f01602080910402602001604051908101604052809291908181526020018280546103dd90611ed1565b80156104285780601f106103ff57610100808354040283529160200191610428565b820191905f5260205f20905b81548152906001019060200180831161040b57829003601f168201915b505050600390930154919250506001600160a01b031684565b5f6001600160e01b0319821663a988d3f560e01b148061047157506301ffc9a760e01b6001600160e01b03198316145b92915050565b60405163ee7620b960e01b81526001600160a01b038316600482015261ffff821660248201526060905f90819073__$b344a487aac4b55987f24f901fcd77e415$__9063ee7620b990604401602060405180830381865af41580156104de573d5f803e3d5ffd5b505050506040513d601f19601f820116820180604052508101906105029190611f09565b81526020019081526020015f205f01805461051c90611ed1565b80601f016020809104026020016040519081016040528092919081815260200182805461054890611ed1565b80156105935780601f1061056a57610100808354040283529160200191610593565b820191905f5260205f20905b81548152906001019060200180831161057657829003601f168201915b5050505050905092915050565b60405163ee7620b960e01b815233600482015261ffff851660248201525f90819073__$b344a487aac4b55987f24f901fcd77e415$__9063ee7620b990604401602060405180830381865af41580156105fb573d5f803e3d5ffd5b505050506040513d601f19601f8201168201806040525081019061061f9190611f09565b5f818152602081905260409020600301549091506001600160a01b0316331461068f5760405162461bcd60e51b815260206004820152600b60248201527f4f6e6c7920506f7765727300000000000000000000000000000000000000000060448201526064015b60405180910390fd5b5f805f806106d68b338c8c8c8080601f0160208091040260200160405190810160405280939291908181526020018383808284375f920191909152508e92506106fc915050565b93509350935093506106eb8a85858585611486565b5060019a9950505050505050505050565b60405163ee7620b960e01b81526001600160a01b038516600482015261ffff841660248201525f9060609081908190849073__$b344a487aac4b55987f24f901fcd77e415$__9063ee7620b990604401602060405180830381865af4158015610767573d5f803e3d5ffd5b505050506040513d601f19601f8201168201806040525081019061078b9190611f09565b5f81815260016020818152604092839020835160e08101855281546001600160a01b039081168252919093015490811691830182905261ffff600160a01b8204811694840194909452600160b01b8104909316606083015263ffffffff600160c01b840416608083015260ff600160e01b8404811660a0840152600160e81b90930490921660c08201529192506108645760405162461bcd60e51b815260206004820152601660248201527f4d616e64617465204e6f7420436f6e66696775726564000000000000000000006044820152606401610686565b61086c61183e565b60405163831af37960e01b815261ffff8b1660048201525f906001600160a01b038d169063831af3799060240161010060405180830381865afa1580156108b5573d5f803e3d5ffd5b505050506040513d601f19601f820116820180604052508101906108d99190611f53565b9050806080015161ffff165f036109325760405162461bcd60e51b815260206004820152601160248201527f46756c66696c6c6564206e6f74207365740000000000000000000000000000006044820152606401610686565b6080810151604051630bcec85560e01b815273__$b344a487aac4b55987f24f901fcd77e415$__91630bcec8559161097191908e908e90600401611ff2565b602060405180830381865af415801561098c573d5f803e3d5ffd5b505050506040513d601f19601f820116820180604052508101906109b09190611f09565b808352604051634583476b60e01b815260048101919091526001600160a01b038d1690634583476b9060240160e060405180830381865afa1580156109f7573d5f803e3d5ffd5b505050506040513d601f19601f82011682018060405250810190610a1b9190612033565b50505065ffffffffffff166040860181905261ffff909316602086015250505f03610a5957604051630f7f29e160e11b815260040160405180910390fd5b81516040516341bd157d60e01b815260048101919091525f60248201526001600160a01b038d16906341bd157d906044015f60405180830381865afa158015610aa4573d5f803e3d5ffd5b505050506040513d5f823e601f3d908101601f19168201604052610acb9190810190612104565b606083018190528051610ae691602091810182019101611f09565b608083018190525f03610b3b5760405162461bcd60e51b815260206004820152601460248201527f43616e6e6f74206465636f646520706f6f6c49640000000000000000000000006044820152606401610686565b89806020019051810190610b4f919061213e565b60c085015250506040805163e88efe3560e01b815290516001600160a01b038e169163e88efe359160048083019260209291908290030181865afa158015610b99573d5f803e3d5ffd5b505050506040513d601f19601f82011682018060405250810190610bbd9190612172565b61ffff166101008301526080820151610bd5906114ec565b604051602001610be5919061218d565b60405160208183030381529060405282610120018190525082602001518260800151604051602001610c2c9291906001600160a01b03929092168252602082015260400190565b60408051808303601f19018152918152610160840191825260c0808501516101a08601805191909152608087810151825163ffffffff90911660209182015260a0808a0151845160ff91821660e0909101528a8601518551911695019490945288850151835161ffff918216908401526060808b015185519216919095015284519182018552610120880151825288516001600160a01b03169082015293518484015251908301526101808401919091525163054591f760e11b81526001600482015273__$b344a487aac4b55987f24f901fcd77e415$__90630a8b23ee906024015f60405180830381865af4158015610d28573d5f803e3d5ffd5b505050506040513d5f823e601f3d908101601f19168201604052610d4f91908101906122e0565b825192995090975095508c9088905f90610d6b57610d6b6123d0565b6001600160a01b039092166020928302919091019091015261018082015160405163b449711560e01b91610da1916024016123e4565b604051602081830303815290604052906001600160e01b0319166020820180516001600160e01b038381831617835250505050855f81518110610de657610de66123d0565b6020908102919091010152604051630bcec85560e01b815273__$b344a487aac4b55987f24f901fcd77e415$__90630bcec85590610e2c908e908e908e90600401611ff2565b602060405180830381865af4158015610e47573d5f803e3d5ffd5b505050506040513d601f19601f82011682018060405250810190610e6b9190611f09565b97505050505095509550955095915050565b5f805f805f805f87806020019051810190610e9891906124bb565b96509650965096509650965096505f73__$b344a487aac4b55987f24f901fcd77e415$__63ee7620b9338e6040518363ffffffff1660e01b8152600401610ef89291906001600160a01b0392909216825261ffff16602082015260400190565b602060405180830381865af4158015610f13573d5f803e3d5ffd5b505050506040513d601f19601f82011682018060405250810190610f379190611f09565b9050604051602001610fe69060608082526014908201527f6164647265737320546f6b656e41646472657373000000000000000000000000608082015260a060208201819052600e908201527f75696e743235362042756467657400000000000000000000000000000000000060c082015260e0604082018190526015908201527f75696e74323536204d616e61676572526f6c65496400000000000000000000006101008201526101200190565b60408051601f1981840301815260e0830182526001600160a01b03808c1684528a8116602085810191825261ffff808d168787019081528c82166060890190815263ffffffff808e1660808b0190815260ff808f1660a08d019081528e821660c08e019081525f8f81526001998a90529c909c209c518d54908b1673ffffffffffffffffffffffffffffffffffffffff19909116178d5597519b909601805494519351915197519a518716600160e81b027fffff00ffffffffffffffffffffffffffffffffffffffffffffffffffffffffff9b909716600160e01b029a909a167fffff0000ffffffffffffffffffffffffffffffffffffffffffffffffffffffff97909216600160c01b027fffffffff00000000ffffffffffffffffffffffffffffffffffffffffffffffff918616600160b01b02919091167fffffffff000000000000ffffffffffffffffffffffffffffffffffffffffffff93909516600160a01b027fffffffffffffffffffff000000000000000000000000000000000000000000009094169a9097169990991791909117161792909217169390931792909217905599506111998c8c8c8c61158a565b505050505050505050505050565b60405163ee7620b960e01b81526001600160a01b038316600482015261ffff821660248201526060905f90819073__$b344a487aac4b55987f24f901fcd77e415$__9063ee7620b990604401602060405180830381865af415801561120e573d5f803e3d5ffd5b505050506040513d601f19601f820116820180604052508101906112329190611f09565b81526020019081526020015f20600201805461051c90611ed1565b60405163ee7620b960e01b81526001600160a01b038316600482015261ffff821660248201526060905f90819073__$b344a487aac4b55987f24f901fcd77e415$__9063ee7620b990604401602060405180830381865af41580156112b4573d5f803e3d5ffd5b505050506040513d601f19601f820116820180604052508101906112d89190611f09565b81526020019081526020015f20600101805461051c90611ed1565b6040805160e0810182525f80825260208201819052918101829052606081018290526080810182905260a0810182905260c081019190915260405163ee7620b960e01b81526001600160a01b038416600482015261ffff831660248201525f9073__$b344a487aac4b55987f24f901fcd77e415$__9063ee7620b990604401602060405180830381865af415801561138d573d5f803e3d5ffd5b505050506040513d601f19601f820116820180604052508101906113b19190611f09565b5f81815260016020819052604090912001549091506001600160a01b03166113ec57604051631ac59e3360e11b815260040160405180910390fd5b5f90815260016020818152604092839020835160e08101855281546001600160a01b03908116825291909301549081169183019190915261ffff600160a01b8204811693830193909352600160b01b8104909216606082015263ffffffff600160c01b830416608082015260ff600160e01b8304811660a0830152600160e81b90920490911660c0820152905092915050565b5050505050565b82511561147f57604051630de6a60160e01b81523390630de6a601906114b89088908890889088908890600401612547565b5f604051808303815f87803b1580156114cf575f80fd5b505af11580156114e1573d5f803e3d5ffd5b505050505050505050565b60605f6114f88361175d565b60010190505f8167ffffffffffffffff81111561151757611517611b1d565b6040519080825280601f01601f191660200182016040528015611541576020820181803683370190505b5090508181016020015b5f19017f3031323334353637383961626364656600000000000000000000000000000000600a86061a8153600a850494508461154b575b509392505050565b60405163ee7620b960e01b815233600482015261ffff851660248201525f9073__$b344a487aac4b55987f24f901fcd77e415$__9063ee7620b990604401602060405180830381865af41580156115e3573d5f803e3d5ffd5b505050506040513d601f19601f820116820180604052508101906116079190611f09565b60405163cb4a15c560e01b815290915073__$b344a487aac4b55987f24f901fcd77e415$__9063cb4a15c59061164790879060019060ff9060040161259b565b5f6040518083038186803b15801561165d575f80fd5b505af415801561166f573d5f803e3d5ffd5b50506040805160808101825287815260208082018890528183018790523360608301525f86815290819052919091208151919350915081906116b19082612608565b50602082015160018201906116c69082612608565b50604082015160028201906116db9082612608565b50606091909101516003909101805473ffffffffffffffffffffffffffffffffffffffff19166001600160a01b0390921691909117905560405161ffff86169033907ff02558935ef4a7a4dd0455b94fd00eb1bcd7d048c0ab648841d3985a31a135c29061174e908890889088906126c3565b60405180910390a35050505050565b5f807a184f03e93ff9f4daa797ed6e38ed64bf6a1f01000000000000000083106117a5577a184f03e93ff9f4daa797ed6e38ed64bf6a1f010000000000000000830492506040015b6d04ee2d6d415b85acef810000000083106117d1576d04ee2d6d415b85acef8100000000830492506020015b662386f26fc1000083106117ef57662386f26fc10000830492506010015b6305f5e1008310611807576305f5e100830492506008015b612710831061181b57612710830492506004015b6064831061182d576064830492506002015b600a83106104715760010192915050565b604051806101c001604052805f81526020015f61ffff1681526020015f65ffffffffffff168152602001606081526020015f8152602001606081526020015f8152602001606081526020015f61ffff16815260200160608152602001606081526020016060815260200161190d604080516080808201835260608083525f602080850182905284860183905285516101008101875282815290810182905294850181905284820181905291840182905260a0840182905260c0840182905260e084019190915290919082015290565b815260408051610100810182525f8082526020828101829052928201819052606082018190526080820181905260a0820181905260c0820181905260e082015291015290565b5f60208284031215611963575f80fd5b5035919050565b5f81518084528060208401602086015e5f602082860101526020601f19601f83011685010191505092915050565b608081525f6119aa608083018761196a565b82810360208401526119bc818761196a565b905082810360408401526119d0818661196a565b9150506001600160a01b038316606083015295945050505050565b5f602082840312156119fb575f80fd5b81356001600160e01b031981168114611a12575f80fd5b9392505050565b6001600160a01b0381168114611a2d575f80fd5b50565b61ffff81168114611a2d575f80fd5b5f8060408385031215611a50575f80fd5b8235611a5b81611a19565b91506020830135611a6b81611a30565b809150509250929050565b602081525f611a12602083018461196a565b5f805f805f60808688031215611a9c575f80fd5b8535611aa781611a19565b94506020860135611ab781611a30565b9350604086013567ffffffffffffffff811115611ad2575f80fd5b8601601f81018813611ae2575f80fd5b803567ffffffffffffffff811115611af8575f80fd5b886020828401011115611b09575f80fd5b959894975060200195606001359392505050565b634e487b7160e01b5f52604160045260245ffd5b604051610100810167ffffffffffffffff81118282101715611b5557611b55611b1d565b60405290565b604051601f8201601f1916810167ffffffffffffffff81118282101715611b8457611b84611b1d565b604052919050565b5f67ffffffffffffffff821115611ba557611ba5611b1d565b50601f01601f191660200190565b5f611bc5611bc084611b8c565b611b5b565b9050828152838383011115611bd8575f80fd5b828260208301375f602084830101529392505050565b5f82601f830112611bfd575f80fd5b611a1283833560208501611bb3565b5f805f805f60a08688031215611c20575f80fd5b8535611c2b81611a19565b94506020860135611c3b81611a19565b93506040860135611c4b81611a30565b9250606086013567ffffffffffffffff811115611c66575f80fd5b611c7288828901611bee565b95989497509295608001359392505050565b5f8151808452602084019350602083015f5b82811015611cbd5781516001600160a01b0316865260209586019590910190600101611c96565b5093949350505050565b5f8151808452602084019350602083015f5b82811015611cbd578151865260209586019590910190600101611cd9565b5f82825180855260208501945060208160051b830101602085015f5b83811015611d4557601f19858403018852611d2f83835161196a565b6020988901989093509190910190600101611d13565b50909695505050505050565b848152608060208201525f611d696080830186611c84565b8281036040840152611d7b8186611cc7565b90508281036060840152611d8f8185611cf7565b979650505050505050565b5f805f8060808587031215611dad575f80fd5b8435611db881611a30565b9350602085013567ffffffffffffffff811115611dd3575f80fd5b8501601f81018713611de3575f80fd5b611df287823560208401611bb3565b935050604085013567ffffffffffffffff811115611e0e575f80fd5b611e1a87828801611bee565b925050606085013567ffffffffffffffff811115611e36575f80fd5b611e4287828801611bee565b91505092959194509250565b5f60e0820190506001600160a01b0383511682526001600160a01b03602084015116602083015261ffff604084015116604083015261ffff606084015116606083015263ffffffff608084015116608083015260a0830151611eb560a084018260ff169052565b5060c0830151611eca60c084018260ff169052565b5092915050565b600181811c90821680611ee557607f821691505b602082108103611f0357634e487b7160e01b5f52602260045260245ffd5b50919050565b5f60208284031215611f19575f80fd5b5051919050565b805163ffffffff81168114611f33575f80fd5b919050565b8051611f3381611a30565b805160ff81168114611f33575f80fd5b5f610100828403128015611f65575f80fd5b50611f6e611b31565b82518152611f7e60208401611f20565b6020820152611f8f60408401611f20565b6040820152611fa060608401611f20565b60608201526080830151611fb381611a30565b6080820152611fc460a08401611f38565b60a0820152611fd560c08401611f43565b60c0820152611fe660e08401611f43565b60e08201529392505050565b61ffff84168152606060208201525f61200e606083018561196a565b9050826040830152949350505050565b805165ffffffffffff81168114611f33575f80fd5b5f805f805f805f60e0888a031215612049575f80fd5b875161205481611a30565b96506120626020890161201e565b95506120706040890161201e565b945061207e6060890161201e565b935061208c6080890161201e565b925060a088015161209c81611a19565b60c09890980151969995985093969295919492935090919050565b5f82601f8301126120c6575f80fd5b81516120d4611bc082611b8c565b8181528460208386010111156120e8575f80fd5b8160208501602083015e5f918101602001919091529392505050565b5f60208284031215612114575f80fd5b815167ffffffffffffffff81111561212a575f80fd5b612136848285016120b7565b949350505050565b5f805f60608486031215612150575f80fd5b835161215b81611a19565b602085015160409095015190969495509392505050565b5f60208284031215612182575f80fd5b8151611a1281611a30565b6402837b7b6160dd1b81525f82518060208501600585015e7f2045786563757465205472616e736665720000000000000000000000000000006005939091019283015250601601919050565b5f67ffffffffffffffff8211156121f2576121f2611b1d565b5060051b60200190565b5f82601f83011261220b575f80fd5b8151612219611bc0826121d9565b8082825260208201915060208360051b86010192508583111561223a575f80fd5b602085015b8381101561225757805183526020928301920161223f565b5095945050505050565b5f82601f830112612270575f80fd5b815161227e611bc0826121d9565b8082825260208201915060208360051b86010192508583111561229f575f80fd5b602085015b8381101561225757805167ffffffffffffffff8111156122c2575f80fd5b6122d1886020838a01016120b7565b845250602092830192016122a4565b5f805f606084860312156122f2575f80fd5b835167ffffffffffffffff811115612308575f80fd5b8401601f81018613612318575f80fd5b8051612326611bc0826121d9565b8082825260208201915060208360051b850101925088831115612347575f80fd5b6020840193505b8284101561237257835161236181611a19565b82526020938401939091019061234e565b80965050505050602084015167ffffffffffffffff811115612392575f80fd5b61239e868287016121fc565b925050604084015167ffffffffffffffff8111156123ba575f80fd5b6123c686828701612261565b9150509250925092565b634e487b7160e01b5f52603260045260245ffd5b602081525f8251610160602084015261240161018084018261196a565b90506001600160a01b0360208501511660408401526040840151601f19848303016060850152612431828261196a565b91505060608401518051608085015263ffffffff60208201511660a085015263ffffffff60408201511660c085015263ffffffff60608201511660e0850152608081015161248661010086018261ffff169052565b5060a081015161ffff81166101208601525060c081015160ff81166101408601525060e0015160ff8116610160850152611582565b5f805f805f805f60e0888a0312156124d1575f80fd5b87516124dc81611a19565b60208901519097506124ed81611a19565b60408901519096506124fe81611a30565b606089015190955061250f81611a30565b935061251d60808901611f20565b925061252b60a08901611f43565b915061253960c08901611f43565b905092959891949750929550565b61ffff8616815284602082015260a060408201525f61256960a0830186611c84565b828103606084015261257b8186611cc7565b9050828103608084015261258f8185611cf7565b98975050505050505050565b606081525f6125ad606083018661196a565b60208301949094525060400152919050565b601f82111561260357805f5260205f20601f840160051c810160208510156125e45750805b601f840160051c820191505b8181101561147f575f81556001016125f0565b505050565b815167ffffffffffffffff81111561262257612622611b1d565b612636816126308454611ed1565b846125bf565b6020601f821160018114612668575f83156126515750848201515b5f19600385901b1c1916600184901b17845561147f565b5f84815260208120601f198516915b828110156126975787850151825560209485019460019092019101612677565b50848210156126b457868401515f19600387901b60f8161c191681555b50505050600190811b01905550565b606081525f6126d5606083018661196a565b82810360208401526126e7818661196a565b905082810360408401526126fb818561196a565b969550505050505056fea2646970667358221220e7864c251a098f8a26653406102ebdb45c22786af21199a27138fc0faa09b12864736f6c634300081a0033","linkReferences":{"src/libraries/MandateUtilities.sol":{"MandateUtilities":[{"start":1734,"length":20},{"start":2019,"length":20},{"start":2383,"length":20},{"start":2918,"length":20},{"start":3857,"length":20},{"start":4128,"length":20},{"start":4297,"length":20},{"start":5110,"length":20},{"start":5276,"length":20},{"start":5493,"length":20},{"start":6091,"length":20},{"start":6201,"length":20}]}}},"methodIdentifiers":{"executeMandate(address,uint16,bytes,uint256)":"4d516f0e","getConfig(address,uint16)":"c0d27aad","getConfigData(address,uint16)":"e33459a3","getInputParams(address,uint16)":"d8a941f4","getNameDescription(address,uint16)":"0d157721","handleRequest(address,address,uint16,bytes,uint256)":"552cb372","initializeMandate(uint16,string,bytes,bytes)":"b1f50f89","mandateConfig(bytes32)":"599af5cc","mandates(bytes32)":"01e07972","supportsInterface(bytes4)":"01ffc9a7"},"id":177}